{"contracts/NFTCollection.sol":{"NFTCollection":{"abi":[{"inputs":[],"stateMutability":"nonpayable","type":"constructor"},{"anonymous":false,"inputs":[{"indexed":true,"internalType":"uint256","name":"achievementId","type":"uint256"},{"indexed":false,"internalType":"string","name":"name","type":"string"}],"name":"AchievementCreated","type":"event"},{"anonymous":false,"inputs":[{"indexed":true,"internalType":"address","name":"owner","type":"address"},{"indexed":true,"internalType":"address","name":"approved","type":"address"},{"indexed":true,"internalType":"uint256","name":"tokenId","type":"uint256"}],"name":"Approval","type":"event"},{"anonymous":false,"inputs":[{"indexed":true,"internalType":"address","name":"owner","type":"address"},{"indexed":true,"internalType":"address","name":"operator","type":"address"},{"indexed":false,"internalType":"bool","name":"approved","type":"bool"}],"name":"ApprovalForAll","type":"event"},{"anonymous":false,"inputs":[{"indexed":true,"internalType":"uint256","name":"tokenId","type":"uint256"},{"indexed":true,"internalType":"address","name":"owner","type":"address"},{"indexed":false,"internalType":"uint256","name":"achievementId","type":"uint256"}],"name":"NFTMinted","type":"event"},{"anonymous":false,"inputs":[{"indexed":true,"internalType":"uint256","name":"tokenId","type":"uint256"},{"indexed":true,"internalType":"address","name":"from","type":"address"},{"indexed":true,"internalType":"address","name":"to","type":"address"}],"name":"NFTTransferred","type":"event"},{"inputs":[{"internalType":"uint256","name":"","type":"uint256"}],"name":"achievements","outputs":[{"internalType":"uint256","name":"id","type":"uint256"},{"internalType":"string","name":"name","type":"string"},{"internalType":"string","name":"description","type":"string"},{"internalType":"string","name":"rarity","type":"string"},{"internalType":"uint256","name":"requirement","type":"uint256"},{"internalType":"string","name":"achievementType","type":"string"}],"stateMutability":"view","type":"function"},{"inputs":[],"name":"admin","outputs":[{"internalType":"address","name":"","type":"address"}],"stateMutability":"view","type":"function"},{"inputs":[{"internalType":"address","name":"to","type":"address"},{"internalType":"uint256","name":"tokenId","type":"uint256"}],"name":"approve","outputs":[],"stateMutability":"nonpayable","type":"function"},{"inputs":[{"internalType":"uint256","name":"achievementId","type":"uint256"}],"name":"getAchievement","outputs":[{"components":[{"internalType":"uint256","name":"id","type":"uint256"},{"internalType":"string","name":"name","type":"string"},{"internalType":"string","name":"description","type":"string"},{"internalType":"string","name":"rarity","type":"string"},{"internalType":"uint256","name":"requirement","type":"uint256"},{"internalType":"string","name":"achievementType","type":"string"}],"internalType":"struct NFTCollection.Achievement","name":"","type":"tuple"}],"stateMutability":"view","type":"function"},{"inputs":[{"internalType":"uint256","name":"tokenId","type":"uint256"}],"name":"getApproved","outputs":[{"internalType":"address","name":"","type":"address"}],"stateMutability":"view","type":"function"},{"inputs":[{"internalType":"uint256","name":"tokenId","type":"uint256"}],"name":"getNFT","outputs":[{"internalType":"uint256","name":"id","type":"uint256"},{"internalType":"uint256","name":"achievementId","type":"uint256"},{"internalType":"address","name":"ownerAddr","type":"address"},{"internalType":"string","name":"metadataURI","type":"string"},{"internalType":"uint256","name":"mintedAt","type":"uint256"},{"internalType":"bool","name":"exists","type":"bool"}],"stateMutability":"view","type":"function"},{"inputs":[{"internalType":"address","name":"ownerAddr","type":"address"}],"name":"getOwnerTokens","outputs":[{"internalType":"uint256[]","name":"","type":"uint256[]"}],"stateMutability":"view","type":"function"},{"inputs":[{"internalType":"address","name":"","type":"address"},{"internalType":"uint256","name":"","type":"uint256"}],"name":"hasEarnedAchievement","outputs":[{"internalType":"bool","name":"","type":"bool"}],"stateMutability":"view","type":"function"},{"inputs":[{"internalType":"address","name":"owner","type":"address"},{"internalType":"address","name":"operator","type":"address"}],"name":"isApprovedForAll","outputs":[{"internalType":"bool","name":"","type":"bool"}],"stateMutability":"view","type":"function"},{"inputs":[{"internalType":"address","name":"player","type":"address"},{"internalType":"uint256","name":"achievementId","type":"uint256"},{"internalType":"string","name":"metadataURI","type":"string"},{"internalType":"bytes","name":"signature","type":"bytes"}],"name":"mintNFT","outputs":[{"internalType":"uint256","name":"","type":"uint256"}],"stateMutability":"nonpayable","type":"function"},{"inputs":[],"name":"nextTokenId","outputs":[{"internalType":"uint256","name":"","type":"uint256"}],"stateMutability":"view","type":"function"},{"inputs":[{"internalType":"uint256","name":"","type":"uint256"}],"name":"nfts","outputs":[{"internalType":"uint256","name":"tokenId","type":"uint256"},{"internalType":"uint256","name":"achievementId","type":"uint256"},{"internalType":"address","name":"owner","type":"address"},{"internalType":"string","name":"metadataURI","type":"string"},{"internalType":"uint256","name":"mintedAt","type":"uint256"},{"internalType":"bool","name":"exists","type":"bool"}],"stateMutability":"view","type":"function"},{"inputs":[{"internalType":"address","name":"","type":"address"},{"internalType":"uint256","name":"","type":"uint256"}],"name":"ownerTokens","outputs":[{"internalType":"uint256","name":"","type":"uint256"}],"stateMutability":"view","type":"function"},{"inputs":[],"name":"royaltyPercentage","outputs":[{"internalType":"uint256","name":"","type":"uint256"}],"stateMutability":"view","type":"function"},{"inputs":[{"internalType":"address","name":"operator","type":"address"},{"internalType":"bool","name":"approved","type":"bool"}],"name":"setApprovalForAll","outputs":[],"stateMutability":"nonpayable","type":"function"},{"inputs":[{"internalType":"uint256","name":"percentage","type":"uint256"}],"name":"setRoyaltyPercentage","outputs":[],"stateMutability":"nonpayable","type":"function"},{"inputs":[{"internalType":"uint256","name":"tokenId","type":"uint256"},{"internalType":"address","name":"to","type":"address"}],"name":"transferNFT","outputs":[],"stateMutability":"nonpayable","type":"function"}],"evm":{"bytecode":{"linkReferences":{},"object":"608060405260056002553480156200001657600080fd5b50600080546001600160a01b0319163317905560018055620000376200003d565b62000fae565b6040518060c00160405280600181526020016040518060400160405280601281526020017123b0b630b1ba34b19021b7b6b6b0b73232b960711b81525081526020016040518060600160405280602181526020016200291060219139815260408051808201825260098152684c6567656e6461727960b81b60208281019190915280840191909152620186a082840152815180830190925260058083526473636f726560d81b83830152606090930191909152600160005290815281517f1471eb6eb2c5e789fc3de43f8ce62938c7d1836ec861730447e2ada8fd81017b908155908201517f1471eb6eb2c5e789fc3de43f8ce62938c7d1836ec861730447e2ada8fd81017c9062000150908262000ee2565b506040820151600282019062000167908262000ee2565b50606082015160038201906200017e908262000ee2565b506080820151600482015560a082015160058201906200019f908262000ee2565b50506040805160c081018252600280825282518084018452601181527029ba32b63630b9102232b9ba3937bcb2b960791b60208281019190915280840191825284518086018652601d81527f4869676865737420746f74616c206e756d626572206f66206b696c6c7300000081830152848601528451808601865260098152684c6567656e6461727960b81b8183015260608501526032608085015284518086019095526005808652646b696c6c7360d81b8683015260a085019590955260009290925292905280517f89832631fb3c3307a103ba2c84ab569c64d6182a18893dcd163f0f1c2090733a90815591519092507f89832631fb3c3307a103ba2c84ab569c64d6182a18893dcd163f0f1c2090733b90620002bf908262000ee2565b5060408201516002820190620002d6908262000ee2565b5060608201516003820190620002ed908262000ee2565b506080820151600482015560a082015160058201906200030e908262000ee2565b50506040805160c081018252600380825282518084018452600e81526d50686f746f6e696320426c61646560901b60208281019190915280840191825284518086018652601481527f42657374206163637572616379203e3d2038352500000000000000000000000081830152848601528451808601865260048152634570696360e01b8183015260608501526055608085015284518086019095526008855267616363757261637960c01b8582015260a0840194909452600091909152600590925280517fa9bc9a3a348c357ba16b37005d7e6b3236198c0e939f4af8c5f19b8deeb8ebc090815591519092507fa9bc9a3a348c357ba16b37005d7e6b3236198c0e939f4af8c5f19b8deeb8ebc1906200042a908262000ee2565b506040820151600282019062000441908262000ee2565b506060820151600382019062000458908262000ee2565b506080820151600482015560a0820151600582019062000479908262000ee2565b50506040805160c081018252600480825282518084018452600b81526a2a34b6b29026b0b9ba32b960a91b60208281019190915280840191825284518086018652601981527f4c6f6e6765737420737572766976616c206475726174696f6e00000000000000818301528486015284518086018652838152634570696360e01b818301526060850152610384608085015284518086019095528285526374696d6560e01b8582015260a0840194909452600091909152600590925280517f3eec716f11ba9e820c81ca75eb978ffb45831ef8b7a53e5e422c26008e1ca6d590815591519092507f3eec716f11ba9e820c81ca75eb978ffb45831ef8b7a53e5e422c26008e1ca6d6906200058d908262000ee2565b5060408201516002820190620005a4908262000ee2565b5060608201516003820190620005bb908262000ee2565b506080820151600482015560a08201516005820190620005dc908262000ee2565b50506040805160c081018252600580825282518084018452600d81526c29ba30b91021b430b6b834b7b760991b60208281019190915280840191825284518086018652601e81527f53636f72652061626f766520393025206f66206265737420706c61796572000081830152848601528451808601865260048152634570696360e01b81830152606085015261c350608085015284518086019095528285526473636f726560d81b8582015260a08401949094526000829052925280517f458b30c2d72bfd2c6317304a4594ecbafe5f729d3111b65fdc3a33bd48e5432d90815591519092507f458b30c2d72bfd2c6317304a4594ecbafe5f729d3111b65fdc3a33bd48e5432e90620006f0908262000ee2565b506040820151600282019062000707908262000ee2565b50606082015160038201906200071e908262000ee2565b506080820151600482015560a082015160058201906200073f908262000ee2565b50506040805160c081018252600680825282518084018452600b81526a536f6c617220466c616d6560a81b60208281019190915280840191825284518086018652601a81527f48696768657374206b696c6c732f6d696e75746520726174696f00000000000081830152848601528451808601865260048152635261726560e01b818301526060850152600a608085015284518086019095526005808652646b696c6c7360d81b8683015260a085019590955260009290925292905280517f069400f22b28c6c362558d92f66163cec5671cba50b61abd2eecfcd0eaeac51890815591519092507f069400f22b28c6c362558d92f66163cec5671cba50b61abd2eecfcd0eaeac5199062000854908262000ee2565b50604082015160028201906200086b908262000ee2565b506060820151600382019062000882908262000ee2565b506080820151600482015560a08201516005820190620008a3908262000ee2565b50506040805160c081018252600780825282518084018452600e81526d27b93134ba30b61029b734b832b960911b60208281019190915280840191825284518086018652601d81527f507265636973696f6e203e20393525206f7665722035302073686f747300000081830152848601528451808601865260048152634570696360e01b818301526060850152605f608085015284518086019095526008855267616363757261637960c01b8582015260a0840194909452600091909152600590925280517feddb6698d7c569ff62ff64f1f1492bf14a54594835ba0faac91f84b4f5d8146090815591519092507feddb6698d7c569ff62ff64f1f1492bf14a54594835ba0faac91f84b4f5d8146190620009bf908262000ee2565b5060408201516002820190620009d6908262000ee2565b5060608201516003820190620009ed908262000ee2565b506080820151600482015560a0820151600582019062000a0e908262000ee2565b50506040805160c081018252600880825282518084018452600d81526c2b37b4b21029bab93b34bb37b960991b60208281019190915280840191825284518086018652601f81527f537572766976616c203e203130206d696e20776974686f7574206465617468008183015284860152845180860186526004808252635261726560e01b8284015260608601919091526102586080860152855180870190965285526374696d6560e01b8582015260a0840194909452600091909152600590925280517ffb33122aa9f93cc639ebe80a7bc4784c11e6053dde89c6f4f7e268c6a623da1e90815591519092507ffb33122aa9f93cc639ebe80a7bc4784c11e6053dde89c6f4f7e268c6a623da1f9062000b28908262000ee2565b506040820151600282019062000b3f908262000ee2565b506060820151600382019062000b56908262000ee2565b506080820151600482015560a0820151600582019062000b77908262000ee2565b50506040805160c081018252600980825282518084018452600f81526e5374656c6c61722050726f6469677960881b60208281019190915280840191825284518086018652601c81527f486967682073636f7265202b20707265636973696f6e203e203830250000000081830152848601528451808601865260048152634570696360e01b81830152606085015261753060808501528451808601909552600580865264636f6d626f60d81b8683015260a085019590955260009290925292905280517fc0a4a8be475dfebc377ebef2d7c4ff47656f572a08dd92b81017efcdba0febe190815591519092507fc0a4a8be475dfebc377ebef2d7c4ff47656f572a08dd92b81017efcdba0febe29062000c91908262000ee2565b506040820151600282019062000ca8908262000ee2565b506060820151600382019062000cbf908262000ee2565b506080820151600482015560a0820151600582019062000ce0908262000ee2565b50506040805160c081018252600a80825282518084018452600b81526a149a5b99c8131959d95b9960aa1b60208281019190915280840191825284518086018652601081526f4d617374657220616c6c20737461747360801b81830152848601528451808601865260068152654d797468696360d01b818301526060850152600160808501528451808601909552600580865264636f6d626f60d81b8683015260a085019590955260009290925292905280517fa18b128af1c8fc61ff46f02d146e54546f34d340574cf2cef6a753cba6b6701d90815591519092507fa18b128af1c8fc61ff46f02d146e54546f34d340574cf2cef6a753cba6b6701e9062000dea908262000ee2565b506040820151600282019062000e01908262000ee2565b506060820151600382019062000e18908262000ee2565b506080820151600482015560a0820151600582019062000e39908262000ee2565b505050565b634e487b7160e01b600052604160045260246000fd5b600181811c9082168062000e6957607f821691505b60208210810362000e8a57634e487b7160e01b600052602260045260246000fd5b50919050565b601f82111562000e3957600081815260208120601f850160051c8101602086101562000eb95750805b601f850160051c820191505b8181101562000eda5782815560010162000ec5565b505050505050565b81516001600160401b0381111562000efe5762000efe62000e3e565b62000f168162000f0f845462000e54565b8462000e90565b602080601f83116001811462000f4e576000841562000f355750858301515b600019600386901b1c1916600185901b17855562000eda565b600085815260208120601f198616915b8281101562000f7f5788860151825594840194600190910190840162000f5e565b508582101562000f9e5787850151600019600388901b60f8161c191681555b5050505050600190811b01905550565b6119528062000fbe6000396000f3fe608060405234801561001057600080fd5b506004361061010b5760003560e01c80638a71bb2d116100a2578063d63d4af011610071578063d63d4af014610231578063e500f31c14610251578063e985e9c51461028f578063f2ccc543146102a2578063f851a440146102c257600080fd5b80638a71bb2d146101ef5780639036c050146101f8578063a22cb4651461020b578063cf20e93a1461021e57600080fd5b806328b60031116100de57806328b600311461019f578063576f7ea7146101c057806361ba27da146101d357806375794a3c146101e657600080fd5b8063081812fc14610110578063095ea7b314610140578063265aa6211461015557806327aed72e1461017a575b600080fd5b61012361011e366004611328565b6102d5565b6040516001600160a01b0390911681526020015b60405180910390f35b61015361014e36600461135d565b61032b565b005b610168610163366004611328565b610468565b604051610137969594939291906113cd565b61018d610188366004611328565b610536565b60405161013796959493929190611414565b6101b26101ad36600461135d565b61078b565b604051908152602001610137565b6101686101ce366004611328565b6107bc565b6101536101e1366004611328565b61091c565b6101b260015481565b6101b260025481565b61015361020636600461147a565b6109ba565b6101536102193660046114a6565b610b95565b6101b261022c36600461156e565b610c59565b61024461023f366004611617565b610efe565b6040516101379190611639565b61027f61025f36600461135d565b600660209081526000928352604080842090915290825290205460ff1681565b6040519015158152602001610137565b61027f61029d36600461167d565b610f6a565b6102b56102b0366004611328565b610f9a565b60405161013791906116a7565b600054610123906001600160a01b031681565b60008181526003602052604081206005015460ff1661030f5760405162461bcd60e51b815260040161030690611739565b60405180910390fd5b506000908152600760205260409020546001600160a01b031690565b6000818152600360205260409020600201546001600160a01b03163381148061037757506001600160a01b038116600090815260086020908152604080832033845290915290205460ff165b6103b45760405162461bcd60e51b815260206004820152600e60248201526d139bdd08185d5d1a1bdc9a5e995960921b6044820152606401610306565b806001600160a01b0316836001600160a01b03160361040c5760405162461bcd60e51b815260206004820152601460248201527321b0b73737ba1030b8383937bb329037bbb732b960611b6044820152606401610306565b60008281526007602052604080822080546001600160a01b0319166001600160a01b0387811691821790925591518593918516917f8c5be1e5ebec7d5bd14f71427d1e84f3dd0314c0f7b2291e5b200ac8c7c3b92591a4505050565b60036020819052600091825260409091208054600182015460028301549383018054929491936001600160a01b03909216926104a390611765565b80601f01602080910402602001604051908101604052809291908181526020018280546104cf90611765565b801561051c5780601f106104f15761010080835404028352916020019161051c565b820191906000526020600020905b8154815290600101906020018083116104ff57829003601f168201915b50505050600483015460059093015491929160ff16905086565b6005602052600090815260409020805460018201805491929161055890611765565b80601f016020809104026020016040519081016040528092919081815260200182805461058490611765565b80156105d15780601f106105a6576101008083540402835291602001916105d1565b820191906000526020600020905b8154815290600101906020018083116105b457829003601f168201915b5050505050908060020180546105e690611765565b80601f016020809104026020016040519081016040528092919081815260200182805461061290611765565b801561065f5780601f106106345761010080835404028352916020019161065f565b820191906000526020600020905b81548152906001019060200180831161064257829003601f168201915b50505050509080600301805461067490611765565b80601f01602080910402602001604051908101604052809291908181526020018280546106a090611765565b80156106ed5780601f106106c2576101008083540402835291602001916106ed565b820191906000526020600020905b8154815290600101906020018083116106d057829003601f168201915b50505050509080600401549080600501805461070890611765565b80601f016020809104026020016040519081016040528092919081815260200182805461073490611765565b80156107815780601f1061075657610100808354040283529160200191610781565b820191906000526020600020905b81548152906001019060200180831161076457829003601f168201915b5050505050905086565b600460205281600052604060002081815481106107a757600080fd5b90600052602060002001600091509150505481565b600081815260036020526040812060050154819081906060908290819060ff166107f85760405162461bcd60e51b815260040161030690611739565b6000878152600360208181526040808420815160c0810183528154815260018201549381019390935260028101546001600160a01b031691830191909152918201805491929160608401919061084d90611765565b80601f016020809104026020016040519081016040528092919081815260200182805461087990611765565b80156108c65780601f1061089b576101008083540402835291602001916108c6565b820191906000526020600020905b8154815290600101906020018083116108a957829003601f168201915b5050509183525050600482015460208083019190915260059092015460ff161515604091820152825191830151908301516060840151608085015160a090950151939d929c50909a509850919650945092505050565b6000546001600160a01b031633146109715760405162461bcd60e51b81526020600482015260186024820152774f6e6c792061646d696e2063616e2063616c6c207468697360401b6044820152606401610306565b600a8111156109b55760405162461bcd60e51b815260206004820152601060248201526f0a4def2c2d8e8f240e8dede40d0d2ced60831b6044820152606401610306565b600255565b60008281526003602052604090206005015460ff166109eb5760405162461bcd60e51b815260040161030690611739565b6001600160a01b038116610a335760405162461bcd60e51b815260206004820152600f60248201526e496e76616c6964206164647265737360881b6044820152606401610306565b6000828152600360205260409020600201546001600160a01b031633811480610a7257506000838152600760205260409020546001600160a01b031633145b80610aa057506001600160a01b038116600090815260086020908152604080832033845290915290205460ff165b610aec5760405162461bcd60e51b815260206004820152601a60248201527f4e6f7420617574686f72697a656420746f207472616e736665720000000000006044820152606401610306565b600083815260076020908152604080832080546001600160a01b0319908116909155600390925290912060020180549091166001600160a01b038416179055610b358184611254565b6001600160a01b038083166000818152600460209081526040808320805460018101825590845291832090910187905551919284169186917f67043fac5fd2bf9edbb46ee495aaed7f97f91d43507d373be2b592af19b8c0a891a4505050565b6001600160a01b0382163303610bed5760405162461bcd60e51b815260206004820152601c60248201527f43616e6e6f742073657420617070726f76616c20666f722073656c66000000006044820152606401610306565b3360008181526008602090815260408083206001600160a01b03871680855290835292819020805460ff191686151590811790915590519081529192917f17307eab39ab6107e8899845ad3d59bd9653f200f220920489ca2b5937696c31910160405180910390a35050565b600080546001600160a01b03163314610caf5760405162461bcd60e51b81526020600482015260186024820152774f6e6c792061646d696e2063616e2063616c6c207468697360401b6044820152606401610306565b60018410158015610cc15750600a8411155b610d035760405162461bcd60e51b8152602060048201526013602482015272125b9d985b1a59081858da1a595d995b595b9d606a1b6044820152606401610306565b6001600160a01b038516600090815260066020908152604080832087845290915290205460ff1615610d685760405162461bcd60e51b815260206004820152600e60248201526d105b1c9958591e4819585c9b995960921b6044820152606401610306565b6000825111610dad5760405162461bcd60e51b8152602060048201526011602482015270496e76616c6964207369676e617475726560781b6044820152606401610306565b600180549081906000610dbf836117b5565b90915550506040805160c08101825282815260208082018881526001600160a01b038a8116848601908152606085018a8152426080870152600160a0870181905260008981526003968790529790972086518155935196840196909655516002830180546001600160a01b03191691909216179055925191929190820190610e47908261181d565b50608082015160048083019190915560a0909201516005909101805491151560ff199283161790556001600160a01b03881660008181526020938452604080822080546001818101835591845286842001879055838352600686528183208b8452909552908190208054909316909317909155905182907f055e34067993de700e7f718f190fdccc92a27695bb9068504a1a44258577f8eb90610eed9089815260200190565b60405180910390a395945050505050565b6001600160a01b038116600090815260046020908152604091829020805483518184028101840190945280845260609392830182828015610f5e57602002820191906000526020600020905b815481526020019060010190808311610f4a575b50505050509050919050565b6001600160a01b0380831660009081526008602090815260408083209385168352929052205460ff165b92915050565b610fd36040518060c001604052806000815260200160608152602001606081526020016060815260200160008152602001606081525090565b600560008381526020019081526020016000206040518060c00160405290816000820154815260200160018201805461100b90611765565b80601f016020809104026020016040519081016040528092919081815260200182805461103790611765565b80156110845780601f1061105957610100808354040283529160200191611084565b820191906000526020600020905b81548152906001019060200180831161106757829003601f168201915b5050505050815260200160028201805461109d90611765565b80601f01602080910402602001604051908101604052809291908181526020018280546110c990611765565b80156111165780601f106110eb57610100808354040283529160200191611116565b820191906000526020600020905b8154815290600101906020018083116110f957829003601f168201915b5050505050815260200160038201805461112f90611765565b80601f016020809104026020016040519081016040528092919081815260200182805461115b90611765565b80156111a85780601f1061117d576101008083540402835291602001916111a8565b820191906000526020600020905b81548152906001019060200180831161118b57829003601f168201915b50505050508152602001600482015481526020016005820180546111cb90611765565b80601f01602080910402602001604051908101604052809291908181526020018280546111f790611765565b80156112445780601f1061121957610100808354040283529160200191611244565b820191906000526020600020905b81548152906001019060200180831161122757829003601f168201915b5050505050815250509050919050565b6001600160a01b0382166000908152600460205260408120905b8154811015611322578282828154811061128a5761128a6118dd565b90600052602060002001540361131057815482906112aa906001906118f3565b815481106112ba576112ba6118dd565b90600052602060002001548282815481106112d7576112d76118dd565b9060005260206000200181905550818054806112f5576112f5611906565b60019003818190600052602060002001600090559055611322565b8061131a816117b5565b91505061126e565b50505050565b60006020828403121561133a57600080fd5b5035919050565b80356001600160a01b038116811461135857600080fd5b919050565b6000806040838503121561137057600080fd5b61137983611341565b946020939093013593505050565b6000815180845260005b818110156113ad57602081850181015186830182015201611391565b506000602082860101526020601f19601f83011685010191505092915050565b86815285602082015260018060a01b038516604082015260c0606082015260006113fa60c0830186611387565b60808301949094525090151560a090910152949350505050565b86815260c06020820152600061142d60c0830188611387565b828103604084015261143f8188611387565b905082810360608401526114538187611387565b905084608084015282810360a084015261146d8185611387565b9998505050505050505050565b6000806040838503121561148d57600080fd5b8235915061149d60208401611341565b90509250929050565b600080604083850312156114b957600080fd5b6114c283611341565b9150602083013580151581146114d757600080fd5b809150509250929050565b634e487b7160e01b600052604160045260246000fd5b600067ffffffffffffffff80841115611513576115136114e2565b604051601f8501601f19908116603f0116810190828211818310171561153b5761153b6114e2565b8160405280935085815286868601111561155457600080fd5b858560208301376000602087830101525050509392505050565b6000806000806080858703121561158457600080fd5b61158d85611341565b935060208501359250604085013567ffffffffffffffff808211156115b157600080fd5b818701915087601f8301126115c557600080fd5b6115d4888335602085016114f8565b935060608701359150808211156115ea57600080fd5b508501601f810187136115fc57600080fd5b61160b878235602084016114f8565b91505092959194509250565b60006020828403121561162957600080fd5b61163282611341565b9392505050565b6020808252825182820181905260009190848201906040850190845b8181101561167157835183529284019291840191600101611655565b50909695505050505050565b6000806040838503121561169057600080fd5b61169983611341565b915061149d60208401611341565b60208152815160208201526000602083015160c060408401526116cd60e0840182611387565b90506040840151601f19808584030160608601526116eb8383611387565b925060608601519150808584030160808601526117088383611387565b9250608086015160a086015260a08601519150808584030160c0860152506117308282611387565b95945050505050565b60208082526012908201527113919508191bd95cc81b9bdd08195e1a5cdd60721b604082015260600190565b600181811c9082168061177957607f821691505b60208210810361179957634e487b7160e01b600052602260045260246000fd5b50919050565b634e487b7160e01b600052601160045260246000fd5b6000600182016117c7576117c761179f565b5060010190565b601f82111561181857600081815260208120601f850160051c810160208610156117f55750805b601f850160051c820191505b8181101561181457828155600101611801565b5050505b505050565b815167ffffffffffffffff811115611837576118376114e2565b61184b816118458454611765565b846117ce565b602080601f83116001811461188057600084156118685750858301515b600019600386901b1c1916600185901b178555611814565b600085815260208120601f198616915b828110156118af57888601518255948401946001909101908401611890565b50858210156118cd5787850151600019600388901b60f8161c191681555b5050505050600190811b01905550565b634e487b7160e01b600052603260045260246000fd5b81810381811115610f9457610f9461179f565b634e487b7160e01b600052603160045260246000fdfea2646970667358221220ceb738fcdd72ad262dba9ebaf24af1f9409aa2562ddecf6a4cb5aabd1be9093364736f6c634300081400334869676865737420676c6f62616c2073636f7265206f6620746865206d61746368","opcodes":"PUSH1 0x80 PUSH1 0x40 MSTORE PUSH1 0x5 PUSH1 0x2 SSTORE CALLVALUE DUP1 ISZERO PUSH3 0x16 JUMPI PUSH1 0x0 DUP1 REVERT JUMPDEST POP PUSH1 0x0 DUP1 SLOAD PUSH1 0x1 PUSH1 0x1 PUSH1 0xA0 SHL SUB NOT AND CALLER OR SWAP1 SSTORE PUSH1 0x1 DUP1 SSTORE PUSH3 0x37 PUSH3 0x3D JUMP JUMPDEST PUSH3 0xFAE JUMP JUMPDEST PUSH1 0x40 MLOAD DUP1 PUSH1 0xC0 ADD PUSH1 0x40 MSTORE DUP1 PUSH1 0x1 DUP2 MSTORE PUSH1 0x20 ADD PUSH1 0x40 MLOAD DUP1 PUSH1 0x40 ADD PUSH1 0x40 MSTORE DUP1 PUSH1 0x12 DUP2 MSTORE PUSH1 0x20 ADD PUSH18 0x23B0B630B1BA34B19021B7B6B6B0B73232B9 PUSH1 0x71 SHL DUP2 MSTORE POP DUP2 MSTORE PUSH1 0x20 ADD PUSH1 0x40 MLOAD DUP1 PUSH1 0x60 ADD PUSH1 0x40 MSTORE DUP1 PUSH1 0x21 DUP2 MSTORE PUSH1 0x20 ADD PUSH3 0x2910 PUSH1 0x21 SWAP2 CODECOPY DUP2 MSTORE PUSH1 0x40 DUP1 MLOAD DUP1 DUP3 ADD DUP3 MSTORE PUSH1 0x9 DUP2 MSTORE PUSH9 0x4C6567656E64617279 PUSH1 0xB8 SHL PUSH1 0x20 DUP3 DUP2 ADD SWAP2 SWAP1 SWAP2 MSTORE DUP1 DUP5 ADD SWAP2 SWAP1 SWAP2 MSTORE PUSH3 0x186A0 DUP3 DUP5 ADD MSTORE DUP2 MLOAD DUP1 DUP4 ADD SWAP1 SWAP3 MSTORE PUSH1 0x5 DUP1 DUP4 MSTORE PUSH5 0x73636F7265 PUSH1 0xD8 SHL DUP4 DUP4 ADD MSTORE PUSH1 0x60 SWAP1 SWAP4 ADD SWAP2 SWAP1 SWAP2 MSTORE PUSH1 0x1 PUSH1 0x0 MSTORE SWAP1 DUP2 MSTORE DUP2 MLOAD PUSH32 0x1471EB6EB2C5E789FC3DE43F8CE62938C7D1836EC861730447E2ADA8FD81017B SWAP1 DUP2 SSTORE SWAP1 DUP3 ADD MLOAD PUSH32 0x1471EB6EB2C5E789FC3DE43F8CE62938C7D1836EC861730447E2ADA8FD81017C SWAP1 PUSH3 0x150 SWAP1 DUP3 PUSH3 0xEE2 JUMP JUMPDEST POP PUSH1 0x40 DUP3 ADD MLOAD PUSH1 0x2 DUP3 ADD SWAP1 PUSH3 0x167 SWAP1 DUP3 PUSH3 0xEE2 JUMP JUMPDEST POP PUSH1 0x60 DUP3 ADD MLOAD PUSH1 0x3 DUP3 ADD SWAP1 PUSH3 0x17E SWAP1 DUP3 PUSH3 0xEE2 JUMP JUMPDEST POP PUSH1 0x80 DUP3 ADD MLOAD PUSH1 0x4 DUP3 ADD SSTORE PUSH1 0xA0 DUP3 ADD MLOAD PUSH1 0x5 DUP3 ADD SWAP1 PUSH3 0x19F SWAP1 DUP3 PUSH3 0xEE2 JUMP JUMPDEST POP POP PUSH1 0x40 DUP1 MLOAD PUSH1 0xC0 DUP2 ADD DUP3 MSTORE PUSH1 0x2 DUP1 DUP3 MSTORE DUP3 MLOAD DUP1 DUP5 ADD DUP5 MSTORE PUSH1 0x11 DUP2 MSTORE PUSH17 0x29BA32B63630B9102232B9BA3937BCB2B9 PUSH1 0x79 SHL PUSH1 0x20 DUP3 DUP2 ADD SWAP2 SWAP1 SWAP2 MSTORE DUP1 DUP5 ADD SWAP2 DUP3 MSTORE DUP5 MLOAD DUP1 DUP7 ADD DUP7 MSTORE PUSH1 0x1D DUP2 MSTORE PUSH32 0x4869676865737420746F74616C206E756D626572206F66206B696C6C73000000 DUP2 DUP4 ADD MSTORE DUP5 DUP7 ADD MSTORE DUP5 MLOAD DUP1 DUP7 ADD DUP7 MSTORE PUSH1 0x9 DUP2 MSTORE PUSH9 0x4C6567656E64617279 PUSH1 0xB8 SHL DUP2 DUP4 ADD MSTORE PUSH1 0x60 DUP6 ADD MSTORE PUSH1 0x32 PUSH1 0x80 DUP6 ADD MSTORE DUP5 MLOAD DUP1 DUP7 ADD SWAP1 SWAP6 MSTORE PUSH1 0x5 DUP1 DUP7 MSTORE PUSH5 0x6B696C6C73 PUSH1 0xD8 SHL DUP7 DUP4 ADD MSTORE PUSH1 0xA0 DUP6 ADD SWAP6 SWAP1 SWAP6 MSTORE PUSH1 0x0 SWAP3 SWAP1 SWAP3 MSTORE SWAP3 SWAP1 MSTORE DUP1 MLOAD PUSH32 0x89832631FB3C3307A103BA2C84AB569C64D6182A18893DCD163F0F1C2090733A SWAP1 DUP2 SSTORE SWAP2 MLOAD SWAP1 SWAP3 POP PUSH32 0x89832631FB3C3307A103BA2C84AB569C64D6182A18893DCD163F0F1C2090733B SWAP1 PUSH3 0x2BF SWAP1 DUP3 PUSH3 0xEE2 JUMP JUMPDEST POP PUSH1 0x40 DUP3 ADD MLOAD PUSH1 0x2 DUP3 ADD SWAP1 PUSH3 0x2D6 SWAP1 DUP3 PUSH3 0xEE2 JUMP JUMPDEST POP PUSH1 0x60 DUP3 ADD MLOAD PUSH1 0x3 DUP3 ADD SWAP1 PUSH3 0x2ED SWAP1 DUP3 PUSH3 0xEE2 JUMP JUMPDEST POP PUSH1 0x80 DUP3 ADD MLOAD PUSH1 0x4 DUP3 ADD SSTORE PUSH1 0xA0 DUP3 ADD MLOAD PUSH1 0x5 DUP3 ADD SWAP1 PUSH3 0x30E SWAP1 DUP3 PUSH3 0xEE2 JUMP JUMPDEST POP POP PUSH1 0x40 DUP1 MLOAD PUSH1 0xC0 DUP2 ADD DUP3 MSTORE PUSH1 0x3 DUP1 DUP3 MSTORE DUP3 MLOAD DUP1 DUP5 ADD DUP5 MSTORE PUSH1 0xE DUP2 MSTORE PUSH14 0x50686F746F6E696320426C616465 PUSH1 0x90 SHL PUSH1 0x20 DUP3 DUP2 ADD SWAP2 SWAP1 SWAP2 MSTORE DUP1 DUP5 ADD SWAP2 DUP3 MSTORE DUP5 MLOAD DUP1 DUP7 ADD DUP7 MSTORE PUSH1 0x14 DUP2 MSTORE PUSH32 0x42657374206163637572616379203E3D20383525000000000000000000000000 DUP2 DUP4 ADD MSTORE DUP5 DUP7 ADD MSTORE DUP5 MLOAD DUP1 DUP7 ADD DUP7 MSTORE PUSH1 0x4 DUP2 MSTORE PUSH4 0x45706963 PUSH1 0xE0 SHL DUP2 DUP4 ADD MSTORE PUSH1 0x60 DUP6 ADD MSTORE PUSH1 0x55 PUSH1 0x80 DUP6 ADD MSTORE DUP5 MLOAD DUP1 DUP7 ADD SWAP1 SWAP6 MSTORE PUSH1 0x8 DUP6 MSTORE PUSH8 0x6163637572616379 PUSH1 0xC0 SHL DUP6 DUP3 ADD MSTORE PUSH1 0xA0 DUP5 ADD SWAP5 SWAP1 SWAP5 MSTORE PUSH1 0x0 SWAP2 SWAP1 SWAP2 MSTORE PUSH1 0x5 SWAP1 SWAP3 MSTORE DUP1 MLOAD PUSH32 0xA9BC9A3A348C357BA16B37005D7E6B3236198C0E939F4AF8C5F19B8DEEB8EBC0 SWAP1 DUP2 SSTORE SWAP2 MLOAD SWAP1 SWAP3 POP PUSH32 0xA9BC9A3A348C357BA16B37005D7E6B3236198C0E939F4AF8C5F19B8DEEB8EBC1 SWAP1 PUSH3 0x42A SWAP1 DUP3 PUSH3 0xEE2 JUMP JUMPDEST POP PUSH1 0x40 DUP3 ADD MLOAD PUSH1 0x2 DUP3 ADD SWAP1 PUSH3 0x441 SWAP1 DUP3 PUSH3 0xEE2 JUMP JUMPDEST POP PUSH1 0x60 DUP3 ADD MLOAD PUSH1 0x3 DUP3 ADD SWAP1 PUSH3 0x458 SWAP1 DUP3 PUSH3 0xEE2 JUMP JUMPDEST POP PUSH1 0x80 DUP3 ADD MLOAD PUSH1 0x4 DUP3 ADD SSTORE PUSH1 0xA0 DUP3 ADD MLOAD PUSH1 0x5 DUP3 ADD SWAP1 PUSH3 0x479 SWAP1 DUP3 PUSH3 0xEE2 JUMP JUMPDEST POP POP PUSH1 0x40 DUP1 MLOAD PUSH1 0xC0 DUP2 ADD DUP3 MSTORE PUSH1 0x4 DUP1 DUP3 MSTORE DUP3 MLOAD DUP1 DUP5 ADD DUP5 MSTORE PUSH1 0xB DUP2 MSTORE PUSH11 0x2A34B6B29026B0B9BA32B9 PUSH1 0xA9 SHL PUSH1 0x20 DUP3 DUP2 ADD SWAP2 SWAP1 SWAP2 MSTORE DUP1 DUP5 ADD SWAP2 DUP3 MSTORE DUP5 MLOAD DUP1 DUP7 ADD DUP7 MSTORE PUSH1 0x19 DUP2 MSTORE PUSH32 0x4C6F6E6765737420737572766976616C206475726174696F6E00000000000000 DUP2 DUP4 ADD MSTORE DUP5 DUP7 ADD MSTORE DUP5 MLOAD DUP1 DUP7 ADD DUP7 MSTORE DUP4 DUP2 MSTORE PUSH4 0x45706963 PUSH1 0xE0 SHL DUP2 DUP4 ADD MSTORE PUSH1 0x60 DUP6 ADD MSTORE PUSH2 0x384 PUSH1 0x80 DUP6 ADD MSTORE DUP5 MLOAD DUP1 DUP7 ADD SWAP1 SWAP6 MSTORE DUP3 DUP6 MSTORE PUSH4 0x74696D65 PUSH1 0xE0 SHL DUP6 DUP3 ADD MSTORE PUSH1 0xA0 DUP5 ADD SWAP5 SWAP1 SWAP5 MSTORE PUSH1 0x0 SWAP2 SWAP1 SWAP2 MSTORE PUSH1 0x5 SWAP1 SWAP3 MSTORE DUP1 MLOAD PUSH32 0x3EEC716F11BA9E820C81CA75EB978FFB45831EF8B7A53E5E422C26008E1CA6D5 SWAP1 DUP2 SSTORE SWAP2 MLOAD SWAP1 SWAP3 POP PUSH32 0x3EEC716F11BA9E820C81CA75EB978FFB45831EF8B7A53E5E422C26008E1CA6D6 SWAP1 PUSH3 0x58D SWAP1 DUP3 PUSH3 0xEE2 JUMP JUMPDEST POP PUSH1 0x40 DUP3 ADD MLOAD PUSH1 0x2 DUP3 ADD SWAP1 PUSH3 0x5A4 SWAP1 DUP3 PUSH3 0xEE2 JUMP JUMPDEST POP PUSH1 0x60 DUP3 ADD MLOAD PUSH1 0x3 DUP3 ADD SWAP1 PUSH3 0x5BB SWAP1 DUP3 PUSH3 0xEE2 JUMP JUMPDEST POP PUSH1 0x80 DUP3 ADD MLOAD PUSH1 0x4 DUP3 ADD SSTORE PUSH1 0xA0 DUP3 ADD MLOAD PUSH1 0x5 DUP3 ADD SWAP1 PUSH3 0x5DC SWAP1 DUP3 PUSH3 0xEE2 JUMP JUMPDEST POP POP PUSH1 0x40 DUP1 MLOAD PUSH1 0xC0 DUP2 ADD DUP3 MSTORE PUSH1 0x5 DUP1 DUP3 MSTORE DUP3 MLOAD DUP1 DUP5 ADD DUP5 MSTORE PUSH1 0xD DUP2 MSTORE PUSH13 0x29BA30B91021B430B6B834B7B7 PUSH1 0x99 SHL PUSH1 0x20 DUP3 DUP2 ADD SWAP2 SWAP1 SWAP2 MSTORE DUP1 DUP5 ADD SWAP2 DUP3 MSTORE DUP5 MLOAD DUP1 DUP7 ADD DUP7 MSTORE PUSH1 0x1E DUP2 MSTORE PUSH32 0x53636F72652061626F766520393025206F66206265737420706C617965720000 DUP2 DUP4 ADD MSTORE DUP5 DUP7 ADD MSTORE DUP5 MLOAD DUP1 DUP7 ADD DUP7 MSTORE PUSH1 0x4 DUP2 MSTORE PUSH4 0x45706963 PUSH1 0xE0 SHL DUP2 DUP4 ADD MSTORE PUSH1 0x60 DUP6 ADD MSTORE PUSH2 0xC350 PUSH1 0x80 DUP6 ADD MSTORE DUP5 MLOAD DUP1 DUP7 ADD SWAP1 SWAP6 MSTORE DUP3 DUP6 MSTORE PUSH5 0x73636F7265 PUSH1 0xD8 SHL DUP6 DUP3 ADD MSTORE PUSH1 0xA0 DUP5 ADD SWAP5 SWAP1 SWAP5 MSTORE PUSH1 0x0 DUP3 SWAP1 MSTORE SWAP3 MSTORE DUP1 MLOAD PUSH32 0x458B30C2D72BFD2C6317304A4594ECBAFE5F729D3111B65FDC3A33BD48E5432D SWAP1 DUP2 SSTORE SWAP2 MLOAD SWAP1 SWAP3 POP PUSH32 0x458B30C2D72BFD2C6317304A4594ECBAFE5F729D3111B65FDC3A33BD48E5432E SWAP1 PUSH3 0x6F0 SWAP1 DUP3 PUSH3 0xEE2 JUMP JUMPDEST POP PUSH1 0x40 DUP3 ADD MLOAD PUSH1 0x2 DUP3 ADD SWAP1 PUSH3 0x707 SWAP1 DUP3 PUSH3 0xEE2 JUMP JUMPDEST POP PUSH1 0x60 DUP3 ADD MLOAD PUSH1 0x3 DUP3 ADD SWAP1 PUSH3 0x71E SWAP1 DUP3 PUSH3 0xEE2 JUMP JUMPDEST POP PUSH1 0x80 DUP3 ADD MLOAD PUSH1 0x4 DUP3 ADD SSTORE PUSH1 0xA0 DUP3 ADD MLOAD PUSH1 0x5 DUP3 ADD SWAP1 PUSH3 0x73F SWAP1 DUP3 PUSH3 0xEE2 JUMP JUMPDEST POP POP PUSH1 0x40 DUP1 MLOAD PUSH1 0xC0 DUP2 ADD DUP3 MSTORE PUSH1 0x6 DUP1 DUP3 MSTORE DUP3 MLOAD DUP1 DUP5 ADD DUP5 MSTORE PUSH1 0xB DUP2 MSTORE PUSH11 0x536F6C617220466C616D65 PUSH1 0xA8 SHL PUSH1 0x20 DUP3 DUP2 ADD SWAP2 SWAP1 SWAP2 MSTORE DUP1 DUP5 ADD SWAP2 DUP3 MSTORE DUP5 MLOAD DUP1 DUP7 ADD DUP7 MSTORE PUSH1 0x1A DUP2 MSTORE PUSH32 0x48696768657374206B696C6C732F6D696E75746520726174696F000000000000 DUP2 DUP4 ADD MSTORE DUP5 DUP7 ADD MSTORE DUP5 MLOAD DUP1 DUP7 ADD DUP7 MSTORE PUSH1 0x4 DUP2 MSTORE PUSH4 0x52617265 PUSH1 0xE0 SHL DUP2 DUP4 ADD MSTORE PUSH1 0x60 DUP6 ADD MSTORE PUSH1 0xA PUSH1 0x80 DUP6 ADD MSTORE DUP5 MLOAD DUP1 DUP7 ADD SWAP1 SWAP6 MSTORE PUSH1 0x5 DUP1 DUP7 MSTORE PUSH5 0x6B696C6C73 PUSH1 0xD8 SHL DUP7 DUP4 ADD MSTORE PUSH1 0xA0 DUP6 ADD SWAP6 SWAP1 SWAP6 MSTORE PUSH1 0x0 SWAP3 SWAP1 SWAP3 MSTORE SWAP3 SWAP1 MSTORE DUP1 MLOAD PUSH32 0x69400F22B28C6C362558D92F66163CEC5671CBA50B61ABD2EECFCD0EAEAC518 SWAP1 DUP2 SSTORE SWAP2 MLOAD SWAP1 SWAP3 POP PUSH32 0x69400F22B28C6C362558D92F66163CEC5671CBA50B61ABD2EECFCD0EAEAC519 SWAP1 PUSH3 0x854 SWAP1 DUP3 PUSH3 0xEE2 JUMP JUMPDEST POP PUSH1 0x40 DUP3 ADD MLOAD PUSH1 0x2 DUP3 ADD SWAP1 PUSH3 0x86B SWAP1 DUP3 PUSH3 0xEE2 JUMP JUMPDEST POP PUSH1 0x60 DUP3 ADD MLOAD PUSH1 0x3 DUP3 ADD SWAP1 PUSH3 0x882 SWAP1 DUP3 PUSH3 0xEE2 JUMP JUMPDEST POP PUSH1 0x80 DUP3 ADD MLOAD PUSH1 0x4 DUP3 ADD SSTORE PUSH1 0xA0 DUP3 ADD MLOAD PUSH1 0x5 DUP3 ADD SWAP1 PUSH3 0x8A3 SWAP1 DUP3 PUSH3 0xEE2 JUMP JUMPDEST POP POP PUSH1 0x40 DUP1 MLOAD PUSH1 0xC0 DUP2 ADD DUP3 MSTORE PUSH1 0x7 DUP1 DUP3 MSTORE DUP3 MLOAD DUP1 DUP5 ADD DUP5 MSTORE PUSH1 0xE DUP2 MSTORE PUSH14 0x27B93134BA30B61029B734B832B9 PUSH1 0x91 SHL PUSH1 0x20 DUP3 DUP2 ADD SWAP2 SWAP1 SWAP2 MSTORE DUP1 DUP5 ADD SWAP2 DUP3 MSTORE DUP5 MLOAD DUP1 DUP7 ADD DUP7 MSTORE PUSH1 0x1D DUP2 MSTORE PUSH32 0x507265636973696F6E203E20393525206F7665722035302073686F7473000000 DUP2 DUP4 ADD MSTORE DUP5 DUP7 ADD MSTORE DUP5 MLOAD DUP1 DUP7 ADD DUP7 MSTORE PUSH1 0x4 DUP2 MSTORE PUSH4 0x45706963 PUSH1 0xE0 SHL DUP2 DUP4 ADD MSTORE PUSH1 0x60 DUP6 ADD MSTORE PUSH1 0x5F PUSH1 0x80 DUP6 ADD MSTORE DUP5 MLOAD DUP1 DUP7 ADD SWAP1 SWAP6 MSTORE PUSH1 0x8 DUP6 MSTORE PUSH8 0x6163637572616379 PUSH1 0xC0 SHL DUP6 DUP3 ADD MSTORE PUSH1 0xA0 DUP5 ADD SWAP5 SWAP1 SWAP5 MSTORE PUSH1 0x0 SWAP2 SWAP1 SWAP2 MSTORE PUSH1 0x5 SWAP1 SWAP3 MSTORE DUP1 MLOAD PUSH32 0xEDDB6698D7C569FF62FF64F1F1492BF14A54594835BA0FAAC91F84B4F5D81460 SWAP1 DUP2 SSTORE SWAP2 MLOAD SWAP1 SWAP3 POP PUSH32 0xEDDB6698D7C569FF62FF64F1F1492BF14A54594835BA0FAAC91F84B4F5D81461 SWAP1 PUSH3 0x9BF SWAP1 DUP3 PUSH3 0xEE2 JUMP JUMPDEST POP PUSH1 0x40 DUP3 ADD MLOAD PUSH1 0x2 DUP3 ADD SWAP1 PUSH3 0x9D6 SWAP1 DUP3 PUSH3 0xEE2 JUMP JUMPDEST POP PUSH1 0x60 DUP3 ADD MLOAD PUSH1 0x3 DUP3 ADD SWAP1 PUSH3 0x9ED SWAP1 DUP3 PUSH3 0xEE2 JUMP JUMPDEST POP PUSH1 0x80 DUP3 ADD MLOAD PUSH1 0x4 DUP3 ADD SSTORE PUSH1 0xA0 DUP3 ADD MLOAD PUSH1 0x5 DUP3 ADD SWAP1 PUSH3 0xA0E SWAP1 DUP3 PUSH3 0xEE2 JUMP JUMPDEST POP POP PUSH1 0x40 DUP1 MLOAD PUSH1 0xC0 DUP2 ADD DUP3 MSTORE PUSH1 0x8 DUP1 DUP3 MSTORE DUP3 MLOAD DUP1 DUP5 ADD DUP5 MSTORE PUSH1 0xD DUP2 MSTORE PUSH13 0x2B37B4B21029BAB93B34BB37B9 PUSH1 0x99 SHL PUSH1 0x20 DUP3 DUP2 ADD SWAP2 SWAP1 SWAP2 MSTORE DUP1 DUP5 ADD SWAP2 DUP3 MSTORE DUP5 MLOAD DUP1 DUP7 ADD DUP7 MSTORE PUSH1 0x1F DUP2 MSTORE PUSH32 0x537572766976616C203E203130206D696E20776974686F757420646561746800 DUP2 DUP4 ADD MSTORE DUP5 DUP7 ADD MSTORE DUP5 MLOAD DUP1 DUP7 ADD DUP7 MSTORE PUSH1 0x4 DUP1 DUP3 MSTORE PUSH4 0x52617265 PUSH1 0xE0 SHL DUP3 DUP5 ADD MSTORE PUSH1 0x60 DUP7 ADD SWAP2 SWAP1 SWAP2 MSTORE PUSH2 0x258 PUSH1 0x80 DUP7 ADD MSTORE DUP6 MLOAD DUP1 DUP8 ADD SWAP1 SWAP7 MSTORE DUP6 MSTORE PUSH4 0x74696D65 PUSH1 0xE0 SHL DUP6 DUP3 ADD MSTORE PUSH1 0xA0 DUP5 ADD SWAP5 SWAP1 SWAP5 MSTORE PUSH1 0x0 SWAP2 SWAP1 SWAP2 MSTORE PUSH1 0x5 SWAP1 SWAP3 MSTORE DUP1 MLOAD PUSH32 0xFB33122AA9F93CC639EBE80A7BC4784C11E6053DDE89C6F4F7E268C6A623DA1E SWAP1 DUP2 SSTORE SWAP2 MLOAD SWAP1 SWAP3 POP PUSH32 0xFB33122AA9F93CC639EBE80A7BC4784C11E6053DDE89C6F4F7E268C6A623DA1F SWAP1 PUSH3 0xB28 SWAP1 DUP3 PUSH3 0xEE2 JUMP JUMPDEST POP PUSH1 0x40 DUP3 ADD MLOAD PUSH1 0x2 DUP3 ADD SWAP1 PUSH3 0xB3F SWAP1 DUP3 PUSH3 0xEE2 JUMP JUMPDEST POP PUSH1 0x60 DUP3 ADD MLOAD PUSH1 0x3 DUP3 ADD SWAP1 PUSH3 0xB56 SWAP1 DUP3 PUSH3 0xEE2 JUMP JUMPDEST POP PUSH1 0x80 DUP3 ADD MLOAD PUSH1 0x4 DUP3 ADD SSTORE PUSH1 0xA0 DUP3 ADD MLOAD PUSH1 0x5 DUP3 ADD SWAP1 PUSH3 0xB77 SWAP1 DUP3 PUSH3 0xEE2 JUMP JUMPDEST POP POP PUSH1 0x40 DUP1 MLOAD PUSH1 0xC0 DUP2 ADD DUP3 MSTORE PUSH1 0x9 DUP1 DUP3 MSTORE DUP3 MLOAD DUP1 DUP5 ADD DUP5 MSTORE PUSH1 0xF DUP2 MSTORE PUSH15 0x5374656C6C61722050726F64696779 PUSH1 0x88 SHL PUSH1 0x20 DUP3 DUP2 ADD SWAP2 SWAP1 SWAP2 MSTORE DUP1 DUP5 ADD SWAP2 DUP3 MSTORE DUP5 MLOAD DUP1 DUP7 ADD DUP7 MSTORE PUSH1 0x1C DUP2 MSTORE PUSH32 0x486967682073636F7265202B20707265636973696F6E203E2038302500000000 DUP2 DUP4 ADD MSTORE DUP5 DUP7 ADD MSTORE DUP5 MLOAD DUP1 DUP7 ADD DUP7 MSTORE PUSH1 0x4 DUP2 MSTORE PUSH4 0x45706963 PUSH1 0xE0 SHL DUP2 DUP4 ADD MSTORE PUSH1 0x60 DUP6 ADD MSTORE PUSH2 0x7530 PUSH1 0x80 DUP6 ADD MSTORE DUP5 MLOAD DUP1 DUP7 ADD SWAP1 SWAP6 MSTORE PUSH1 0x5 DUP1 DUP7 MSTORE PUSH5 0x636F6D626F PUSH1 0xD8 SHL DUP7 DUP4 ADD MSTORE PUSH1 0xA0 DUP6 ADD SWAP6 SWAP1 SWAP6 MSTORE PUSH1 0x0 SWAP3 SWAP1 SWAP3 MSTORE SWAP3 SWAP1 MSTORE DUP1 MLOAD PUSH32 0xC0A4A8BE475DFEBC377EBEF2D7C4FF47656F572A08DD92B81017EFCDBA0FEBE1 SWAP1 DUP2 SSTORE SWAP2 MLOAD SWAP1 SWAP3 POP PUSH32 0xC0A4A8BE475DFEBC377EBEF2D7C4FF47656F572A08DD92B81017EFCDBA0FEBE2 SWAP1 PUSH3 0xC91 SWAP1 DUP3 PUSH3 0xEE2 JUMP JUMPDEST POP PUSH1 0x40 DUP3 ADD MLOAD PUSH1 0x2 DUP3 ADD SWAP1 PUSH3 0xCA8 SWAP1 DUP3 PUSH3 0xEE2 JUMP JUMPDEST POP PUSH1 0x60 DUP3 ADD MLOAD PUSH1 0x3 DUP3 ADD SWAP1 PUSH3 0xCBF SWAP1 DUP3 PUSH3 0xEE2 JUMP JUMPDEST POP PUSH1 0x80 DUP3 ADD MLOAD PUSH1 0x4 DUP3 ADD SSTORE PUSH1 0xA0 DUP3 ADD MLOAD PUSH1 0x5 DUP3 ADD SWAP1 PUSH3 0xCE0 SWAP1 DUP3 PUSH3 0xEE2 JUMP JUMPDEST POP POP PUSH1 0x40 DUP1 MLOAD PUSH1 0xC0 DUP2 ADD DUP3 MSTORE PUSH1 0xA DUP1 DUP3 MSTORE DUP3 MLOAD DUP1 DUP5 ADD DUP5 MSTORE PUSH1 0xB DUP2 MSTORE PUSH11 0x149A5B99C8131959D95B99 PUSH1 0xAA SHL PUSH1 0x20 DUP3 DUP2 ADD SWAP2 SWAP1 SWAP2 MSTORE DUP1 DUP5 ADD SWAP2 DUP3 MSTORE DUP5 MLOAD DUP1 DUP7 ADD DUP7 MSTORE PUSH1 0x10 DUP2 MSTORE PUSH16 0x4D617374657220616C6C207374617473 PUSH1 0x80 SHL DUP2 DUP4 ADD MSTORE DUP5 DUP7 ADD MSTORE DUP5 MLOAD DUP1 DUP7 ADD DUP7 MSTORE PUSH1 0x6 DUP2 MSTORE PUSH6 0x4D7974686963 PUSH1 0xD0 SHL DUP2 DUP4 ADD MSTORE PUSH1 0x60 DUP6 ADD MSTORE PUSH1 0x1 PUSH1 0x80 DUP6 ADD MSTORE DUP5 MLOAD DUP1 DUP7 ADD SWAP1 SWAP6 MSTORE PUSH1 0x5 DUP1 DUP7 MSTORE PUSH5 0x636F6D626F PUSH1 0xD8 SHL DUP7 DUP4 ADD MSTORE PUSH1 0xA0 DUP6 ADD SWAP6 SWAP1 SWAP6 MSTORE PUSH1 0x0 SWAP3 SWAP1 SWAP3 MSTORE SWAP3 SWAP1 MSTORE DUP1 MLOAD PUSH32 0xA18B128AF1C8FC61FF46F02D146E54546F34D340574CF2CEF6A753CBA6B6701D SWAP1 DUP2 SSTORE SWAP2 MLOAD SWAP1 SWAP3 POP PUSH32 0xA18B128AF1C8FC61FF46F02D146E54546F34D340574CF2CEF6A753CBA6B6701E SWAP1 PUSH3 0xDEA SWAP1 DUP3 PUSH3 0xEE2 JUMP JUMPDEST POP PUSH1 0x40 DUP3 ADD MLOAD PUSH1 0x2 DUP3 ADD SWAP1 PUSH3 0xE01 SWAP1 DUP3 PUSH3 0xEE2 JUMP JUMPDEST POP PUSH1 0x60 DUP3 ADD MLOAD PUSH1 0x3 DUP3 ADD SWAP1 PUSH3 0xE18 SWAP1 DUP3 PUSH3 0xEE2 JUMP JUMPDEST POP PUSH1 0x80 DUP3 ADD MLOAD PUSH1 0x4 DUP3 ADD SSTORE PUSH1 0xA0 DUP3 ADD MLOAD PUSH1 0x5 DUP3 ADD SWAP1 PUSH3 0xE39 SWAP1 DUP3 PUSH3 0xEE2 JUMP JUMPDEST POP POP POP JUMP JUMPDEST PUSH4 0x4E487B71 PUSH1 0xE0 SHL PUSH1 0x0 MSTORE PUSH1 0x41 PUSH1 0x4 MSTORE PUSH1 0x24 PUSH1 0x0 REVERT JUMPDEST PUSH1 0x1 DUP2 DUP2 SHR SWAP1 DUP3 AND DUP1 PUSH3 0xE69 JUMPI PUSH1 0x7F DUP3 AND SWAP2 POP JUMPDEST PUSH1 0x20 DUP3 LT DUP2 SUB PUSH3 0xE8A JUMPI PUSH4 0x4E487B71 PUSH1 0xE0 SHL PUSH1 0x0 MSTORE PUSH1 0x22 PUSH1 0x4 MSTORE PUSH1 0x24 PUSH1 0x0 REVERT JUMPDEST POP SWAP2 SWAP1 POP JUMP JUMPDEST PUSH1 0x1F DUP3 GT ISZERO PUSH3 0xE39 JUMPI PUSH1 0x0 DUP2 DUP2 MSTORE PUSH1 0x20 DUP2 KECCAK256 PUSH1 0x1F DUP6 ADD PUSH1 0x5 SHR DUP2 ADD PUSH1 0x20 DUP7 LT ISZERO PUSH3 0xEB9 JUMPI POP DUP1 JUMPDEST PUSH1 0x1F DUP6 ADD PUSH1 0x5 SHR DUP3 ADD SWAP2 POP JUMPDEST DUP2 DUP2 LT ISZERO PUSH3 0xEDA JUMPI DUP3 DUP2 SSTORE PUSH1 0x1 ADD PUSH3 0xEC5 JUMP JUMPDEST POP POP POP POP POP POP JUMP JUMPDEST DUP2 MLOAD PUSH1 0x1 PUSH1 0x1 PUSH1 0x40 SHL SUB DUP2 GT ISZERO PUSH3 0xEFE JUMPI PUSH3 0xEFE PUSH3 0xE3E JUMP JUMPDEST PUSH3 0xF16 DUP2 PUSH3 0xF0F DUP5 SLOAD PUSH3 0xE54 JUMP JUMPDEST DUP5 PUSH3 0xE90 JUMP JUMPDEST PUSH1 0x20 DUP1 PUSH1 0x1F DUP4 GT PUSH1 0x1 DUP2 EQ PUSH3 0xF4E JUMPI PUSH1 0x0 DUP5 ISZERO PUSH3 0xF35 JUMPI POP DUP6 DUP4 ADD MLOAD JUMPDEST PUSH1 0x0 NOT PUSH1 0x3 DUP7 SWAP1 SHL SHR NOT AND PUSH1 0x1 DUP6 SWAP1 SHL OR DUP6 SSTORE PUSH3 0xEDA JUMP JUMPDEST PUSH1 0x0 DUP6 DUP2 MSTORE PUSH1 0x20 DUP2 KECCAK256 PUSH1 0x1F NOT DUP7 AND SWAP2 JUMPDEST DUP3 DUP2 LT ISZERO PUSH3 0xF7F JUMPI DUP9 DUP7 ADD MLOAD DUP3 SSTORE SWAP5 DUP5 ADD SWAP5 PUSH1 0x1 SWAP1 SWAP2 ADD SWAP1 DUP5 ADD PUSH3 0xF5E JUMP JUMPDEST POP DUP6 DUP3 LT ISZERO PUSH3 0xF9E JUMPI DUP8 DUP6 ADD MLOAD PUSH1 0x0 NOT PUSH1 0x3 DUP9 SWAP1 SHL PUSH1 0xF8 AND SHR NOT AND DUP2 SSTORE JUMPDEST POP POP POP POP POP PUSH1 0x1 SWAP1 DUP2 SHL ADD SWAP1 SSTORE POP JUMP JUMPDEST PUSH2 0x1952 DUP1 PUSH3 0xFBE PUSH1 0x0 CODECOPY PUSH1 0x0 RETURN INVALID PUSH1 0x80 PUSH1 0x40 MSTORE CALLVALUE DUP1 ISZERO PUSH2 0x10 JUMPI PUSH1 0x0 DUP1 REVERT JUMPDEST POP PUSH1 0x4 CALLDATASIZE LT PUSH2 0x10B JUMPI PUSH1 0x0 CALLDATALOAD PUSH1 0xE0 SHR DUP1 PUSH4 0x8A71BB2D GT PUSH2 0xA2 JUMPI DUP1 PUSH4 0xD63D4AF0 GT PUSH2 0x71 JUMPI DUP1 PUSH4 0xD63D4AF0 EQ PUSH2 0x231 JUMPI DUP1 PUSH4 0xE500F31C EQ PUSH2 0x251 JUMPI DUP1 PUSH4 0xE985E9C5 EQ PUSH2 0x28F JUMPI DUP1 PUSH4 0xF2CCC543 EQ PUSH2 0x2A2 JUMPI DUP1 PUSH4 0xF851A440 EQ PUSH2 0x2C2 JUMPI PUSH1 0x0 DUP1 REVERT JUMPDEST DUP1 PUSH4 0x8A71BB2D EQ PUSH2 0x1EF JUMPI DUP1 PUSH4 0x9036C050 EQ PUSH2 0x1F8 JUMPI DUP1 PUSH4 0xA22CB465 EQ PUSH2 0x20B JUMPI DUP1 PUSH4 0xCF20E93A EQ PUSH2 0x21E JUMPI PUSH1 0x0 DUP1 REVERT JUMPDEST DUP1 PUSH4 0x28B60031 GT PUSH2 0xDE JUMPI DUP1 PUSH4 0x28B60031 EQ PUSH2 0x19F JUMPI DUP1 PUSH4 0x576F7EA7 EQ PUSH2 0x1C0 JUMPI DUP1 PUSH4 0x61BA27DA EQ PUSH2 0x1D3 JUMPI DUP1 PUSH4 0x75794A3C EQ PUSH2 0x1E6 JUMPI PUSH1 0x0 DUP1 REVERT JUMPDEST DUP1 PUSH4 0x81812FC EQ PUSH2 0x110 JUMPI DUP1 PUSH4 0x95EA7B3 EQ PUSH2 0x140 JUMPI DUP1 PUSH4 0x265AA621 EQ PUSH2 0x155 JUMPI DUP1 PUSH4 0x27AED72E EQ PUSH2 0x17A JUMPI JUMPDEST PUSH1 0x0 DUP1 REVERT JUMPDEST PUSH2 0x123 PUSH2 0x11E CALLDATASIZE PUSH1 0x4 PUSH2 0x1328 JUMP JUMPDEST PUSH2 0x2D5 JUMP JUMPDEST PUSH1 0x40 MLOAD PUSH1 0x1 PUSH1 0x1 PUSH1 0xA0 SHL SUB SWAP1 SWAP2 AND DUP2 MSTORE PUSH1 0x20 ADD JUMPDEST PUSH1 0x40 MLOAD DUP1 SWAP2 SUB SWAP1 RETURN JUMPDEST PUSH2 0x153 PUSH2 0x14E CALLDATASIZE PUSH1 0x4 PUSH2 0x135D JUMP JUMPDEST PUSH2 0x32B JUMP JUMPDEST STOP JUMPDEST PUSH2 0x168 PUSH2 0x163 CALLDATASIZE PUSH1 0x4 PUSH2 0x1328 JUMP JUMPDEST PUSH2 0x468 JUMP JUMPDEST PUSH1 0x40 MLOAD PUSH2 0x137 SWAP7 SWAP6 SWAP5 SWAP4 SWAP3 SWAP2 SWAP1 PUSH2 0x13CD JUMP JUMPDEST PUSH2 0x18D PUSH2 0x188 CALLDATASIZE PUSH1 0x4 PUSH2 0x1328 JUMP JUMPDEST PUSH2 0x536 JUMP JUMPDEST PUSH1 0x40 MLOAD PUSH2 0x137 SWAP7 SWAP6 SWAP5 SWAP4 SWAP3 SWAP2 SWAP1 PUSH2 0x1414 JUMP JUMPDEST PUSH2 0x1B2 PUSH2 0x1AD CALLDATASIZE PUSH1 0x4 PUSH2 0x135D JUMP JUMPDEST PUSH2 0x78B JUMP JUMPDEST PUSH1 0x40 MLOAD SWAP1 DUP2 MSTORE PUSH1 0x20 ADD PUSH2 0x137 JUMP JUMPDEST PUSH2 0x168 PUSH2 0x1CE CALLDATASIZE PUSH1 0x4 PUSH2 0x1328 JUMP JUMPDEST PUSH2 0x7BC JUMP JUMPDEST PUSH2 0x153 PUSH2 0x1E1 CALLDATASIZE PUSH1 0x4 PUSH2 0x1328 JUMP JUMPDEST PUSH2 0x91C JUMP JUMPDEST PUSH2 0x1B2 PUSH1 0x1 SLOAD DUP2 JUMP JUMPDEST PUSH2 0x1B2 PUSH1 0x2 SLOAD DUP2 JUMP JUMPDEST PUSH2 0x153 PUSH2 0x206 CALLDATASIZE PUSH1 0x4 PUSH2 0x147A JUMP JUMPDEST PUSH2 0x9BA JUMP JUMPDEST PUSH2 0x153 PUSH2 0x219 CALLDATASIZE PUSH1 0x4 PUSH2 0x14A6 JUMP JUMPDEST PUSH2 0xB95 JUMP JUMPDEST PUSH2 0x1B2 PUSH2 0x22C CALLDATASIZE PUSH1 0x4 PUSH2 0x156E JUMP JUMPDEST PUSH2 0xC59 JUMP JUMPDEST PUSH2 0x244 PUSH2 0x23F CALLDATASIZE PUSH1 0x4 PUSH2 0x1617 JUMP JUMPDEST PUSH2 0xEFE JUMP JUMPDEST PUSH1 0x40 MLOAD PUSH2 0x137 SWAP2 SWAP1 PUSH2 0x1639 JUMP JUMPDEST PUSH2 0x27F PUSH2 0x25F CALLDATASIZE PUSH1 0x4 PUSH2 0x135D JUMP JUMPDEST PUSH1 0x6 PUSH1 0x20 SWAP1 DUP2 MSTORE PUSH1 0x0 SWAP3 DUP4 MSTORE PUSH1 0x40 DUP1 DUP5 KECCAK256 SWAP1 SWAP2 MSTORE SWAP1 DUP3 MSTORE SWAP1 KECCAK256 SLOAD PUSH1 0xFF AND DUP2 JUMP JUMPDEST PUSH1 0x40 MLOAD SWAP1 ISZERO ISZERO DUP2 MSTORE PUSH1 0x20 ADD PUSH2 0x137 JUMP JUMPDEST PUSH2 0x27F PUSH2 0x29D CALLDATASIZE PUSH1 0x4 PUSH2 0x167D JUMP JUMPDEST PUSH2 0xF6A JUMP JUMPDEST PUSH2 0x2B5 PUSH2 0x2B0 CALLDATASIZE PUSH1 0x4 PUSH2 0x1328 JUMP JUMPDEST PUSH2 0xF9A JUMP JUMPDEST PUSH1 0x40 MLOAD PUSH2 0x137 SWAP2 SWAP1 PUSH2 0x16A7 JUMP JUMPDEST PUSH1 0x0 SLOAD PUSH2 0x123 SWAP1 PUSH1 0x1 PUSH1 0x1 PUSH1 0xA0 SHL SUB AND DUP2 JUMP JUMPDEST PUSH1 0x0 DUP2 DUP2 MSTORE PUSH1 0x3 PUSH1 0x20 MSTORE PUSH1 0x40 DUP2 KECCAK256 PUSH1 0x5 ADD SLOAD PUSH1 0xFF AND PUSH2 0x30F JUMPI PUSH1 0x40 MLOAD PUSH3 0x461BCD PUSH1 0xE5 SHL DUP2 MSTORE PUSH1 0x4 ADD PUSH2 0x306 SWAP1 PUSH2 0x1739 JUMP JUMPDEST PUSH1 0x40 MLOAD DUP1 SWAP2 SUB SWAP1 REVERT JUMPDEST POP PUSH1 0x0 SWAP1 DUP2 MSTORE PUSH1 0x7 PUSH1 0x20 MSTORE PUSH1 0x40 SWAP1 KECCAK256 SLOAD PUSH1 0x1 PUSH1 0x1 PUSH1 0xA0 SHL SUB AND SWAP1 JUMP JUMPDEST PUSH1 0x0 DUP2 DUP2 MSTORE PUSH1 0x3 PUSH1 0x20 MSTORE PUSH1 0x40 SWAP1 KECCAK256 PUSH1 0x2 ADD SLOAD PUSH1 0x1 PUSH1 0x1 PUSH1 0xA0 SHL SUB AND CALLER DUP2 EQ DUP1 PUSH2 0x377 JUMPI POP PUSH1 0x1 PUSH1 0x1 PUSH1 0xA0 SHL SUB DUP2 AND PUSH1 0x0 SWAP1 DUP2 MSTORE PUSH1 0x8 PUSH1 0x20 SWAP1 DUP2 MSTORE PUSH1 0x40 DUP1 DUP4 KECCAK256 CALLER DUP5 MSTORE SWAP1 SWAP2 MSTORE SWAP1 KECCAK256 SLOAD PUSH1 0xFF AND JUMPDEST PUSH2 0x3B4 JUMPI PUSH1 0x40 MLOAD PUSH3 0x461BCD PUSH1 0xE5 SHL DUP2 MSTORE PUSH1 0x20 PUSH1 0x4 DUP3 ADD MSTORE PUSH1 0xE PUSH1 0x24 DUP3 ADD MSTORE PUSH14 0x139BDD08185D5D1A1BDC9A5E9959 PUSH1 0x92 SHL PUSH1 0x44 DUP3 ADD MSTORE PUSH1 0x64 ADD PUSH2 0x306 JUMP JUMPDEST DUP1 PUSH1 0x1 PUSH1 0x1 PUSH1 0xA0 SHL SUB AND DUP4 PUSH1 0x1 PUSH1 0x1 PUSH1 0xA0 SHL SUB AND SUB PUSH2 0x40C JUMPI PUSH1 0x40 MLOAD PUSH3 0x461BCD PUSH1 0xE5 SHL DUP2 MSTORE PUSH1 0x20 PUSH1 0x4 DUP3 ADD MSTORE PUSH1 0x14 PUSH1 0x24 DUP3 ADD MSTORE PUSH20 0x21B0B73737BA1030B8383937BB329037BBB732B9 PUSH1 0x61 SHL PUSH1 0x44 DUP3 ADD MSTORE PUSH1 0x64 ADD PUSH2 0x306 JUMP JUMPDEST PUSH1 0x0 DUP3 DUP2 MSTORE PUSH1 0x7 PUSH1 0x20 MSTORE PUSH1 0x40 DUP1 DUP3 KECCAK256 DUP1 SLOAD PUSH1 0x1 PUSH1 0x1 PUSH1 0xA0 SHL SUB NOT AND PUSH1 0x1 PUSH1 0x1 PUSH1 0xA0 SHL SUB DUP8 DUP2 AND SWAP2 DUP3 OR SWAP1 SWAP3 SSTORE SWAP2 MLOAD DUP6 SWAP4 SWAP2 DUP6 AND SWAP2 PUSH32 0x8C5BE1E5EBEC7D5BD14F71427D1E84F3DD0314C0F7B2291E5B200AC8C7C3B925 SWAP2 LOG4 POP POP POP JUMP JUMPDEST PUSH1 0x3 PUSH1 0x20 DUP2 SWAP1 MSTORE PUSH1 0x0 SWAP2 DUP3 MSTORE PUSH1 0x40 SWAP1 SWAP2 KECCAK256 DUP1 SLOAD PUSH1 0x1 DUP3 ADD SLOAD PUSH1 0x2 DUP4 ADD SLOAD SWAP4 DUP4 ADD DUP1 SLOAD SWAP3 SWAP5 SWAP2 SWAP4 PUSH1 0x1 PUSH1 0x1 PUSH1 0xA0 SHL SUB SWAP1 SWAP3 AND SWAP3 PUSH2 0x4A3 SWAP1 PUSH2 0x1765 JUMP JUMPDEST DUP1 PUSH1 0x1F ADD PUSH1 0x20 DUP1 SWAP2 DIV MUL PUSH1 0x20 ADD PUSH1 0x40 MLOAD SWAP1 DUP2 ADD PUSH1 0x40 MSTORE DUP1 SWAP3 SWAP2 SWAP1 DUP2 DUP2 MSTORE PUSH1 0x20 ADD DUP3 DUP1 SLOAD PUSH2 0x4CF SWAP1 PUSH2 0x1765 JUMP JUMPDEST DUP1 ISZERO PUSH2 0x51C JUMPI DUP1 PUSH1 0x1F LT PUSH2 0x4F1 JUMPI PUSH2 0x100 DUP1 DUP4 SLOAD DIV MUL DUP4 MSTORE SWAP2 PUSH1 0x20 ADD SWAP2 PUSH2 0x51C JUMP JUMPDEST DUP3 ADD SWAP2 SWAP1 PUSH1 0x0 MSTORE PUSH1 0x20 PUSH1 0x0 KECCAK256 SWAP1 JUMPDEST DUP2 SLOAD DUP2 MSTORE SWAP1 PUSH1 0x1 ADD SWAP1 PUSH1 0x20 ADD DUP1 DUP4 GT PUSH2 0x4FF JUMPI DUP3 SWAP1 SUB PUSH1 0x1F AND DUP3 ADD SWAP2 JUMPDEST POP POP POP POP PUSH1 0x4 DUP4 ADD SLOAD PUSH1 0x5 SWAP1 SWAP4 ADD SLOAD SWAP2 SWAP3 SWAP2 PUSH1 0xFF AND SWAP1 POP DUP7 JUMP JUMPDEST PUSH1 0x5 PUSH1 0x20 MSTORE PUSH1 0x0 SWAP1 DUP2 MSTORE PUSH1 0x40 SWAP1 KECCAK256 DUP1 SLOAD PUSH1 0x1 DUP3 ADD DUP1 SLOAD SWAP2 SWAP3 SWAP2 PUSH2 0x558 SWAP1 PUSH2 0x1765 JUMP JUMPDEST DUP1 PUSH1 0x1F ADD PUSH1 0x20 DUP1 SWAP2 DIV MUL PUSH1 0x20 ADD PUSH1 0x40 MLOAD SWAP1 DUP2 ADD PUSH1 0x40 MSTORE DUP1 SWAP3 SWAP2 SWAP1 DUP2 DUP2 MSTORE PUSH1 0x20 ADD DUP3 DUP1 SLOAD PUSH2 0x584 SWAP1 PUSH2 0x1765 JUMP JUMPDEST DUP1 ISZERO PUSH2 0x5D1 JUMPI DUP1 PUSH1 0x1F LT PUSH2 0x5A6 JUMPI PUSH2 0x100 DUP1 DUP4 SLOAD DIV MUL DUP4 MSTORE SWAP2 PUSH1 0x20 ADD SWAP2 PUSH2 0x5D1 JUMP JUMPDEST DUP3 ADD SWAP2 SWAP1 PUSH1 0x0 MSTORE PUSH1 0x20 PUSH1 0x0 KECCAK256 SWAP1 JUMPDEST DUP2 SLOAD DUP2 MSTORE SWAP1 PUSH1 0x1 ADD SWAP1 PUSH1 0x20 ADD DUP1 DUP4 GT PUSH2 0x5B4 JUMPI DUP3 SWAP1 SUB PUSH1 0x1F AND DUP3 ADD SWAP2 JUMPDEST POP POP POP POP POP SWAP1 DUP1 PUSH1 0x2 ADD DUP1 SLOAD PUSH2 0x5E6 SWAP1 PUSH2 0x1765 JUMP JUMPDEST DUP1 PUSH1 0x1F ADD PUSH1 0x20 DUP1 SWAP2 DIV MUL PUSH1 0x20 ADD PUSH1 0x40 MLOAD SWAP1 DUP2 ADD PUSH1 0x40 MSTORE DUP1 SWAP3 SWAP2 SWAP1 DUP2 DUP2 MSTORE PUSH1 0x20 ADD DUP3 DUP1 SLOAD PUSH2 0x612 SWAP1 PUSH2 0x1765 JUMP JUMPDEST DUP1 ISZERO PUSH2 0x65F JUMPI DUP1 PUSH1 0x1F LT PUSH2 0x634 JUMPI PUSH2 0x100 DUP1 DUP4 SLOAD DIV MUL DUP4 MSTORE SWAP2 PUSH1 0x20 ADD SWAP2 PUSH2 0x65F JUMP JUMPDEST DUP3 ADD SWAP2 SWAP1 PUSH1 0x0 MSTORE PUSH1 0x20 PUSH1 0x0 KECCAK256 SWAP1 JUMPDEST DUP2 SLOAD DUP2 MSTORE SWAP1 PUSH1 0x1 ADD SWAP1 PUSH1 0x20 ADD DUP1 DUP4 GT PUSH2 0x642 JUMPI DUP3 SWAP1 SUB PUSH1 0x1F AND DUP3 ADD SWAP2 JUMPDEST POP POP POP POP POP SWAP1 DUP1 PUSH1 0x3 ADD DUP1 SLOAD PUSH2 0x674 SWAP1 PUSH2 0x1765 JUMP JUMPDEST DUP1 PUSH1 0x1F ADD PUSH1 0x20 DUP1 SWAP2 DIV MUL PUSH1 0x20 ADD PUSH1 0x40 MLOAD SWAP1 DUP2 ADD PUSH1 0x40 MSTORE DUP1 SWAP3 SWAP2 SWAP1 DUP2 DUP2 MSTORE PUSH1 0x20 ADD DUP3 DUP1 SLOAD PUSH2 0x6A0 SWAP1 PUSH2 0x1765 JUMP JUMPDEST DUP1 ISZERO PUSH2 0x6ED JUMPI DUP1 PUSH1 0x1F LT PUSH2 0x6C2 JUMPI PUSH2 0x100 DUP1 DUP4 SLOAD DIV MUL DUP4 MSTORE SWAP2 PUSH1 0x20 ADD SWAP2 PUSH2 0x6ED JUMP JUMPDEST DUP3 ADD SWAP2 SWAP1 PUSH1 0x0 MSTORE PUSH1 0x20 PUSH1 0x0 KECCAK256 SWAP1 JUMPDEST DUP2 SLOAD DUP2 MSTORE SWAP1 PUSH1 0x1 ADD SWAP1 PUSH1 0x20 ADD DUP1 DUP4 GT PUSH2 0x6D0 JUMPI DUP3 SWAP1 SUB PUSH1 0x1F AND DUP3 ADD SWAP2 JUMPDEST POP POP POP POP POP SWAP1 DUP1 PUSH1 0x4 ADD SLOAD SWAP1 DUP1 PUSH1 0x5 ADD DUP1 SLOAD PUSH2 0x708 SWAP1 PUSH2 0x1765 JUMP JUMPDEST DUP1 PUSH1 0x1F ADD PUSH1 0x20 DUP1 SWAP2 DIV MUL PUSH1 0x20 ADD PUSH1 0x40 MLOAD SWAP1 DUP2 ADD PUSH1 0x40 MSTORE DUP1 SWAP3 SWAP2 SWAP1 DUP2 DUP2 MSTORE PUSH1 0x20 ADD DUP3 DUP1 SLOAD PUSH2 0x734 SWAP1 PUSH2 0x1765 JUMP JUMPDEST DUP1 ISZERO PUSH2 0x781 JUMPI DUP1 PUSH1 0x1F LT PUSH2 0x756 JUMPI PUSH2 0x100 DUP1 DUP4 SLOAD DIV MUL DUP4 MSTORE SWAP2 PUSH1 0x20 ADD SWAP2 PUSH2 0x781 JUMP JUMPDEST DUP3 ADD SWAP2 SWAP1 PUSH1 0x0 MSTORE PUSH1 0x20 PUSH1 0x0 KECCAK256 SWAP1 JUMPDEST DUP2 SLOAD DUP2 MSTORE SWAP1 PUSH1 0x1 ADD SWAP1 PUSH1 0x20 ADD DUP1 DUP4 GT PUSH2 0x764 JUMPI DUP3 SWAP1 SUB PUSH1 0x1F AND DUP3 ADD SWAP2 JUMPDEST POP POP POP POP POP SWAP1 POP DUP7 JUMP JUMPDEST PUSH1 0x4 PUSH1 0x20 MSTORE DUP2 PUSH1 0x0 MSTORE PUSH1 0x40 PUSH1 0x0 KECCAK256 DUP2 DUP2 SLOAD DUP2 LT PUSH2 0x7A7 JUMPI PUSH1 0x0 DUP1 REVERT JUMPDEST SWAP1 PUSH1 0x0 MSTORE PUSH1 0x20 PUSH1 0x0 KECCAK256 ADD PUSH1 0x0 SWAP2 POP SWAP2 POP POP SLOAD DUP2 JUMP JUMPDEST PUSH1 0x0 DUP2 DUP2 MSTORE PUSH1 0x3 PUSH1 0x20 MSTORE PUSH1 0x40 DUP2 KECCAK256 PUSH1 0x5 ADD SLOAD DUP2 SWAP1 DUP2 SWAP1 PUSH1 0x60 SWAP1 DUP3 SWAP1 DUP2 SWAP1 PUSH1 0xFF AND PUSH2 0x7F8 JUMPI PUSH1 0x40 MLOAD PUSH3 0x461BCD PUSH1 0xE5 SHL DUP2 MSTORE PUSH1 0x4 ADD PUSH2 0x306 SWAP1 PUSH2 0x1739 JUMP JUMPDEST PUSH1 0x0 DUP8 DUP2 MSTORE PUSH1 0x3 PUSH1 0x20 DUP2 DUP2 MSTORE PUSH1 0x40 DUP1 DUP5 KECCAK256 DUP2 MLOAD PUSH1 0xC0 DUP2 ADD DUP4 MSTORE DUP2 SLOAD DUP2 MSTORE PUSH1 0x1 DUP3 ADD SLOAD SWAP4 DUP2 ADD SWAP4 SWAP1 SWAP4 MSTORE PUSH1 0x2 DUP2 ADD SLOAD PUSH1 0x1 PUSH1 0x1 PUSH1 0xA0 SHL SUB AND SWAP2 DUP4 ADD SWAP2 SWAP1 SWAP2 MSTORE SWAP2 DUP3 ADD DUP1 SLOAD SWAP2 SWAP3 SWAP2 PUSH1 0x60 DUP5 ADD SWAP2 SWAP1 PUSH2 0x84D SWAP1 PUSH2 0x1765 JUMP JUMPDEST DUP1 PUSH1 0x1F ADD PUSH1 0x20 DUP1 SWAP2 DIV MUL PUSH1 0x20 ADD PUSH1 0x40 MLOAD SWAP1 DUP2 ADD PUSH1 0x40 MSTORE DUP1 SWAP3 SWAP2 SWAP1 DUP2 DUP2 MSTORE PUSH1 0x20 ADD DUP3 DUP1 SLOAD PUSH2 0x879 SWAP1 PUSH2 0x1765 JUMP JUMPDEST DUP1 ISZERO PUSH2 0x8C6 JUMPI DUP1 PUSH1 0x1F LT PUSH2 0x89B JUMPI PUSH2 0x100 DUP1 DUP4 SLOAD DIV MUL DUP4 MSTORE SWAP2 PUSH1 0x20 ADD SWAP2 PUSH2 0x8C6 JUMP JUMPDEST DUP3 ADD SWAP2 SWAP1 PUSH1 0x0 MSTORE PUSH1 0x20 PUSH1 0x0 KECCAK256 SWAP1 JUMPDEST DUP2 SLOAD DUP2 MSTORE SWAP1 PUSH1 0x1 ADD SWAP1 PUSH1 0x20 ADD DUP1 DUP4 GT PUSH2 0x8A9 JUMPI DUP3 SWAP1 SUB PUSH1 0x1F AND DUP3 ADD SWAP2 JUMPDEST POP POP POP SWAP2 DUP4 MSTORE POP POP PUSH1 0x4 DUP3 ADD SLOAD PUSH1 0x20 DUP1 DUP4 ADD SWAP2 SWAP1 SWAP2 MSTORE PUSH1 0x5 SWAP1 SWAP3 ADD SLOAD PUSH1 0xFF AND ISZERO ISZERO PUSH1 0x40 SWAP2 DUP3 ADD MSTORE DUP3 MLOAD SWAP2 DUP4 ADD MLOAD SWAP1 DUP4 ADD MLOAD PUSH1 0x60 DUP5 ADD MLOAD PUSH1 0x80 DUP6 ADD MLOAD PUSH1 0xA0 SWAP1 SWAP6 ADD MLOAD SWAP4 SWAP14 SWAP3 SWAP13 POP SWAP1 SWAP11 POP SWAP9 POP SWAP2 SWAP7 POP SWAP5 POP SWAP3 POP POP POP JUMP JUMPDEST PUSH1 0x0 SLOAD PUSH1 0x1 PUSH1 0x1 PUSH1 0xA0 SHL SUB AND CALLER EQ PUSH2 0x971 JUMPI PUSH1 0x40 MLOAD PUSH3 0x461BCD PUSH1 0xE5 SHL DUP2 MSTORE PUSH1 0x20 PUSH1 0x4 DUP3 ADD MSTORE PUSH1 0x18 PUSH1 0x24 DUP3 ADD MSTORE PUSH24 0x4F6E6C792061646D696E2063616E2063616C6C2074686973 PUSH1 0x40 SHL PUSH1 0x44 DUP3 ADD MSTORE PUSH1 0x64 ADD PUSH2 0x306 JUMP JUMPDEST PUSH1 0xA DUP2 GT ISZERO PUSH2 0x9B5 JUMPI PUSH1 0x40 MLOAD PUSH3 0x461BCD PUSH1 0xE5 SHL DUP2 MSTORE PUSH1 0x20 PUSH1 0x4 DUP3 ADD MSTORE PUSH1 0x10 PUSH1 0x24 DUP3 ADD MSTORE PUSH16 0xA4DEF2C2D8E8F240E8DEDE40D0D2CED PUSH1 0x83 SHL PUSH1 0x44 DUP3 ADD MSTORE PUSH1 0x64 ADD PUSH2 0x306 JUMP JUMPDEST PUSH1 0x2 SSTORE JUMP JUMPDEST PUSH1 0x0 DUP3 DUP2 MSTORE PUSH1 0x3 PUSH1 0x20 MSTORE PUSH1 0x40 SWAP1 KECCAK256 PUSH1 0x5 ADD SLOAD PUSH1 0xFF AND PUSH2 0x9EB JUMPI PUSH1 0x40 MLOAD PUSH3 0x461BCD PUSH1 0xE5 SHL DUP2 MSTORE PUSH1 0x4 ADD PUSH2 0x306 SWAP1 PUSH2 0x1739 JUMP JUMPDEST PUSH1 0x1 PUSH1 0x1 PUSH1 0xA0 SHL SUB DUP2 AND PUSH2 0xA33 JUMPI PUSH1 0x40 MLOAD PUSH3 0x461BCD PUSH1 0xE5 SHL DUP2 MSTORE PUSH1 0x20 PUSH1 0x4 DUP3 ADD MSTORE PUSH1 0xF PUSH1 0x24 DUP3 ADD MSTORE PUSH15 0x496E76616C69642061646472657373 PUSH1 0x88 SHL PUSH1 0x44 DUP3 ADD MSTORE PUSH1 0x64 ADD PUSH2 0x306 JUMP JUMPDEST PUSH1 0x0 DUP3 DUP2 MSTORE PUSH1 0x3 PUSH1 0x20 MSTORE PUSH1 0x40 SWAP1 KECCAK256 PUSH1 0x2 ADD SLOAD PUSH1 0x1 PUSH1 0x1 PUSH1 0xA0 SHL SUB AND CALLER DUP2 EQ DUP1 PUSH2 0xA72 JUMPI POP PUSH1 0x0 DUP4 DUP2 MSTORE PUSH1 0x7 PUSH1 0x20 MSTORE PUSH1 0x40 SWAP1 KECCAK256 SLOAD PUSH1 0x1 PUSH1 0x1 PUSH1 0xA0 SHL SUB AND CALLER EQ JUMPDEST DUP1 PUSH2 0xAA0 JUMPI POP PUSH1 0x1 PUSH1 0x1 PUSH1 0xA0 SHL SUB DUP2 AND PUSH1 0x0 SWAP1 DUP2 MSTORE PUSH1 0x8 PUSH1 0x20 SWAP1 DUP2 MSTORE PUSH1 0x40 DUP1 DUP4 KECCAK256 CALLER DUP5 MSTORE SWAP1 SWAP2 MSTORE SWAP1 KECCAK256 SLOAD PUSH1 0xFF AND JUMPDEST PUSH2 0xAEC JUMPI PUSH1 0x40 MLOAD PUSH3 0x461BCD PUSH1 0xE5 SHL DUP2 MSTORE PUSH1 0x20 PUSH1 0x4 DUP3 ADD MSTORE PUSH1 0x1A PUSH1 0x24 DUP3 ADD MSTORE PUSH32 0x4E6F7420617574686F72697A656420746F207472616E73666572000000000000 PUSH1 0x44 DUP3 ADD MSTORE PUSH1 0x64 ADD PUSH2 0x306 JUMP JUMPDEST PUSH1 0x0 DUP4 DUP2 MSTORE PUSH1 0x7 PUSH1 0x20 SWAP1 DUP2 MSTORE PUSH1 0x40 DUP1 DUP4 KECCAK256 DUP1 SLOAD PUSH1 0x1 PUSH1 0x1 PUSH1 0xA0 SHL SUB NOT SWAP1 DUP2 AND SWAP1 SWAP2 SSTORE PUSH1 0x3 SWAP1 SWAP3 MSTORE SWAP1 SWAP2 KECCAK256 PUSH1 0x2 ADD DUP1 SLOAD SWAP1 SWAP2 AND PUSH1 0x1 PUSH1 0x1 PUSH1 0xA0 SHL SUB DUP5 AND OR SWAP1 SSTORE PUSH2 0xB35 DUP2 DUP5 PUSH2 0x1254 JUMP JUMPDEST PUSH1 0x1 PUSH1 0x1 PUSH1 0xA0 SHL SUB DUP1 DUP4 AND PUSH1 0x0 DUP2 DUP2 MSTORE PUSH1 0x4 PUSH1 0x20 SWAP1 DUP2 MSTORE PUSH1 0x40 DUP1 DUP4 KECCAK256 DUP1 SLOAD PUSH1 0x1 DUP2 ADD DUP3 SSTORE SWAP1 DUP5 MSTORE SWAP2 DUP4 KECCAK256 SWAP1 SWAP2 ADD DUP8 SWAP1 SSTORE MLOAD SWAP2 SWAP3 DUP5 AND SWAP2 DUP7 SWAP2 PUSH32 0x67043FAC5FD2BF9EDBB46EE495AAED7F97F91D43507D373BE2B592AF19B8C0A8 SWAP2 LOG4 POP POP POP JUMP JUMPDEST PUSH1 0x1 PUSH1 0x1 PUSH1 0xA0 SHL SUB DUP3 AND CALLER SUB PUSH2 0xBED JUMPI PUSH1 0x40 MLOAD PUSH3 0x461BCD PUSH1 0xE5 SHL DUP2 MSTORE PUSH1 0x20 PUSH1 0x4 DUP3 ADD MSTORE PUSH1 0x1C PUSH1 0x24 DUP3 ADD MSTORE PUSH32 0x43616E6E6F742073657420617070726F76616C20666F722073656C6600000000 PUSH1 0x44 DUP3 ADD MSTORE PUSH1 0x64 ADD PUSH2 0x306 JUMP JUMPDEST CALLER PUSH1 0x0 DUP2 DUP2 MSTORE PUSH1 0x8 PUSH1 0x20 SWAP1 DUP2 MSTORE PUSH1 0x40 DUP1 DUP4 KECCAK256 PUSH1 0x1 PUSH1 0x1 PUSH1 0xA0 SHL SUB DUP8 AND DUP1 DUP6 MSTORE SWAP1 DUP4 MSTORE SWAP3 DUP2 SWAP1 KECCAK256 DUP1 SLOAD PUSH1 0xFF NOT AND DUP7 ISZERO ISZERO SWAP1 DUP2 OR SWAP1 SWAP2 SSTORE SWAP1 MLOAD SWAP1 DUP2 MSTORE SWAP2 SWAP3 SWAP2 PUSH32 0x17307EAB39AB6107E8899845AD3D59BD9653F200F220920489CA2B5937696C31 SWAP2 ADD PUSH1 0x40 MLOAD DUP1 SWAP2 SUB SWAP1 LOG3 POP POP JUMP JUMPDEST PUSH1 0x0 DUP1 SLOAD PUSH1 0x1 PUSH1 0x1 PUSH1 0xA0 SHL SUB AND CALLER EQ PUSH2 0xCAF JUMPI PUSH1 0x40 MLOAD PUSH3 0x461BCD PUSH1 0xE5 SHL DUP2 MSTORE PUSH1 0x20 PUSH1 0x4 DUP3 ADD MSTORE PUSH1 0x18 PUSH1 0x24 DUP3 ADD MSTORE PUSH24 0x4F6E6C792061646D696E2063616E2063616C6C2074686973 PUSH1 0x40 SHL PUSH1 0x44 DUP3 ADD MSTORE PUSH1 0x64 ADD PUSH2 0x306 JUMP JUMPDEST PUSH1 0x1 DUP5 LT ISZERO DUP1 ISZERO PUSH2 0xCC1 JUMPI POP PUSH1 0xA DUP5 GT ISZERO JUMPDEST PUSH2 0xD03 JUMPI PUSH1 0x40 MLOAD PUSH3 0x461BCD PUSH1 0xE5 SHL DUP2 MSTORE PUSH1 0x20 PUSH1 0x4 DUP3 ADD MSTORE PUSH1 0x13 PUSH1 0x24 DUP3 ADD MSTORE PUSH19 0x125B9D985B1A59081858DA1A595D995B595B9D PUSH1 0x6A SHL PUSH1 0x44 DUP3 ADD MSTORE PUSH1 0x64 ADD PUSH2 0x306 JUMP JUMPDEST PUSH1 0x1 PUSH1 0x1 PUSH1 0xA0 SHL SUB DUP6 AND PUSH1 0x0 SWAP1 DUP2 MSTORE PUSH1 0x6 PUSH1 0x20 SWAP1 DUP2 MSTORE PUSH1 0x40 DUP1 DUP4 KECCAK256 DUP8 DUP5 MSTORE SWAP1 SWAP2 MSTORE SWAP1 KECCAK256 SLOAD PUSH1 0xFF AND ISZERO PUSH2 0xD68 JUMPI PUSH1 0x40 MLOAD PUSH3 0x461BCD PUSH1 0xE5 SHL DUP2 MSTORE PUSH1 0x20 PUSH1 0x4 DUP3 ADD MSTORE PUSH1 0xE PUSH1 0x24 DUP3 ADD MSTORE PUSH14 0x105B1C9958591E4819585C9B9959 PUSH1 0x92 SHL PUSH1 0x44 DUP3 ADD MSTORE PUSH1 0x64 ADD PUSH2 0x306 JUMP JUMPDEST PUSH1 0x0 DUP3 MLOAD GT PUSH2 0xDAD JUMPI PUSH1 0x40 MLOAD PUSH3 0x461BCD PUSH1 0xE5 SHL DUP2 MSTORE PUSH1 0x20 PUSH1 0x4 DUP3 ADD MSTORE PUSH1 0x11 PUSH1 0x24 DUP3 ADD MSTORE PUSH17 0x496E76616C6964207369676E6174757265 PUSH1 0x78 SHL PUSH1 0x44 DUP3 ADD MSTORE PUSH1 0x64 ADD PUSH2 0x306 JUMP JUMPDEST PUSH1 0x1 DUP1 SLOAD SWAP1 DUP2 SWAP1 PUSH1 0x0 PUSH2 0xDBF DUP4 PUSH2 0x17B5 JUMP JUMPDEST SWAP1 SWAP2 SSTORE POP POP PUSH1 0x40 DUP1 MLOAD PUSH1 0xC0 DUP2 ADD DUP3 MSTORE DUP3 DUP2 MSTORE PUSH1 0x20 DUP1 DUP3 ADD DUP9 DUP2 MSTORE PUSH1 0x1 PUSH1 0x1 PUSH1 0xA0 SHL SUB DUP11 DUP2 AND DUP5 DUP7 ADD SWAP1 DUP2 MSTORE PUSH1 0x60 DUP6 ADD DUP11 DUP2 MSTORE TIMESTAMP PUSH1 0x80 DUP8 ADD MSTORE PUSH1 0x1 PUSH1 0xA0 DUP8 ADD DUP2 SWAP1 MSTORE PUSH1 0x0 DUP10 DUP2 MSTORE PUSH1 0x3 SWAP7 DUP8 SWAP1 MSTORE SWAP8 SWAP1 SWAP8 KECCAK256 DUP7 MLOAD DUP2 SSTORE SWAP4 MLOAD SWAP7 DUP5 ADD SWAP7 SWAP1 SWAP7 SSTORE MLOAD PUSH1 0x2 DUP4 ADD DUP1 SLOAD PUSH1 0x1 PUSH1 0x1 PUSH1 0xA0 SHL SUB NOT AND SWAP2 SWAP1 SWAP3 AND OR SWAP1 SSTORE SWAP3 MLOAD SWAP2 SWAP3 SWAP2 SWAP1 DUP3 ADD SWAP1 PUSH2 0xE47 SWAP1 DUP3 PUSH2 0x181D JUMP JUMPDEST POP PUSH1 0x80 DUP3 ADD MLOAD PUSH1 0x4 DUP1 DUP4 ADD SWAP2 SWAP1 SWAP2 SSTORE PUSH1 0xA0 SWAP1 SWAP3 ADD MLOAD PUSH1 0x5 SWAP1 SWAP2 ADD DUP1 SLOAD SWAP2 ISZERO ISZERO PUSH1 0xFF NOT SWAP3 DUP4 AND OR SWAP1 SSTORE PUSH1 0x1 PUSH1 0x1 PUSH1 0xA0 SHL SUB DUP9 AND PUSH1 0x0 DUP2 DUP2 MSTORE PUSH1 0x20 SWAP4 DUP5 MSTORE PUSH1 0x40 DUP1 DUP3 KECCAK256 DUP1 SLOAD PUSH1 0x1 DUP2 DUP2 ADD DUP4 SSTORE SWAP2 DUP5 MSTORE DUP7 DUP5 KECCAK256 ADD DUP8 SWAP1 SSTORE DUP4 DUP4 MSTORE PUSH1 0x6 DUP7 MSTORE DUP2 DUP4 KECCAK256 DUP12 DUP5 MSTORE SWAP1 SWAP6 MSTORE SWAP1 DUP2 SWAP1 KECCAK256 DUP1 SLOAD SWAP1 SWAP4 AND SWAP1 SWAP4 OR SWAP1 SWAP2 SSTORE SWAP1 MLOAD DUP3 SWAP1 PUSH32 0x55E34067993DE700E7F718F190FDCCC92A27695BB9068504A1A44258577F8EB SWAP1 PUSH2 0xEED SWAP1 DUP10 DUP2 MSTORE PUSH1 0x20 ADD SWAP1 JUMP JUMPDEST PUSH1 0x40 MLOAD DUP1 SWAP2 SUB SWAP1 LOG3 SWAP6 SWAP5 POP POP POP POP POP JUMP JUMPDEST PUSH1 0x1 PUSH1 0x1 PUSH1 0xA0 SHL SUB DUP2 AND PUSH1 0x0 SWAP1 DUP2 MSTORE PUSH1 0x4 PUSH1 0x20 SWAP1 DUP2 MSTORE PUSH1 0x40 SWAP2 DUP3 SWAP1 KECCAK256 DUP1 SLOAD DUP4 MLOAD DUP2 DUP5 MUL DUP2 ADD DUP5 ADD SWAP1 SWAP5 MSTORE DUP1 DUP5 MSTORE PUSH1 0x60 SWAP4 SWAP3 DUP4 ADD DUP3 DUP3 DUP1 ISZERO PUSH2 0xF5E JUMPI PUSH1 0x20 MUL DUP3 ADD SWAP2 SWAP1 PUSH1 0x0 MSTORE PUSH1 0x20 PUSH1 0x0 KECCAK256 SWAP1 JUMPDEST DUP2 SLOAD DUP2 MSTORE PUSH1 0x20 ADD SWAP1 PUSH1 0x1 ADD SWAP1 DUP1 DUP4 GT PUSH2 0xF4A JUMPI JUMPDEST POP POP POP POP POP SWAP1 POP SWAP2 SWAP1 POP JUMP JUMPDEST PUSH1 0x1 PUSH1 0x1 PUSH1 0xA0 SHL SUB DUP1 DUP4 AND PUSH1 0x0 SWAP1 DUP2 MSTORE PUSH1 0x8 PUSH1 0x20 SWAP1 DUP2 MSTORE PUSH1 0x40 DUP1 DUP4 KECCAK256 SWAP4 DUP6 AND DUP4 MSTORE SWAP3 SWAP1 MSTORE KECCAK256 SLOAD PUSH1 0xFF AND JUMPDEST SWAP3 SWAP2 POP POP JUMP JUMPDEST PUSH2 0xFD3 PUSH1 0x40 MLOAD DUP1 PUSH1 0xC0 ADD PUSH1 0x40 MSTORE DUP1 PUSH1 0x0 DUP2 MSTORE PUSH1 0x20 ADD PUSH1 0x60 DUP2 MSTORE PUSH1 0x20 ADD PUSH1 0x60 DUP2 MSTORE PUSH1 0x20 ADD PUSH1 0x60 DUP2 MSTORE PUSH1 0x20 ADD PUSH1 0x0 DUP2 MSTORE PUSH1 0x20 ADD PUSH1 0x60 DUP2 MSTORE POP SWAP1 JUMP JUMPDEST PUSH1 0x5 PUSH1 0x0 DUP4 DUP2 MSTORE PUSH1 0x20 ADD SWAP1 DUP2 MSTORE PUSH1 0x20 ADD PUSH1 0x0 KECCAK256 PUSH1 0x40 MLOAD DUP1 PUSH1 0xC0 ADD PUSH1 0x40 MSTORE SWAP1 DUP2 PUSH1 0x0 DUP3 ADD SLOAD DUP2 MSTORE PUSH1 0x20 ADD PUSH1 0x1 DUP3 ADD DUP1 SLOAD PUSH2 0x100B SWAP1 PUSH2 0x1765 JUMP JUMPDEST DUP1 PUSH1 0x1F ADD PUSH1 0x20 DUP1 SWAP2 DIV MUL PUSH1 0x20 ADD PUSH1 0x40 MLOAD SWAP1 DUP2 ADD PUSH1 0x40 MSTORE DUP1 SWAP3 SWAP2 SWAP1 DUP2 DUP2 MSTORE PUSH1 0x20 ADD DUP3 DUP1 SLOAD PUSH2 0x1037 SWAP1 PUSH2 0x1765 JUMP JUMPDEST DUP1 ISZERO PUSH2 0x1084 JUMPI DUP1 PUSH1 0x1F LT PUSH2 0x1059 JUMPI PUSH2 0x100 DUP1 DUP4 SLOAD DIV MUL DUP4 MSTORE SWAP2 PUSH1 0x20 ADD SWAP2 PUSH2 0x1084 JUMP JUMPDEST DUP3 ADD SWAP2 SWAP1 PUSH1 0x0 MSTORE PUSH1 0x20 PUSH1 0x0 KECCAK256 SWAP1 JUMPDEST DUP2 SLOAD DUP2 MSTORE SWAP1 PUSH1 0x1 ADD SWAP1 PUSH1 0x20 ADD DUP1 DUP4 GT PUSH2 0x1067 JUMPI DUP3 SWAP1 SUB PUSH1 0x1F AND DUP3 ADD SWAP2 JUMPDEST POP POP POP POP POP DUP2 MSTORE PUSH1 0x20 ADD PUSH1 0x2 DUP3 ADD DUP1 SLOAD PUSH2 0x109D SWAP1 PUSH2 0x1765 JUMP JUMPDEST DUP1 PUSH1 0x1F ADD PUSH1 0x20 DUP1 SWAP2 DIV MUL PUSH1 0x20 ADD PUSH1 0x40 MLOAD SWAP1 DUP2 ADD PUSH1 0x40 MSTORE DUP1 SWAP3 SWAP2 SWAP1 DUP2 DUP2 MSTORE PUSH1 0x20 ADD DUP3 DUP1 SLOAD PUSH2 0x10C9 SWAP1 PUSH2 0x1765 JUMP JUMPDEST DUP1 ISZERO PUSH2 0x1116 JUMPI DUP1 PUSH1 0x1F LT PUSH2 0x10EB JUMPI PUSH2 0x100 DUP1 DUP4 SLOAD DIV MUL DUP4 MSTORE SWAP2 PUSH1 0x20 ADD SWAP2 PUSH2 0x1116 JUMP JUMPDEST DUP3 ADD SWAP2 SWAP1 PUSH1 0x0 MSTORE PUSH1 0x20 PUSH1 0x0 KECCAK256 SWAP1 JUMPDEST DUP2 SLOAD DUP2 MSTORE SWAP1 PUSH1 0x1 ADD SWAP1 PUSH1 0x20 ADD DUP1 DUP4 GT PUSH2 0x10F9 JUMPI DUP3 SWAP1 SUB PUSH1 0x1F AND DUP3 ADD SWAP2 JUMPDEST POP POP POP POP POP DUP2 MSTORE PUSH1 0x20 ADD PUSH1 0x3 DUP3 ADD DUP1 SLOAD PUSH2 0x112F SWAP1 PUSH2 0x1765 JUMP JUMPDEST DUP1 PUSH1 0x1F ADD PUSH1 0x20 DUP1 SWAP2 DIV MUL PUSH1 0x20 ADD PUSH1 0x40 MLOAD SWAP1 DUP2 ADD PUSH1 0x40 MSTORE DUP1 SWAP3 SWAP2 SWAP1 DUP2 DUP2 MSTORE PUSH1 0x20 ADD DUP3 DUP1 SLOAD PUSH2 0x115B SWAP1 PUSH2 0x1765 JUMP JUMPDEST DUP1 ISZERO PUSH2 0x11A8 JUMPI DUP1 PUSH1 0x1F LT PUSH2 0x117D JUMPI PUSH2 0x100 DUP1 DUP4 SLOAD DIV MUL DUP4 MSTORE SWAP2 PUSH1 0x20 ADD SWAP2 PUSH2 0x11A8 JUMP JUMPDEST DUP3 ADD SWAP2 SWAP1 PUSH1 0x0 MSTORE PUSH1 0x20 PUSH1 0x0 KECCAK256 SWAP1 JUMPDEST DUP2 SLOAD DUP2 MSTORE SWAP1 PUSH1 0x1 ADD SWAP1 PUSH1 0x20 ADD DUP1 DUP4 GT PUSH2 0x118B JUMPI DUP3 SWAP1 SUB PUSH1 0x1F AND DUP3 ADD SWAP2 JUMPDEST POP POP POP POP POP DUP2 MSTORE PUSH1 0x20 ADD PUSH1 0x4 DUP3 ADD SLOAD DUP2 MSTORE PUSH1 0x20 ADD PUSH1 0x5 DUP3 ADD DUP1 SLOAD PUSH2 0x11CB SWAP1 PUSH2 0x1765 JUMP JUMPDEST DUP1 PUSH1 0x1F ADD PUSH1 0x20 DUP1 SWAP2 DIV MUL PUSH1 0x20 ADD PUSH1 0x40 MLOAD SWAP1 DUP2 ADD PUSH1 0x40 MSTORE DUP1 SWAP3 SWAP2 SWAP1 DUP2 DUP2 MSTORE PUSH1 0x20 ADD DUP3 DUP1 SLOAD PUSH2 0x11F7 SWAP1 PUSH2 0x1765 JUMP JUMPDEST DUP1 ISZERO PUSH2 0x1244 JUMPI DUP1 PUSH1 0x1F LT PUSH2 0x1219 JUMPI PUSH2 0x100 DUP1 DUP4 SLOAD DIV MUL DUP4 MSTORE SWAP2 PUSH1 0x20 ADD SWAP2 PUSH2 0x1244 JUMP JUMPDEST DUP3 ADD SWAP2 SWAP1 PUSH1 0x0 MSTORE PUSH1 0x20 PUSH1 0x0 KECCAK256 SWAP1 JUMPDEST DUP2 SLOAD DUP2 MSTORE SWAP1 PUSH1 0x1 ADD SWAP1 PUSH1 0x20 ADD DUP1 DUP4 GT PUSH2 0x1227 JUMPI DUP3 SWAP1 SUB PUSH1 0x1F AND DUP3 ADD SWAP2 JUMPDEST POP POP POP POP POP DUP2 MSTORE POP POP SWAP1 POP SWAP2 SWAP1 POP JUMP JUMPDEST PUSH1 0x1 PUSH1 0x1 PUSH1 0xA0 SHL SUB DUP3 AND PUSH1 0x0 SWAP1 DUP2 MSTORE PUSH1 0x4 PUSH1 0x20 MSTORE PUSH1 0x40 DUP2 KECCAK256 SWAP1 JUMPDEST DUP2 SLOAD DUP2 LT ISZERO PUSH2 0x1322 JUMPI DUP3 DUP3 DUP3 DUP2 SLOAD DUP2 LT PUSH2 0x128A JUMPI PUSH2 0x128A PUSH2 0x18DD JUMP JUMPDEST SWAP1 PUSH1 0x0 MSTORE PUSH1 0x20 PUSH1 0x0 KECCAK256 ADD SLOAD SUB PUSH2 0x1310 JUMPI DUP2 SLOAD DUP3 SWAP1 PUSH2 0x12AA SWAP1 PUSH1 0x1 SWAP1 PUSH2 0x18F3 JUMP JUMPDEST DUP2 SLOAD DUP2 LT PUSH2 0x12BA JUMPI PUSH2 0x12BA PUSH2 0x18DD JUMP JUMPDEST SWAP1 PUSH1 0x0 MSTORE PUSH1 0x20 PUSH1 0x0 KECCAK256 ADD SLOAD DUP3 DUP3 DUP2 SLOAD DUP2 LT PUSH2 0x12D7 JUMPI PUSH2 0x12D7 PUSH2 0x18DD JUMP JUMPDEST SWAP1 PUSH1 0x0 MSTORE PUSH1 0x20 PUSH1 0x0 KECCAK256 ADD DUP2 SWAP1 SSTORE POP DUP2 DUP1 SLOAD DUP1 PUSH2 0x12F5 JUMPI PUSH2 0x12F5 PUSH2 0x1906 JUMP JUMPDEST PUSH1 0x1 SWAP1 SUB DUP2 DUP2 SWAP1 PUSH1 0x0 MSTORE PUSH1 0x20 PUSH1 0x0 KECCAK256 ADD PUSH1 0x0 SWAP1 SSTORE SWAP1 SSTORE PUSH2 0x1322 JUMP JUMPDEST DUP1 PUSH2 0x131A DUP2 PUSH2 0x17B5 JUMP JUMPDEST SWAP2 POP POP PUSH2 0x126E JUMP JUMPDEST POP POP POP POP JUMP JUMPDEST PUSH1 0x0 PUSH1 0x20 DUP3 DUP5 SUB SLT ISZERO PUSH2 0x133A JUMPI PUSH1 0x0 DUP1 REVERT JUMPDEST POP CALLDATALOAD SWAP2 SWAP1 POP JUMP JUMPDEST DUP1 CALLDATALOAD PUSH1 0x1 PUSH1 0x1 PUSH1 0xA0 SHL SUB DUP2 AND DUP2 EQ PUSH2 0x1358 JUMPI PUSH1 0x0 DUP1 REVERT JUMPDEST SWAP2 SWAP1 POP JUMP JUMPDEST PUSH1 0x0 DUP1 PUSH1 0x40 DUP4 DUP6 SUB SLT ISZERO PUSH2 0x1370 JUMPI PUSH1 0x0 DUP1 REVERT JUMPDEST PUSH2 0x1379 DUP4 PUSH2 0x1341 JUMP JUMPDEST SWAP5 PUSH1 0x20 SWAP4 SWAP1 SWAP4 ADD CALLDATALOAD SWAP4 POP POP POP JUMP JUMPDEST PUSH1 0x0 DUP2 MLOAD DUP1 DUP5 MSTORE PUSH1 0x0 JUMPDEST DUP2 DUP2 LT ISZERO PUSH2 0x13AD JUMPI PUSH1 0x20 DUP2 DUP6 ADD DUP2 ADD MLOAD DUP7 DUP4 ADD DUP3 ADD MSTORE ADD PUSH2 0x1391 JUMP JUMPDEST POP PUSH1 0x0 PUSH1 0x20 DUP3 DUP7 ADD ADD MSTORE PUSH1 0x20 PUSH1 0x1F NOT PUSH1 0x1F DUP4 ADD AND DUP6 ADD ADD SWAP2 POP POP SWAP3 SWAP2 POP POP JUMP JUMPDEST DUP7 DUP2 MSTORE DUP6 PUSH1 0x20 DUP3 ADD MSTORE PUSH1 0x1 DUP1 PUSH1 0xA0 SHL SUB DUP6 AND PUSH1 0x40 DUP3 ADD MSTORE PUSH1 0xC0 PUSH1 0x60 DUP3 ADD MSTORE PUSH1 0x0 PUSH2 0x13FA PUSH1 0xC0 DUP4 ADD DUP7 PUSH2 0x1387 JUMP JUMPDEST PUSH1 0x80 DUP4 ADD SWAP5 SWAP1 SWAP5 MSTORE POP SWAP1 ISZERO ISZERO PUSH1 0xA0 SWAP1 SWAP2 ADD MSTORE SWAP5 SWAP4 POP POP POP POP JUMP JUMPDEST DUP7 DUP2 MSTORE PUSH1 0xC0 PUSH1 0x20 DUP3 ADD MSTORE PUSH1 0x0 PUSH2 0x142D PUSH1 0xC0 DUP4 ADD DUP9 PUSH2 0x1387 JUMP JUMPDEST DUP3 DUP2 SUB PUSH1 0x40 DUP5 ADD MSTORE PUSH2 0x143F DUP2 DUP9 PUSH2 0x1387 JUMP JUMPDEST SWAP1 POP DUP3 DUP2 SUB PUSH1 0x60 DUP5 ADD MSTORE PUSH2 0x1453 DUP2 DUP8 PUSH2 0x1387 JUMP JUMPDEST SWAP1 POP DUP5 PUSH1 0x80 DUP5 ADD MSTORE DUP3 DUP2 SUB PUSH1 0xA0 DUP5 ADD MSTORE PUSH2 0x146D DUP2 DUP6 PUSH2 0x1387 JUMP JUMPDEST SWAP10 SWAP9 POP POP POP POP POP POP POP POP POP JUMP JUMPDEST PUSH1 0x0 DUP1 PUSH1 0x40 DUP4 DUP6 SUB SLT ISZERO PUSH2 0x148D JUMPI PUSH1 0x0 DUP1 REVERT JUMPDEST DUP3 CALLDATALOAD SWAP2 POP PUSH2 0x149D PUSH1 0x20 DUP5 ADD PUSH2 0x1341 JUMP JUMPDEST SWAP1 POP SWAP3 POP SWAP3 SWAP1 POP JUMP JUMPDEST PUSH1 0x0 DUP1 PUSH1 0x40 DUP4 DUP6 SUB SLT ISZERO PUSH2 0x14B9 JUMPI PUSH1 0x0 DUP1 REVERT JUMPDEST PUSH2 0x14C2 DUP4 PUSH2 0x1341 JUMP JUMPDEST SWAP2 POP PUSH1 0x20 DUP4 ADD CALLDATALOAD DUP1 ISZERO ISZERO DUP2 EQ PUSH2 0x14D7 JUMPI PUSH1 0x0 DUP1 REVERT JUMPDEST DUP1 SWAP2 POP POP SWAP3 POP SWAP3 SWAP1 POP JUMP JUMPDEST PUSH4 0x4E487B71 PUSH1 0xE0 SHL PUSH1 0x0 MSTORE PUSH1 0x41 PUSH1 0x4 MSTORE PUSH1 0x24 PUSH1 0x0 REVERT JUMPDEST PUSH1 0x0 PUSH8 0xFFFFFFFFFFFFFFFF DUP1 DUP5 GT ISZERO PUSH2 0x1513 JUMPI PUSH2 0x1513 PUSH2 0x14E2 JUMP JUMPDEST PUSH1 0x40 MLOAD PUSH1 0x1F DUP6 ADD PUSH1 0x1F NOT SWAP1 DUP2 AND PUSH1 0x3F ADD AND DUP2 ADD SWAP1 DUP3 DUP3 GT DUP2 DUP4 LT OR ISZERO PUSH2 0x153B JUMPI PUSH2 0x153B PUSH2 0x14E2 JUMP JUMPDEST DUP2 PUSH1 0x40 MSTORE DUP1 SWAP4 POP DUP6 DUP2 MSTORE DUP7 DUP7 DUP7 ADD GT ISZERO PUSH2 0x1554 JUMPI PUSH1 0x0 DUP1 REVERT JUMPDEST DUP6 DUP6 PUSH1 0x20 DUP4 ADD CALLDATACOPY PUSH1 0x0 PUSH1 0x20 DUP8 DUP4 ADD ADD MSTORE POP POP POP SWAP4 SWAP3 POP POP POP JUMP JUMPDEST PUSH1 0x0 DUP1 PUSH1 0x0 DUP1 PUSH1 0x80 DUP6 DUP8 SUB SLT ISZERO PUSH2 0x1584 JUMPI PUSH1 0x0 DUP1 REVERT JUMPDEST PUSH2 0x158D DUP6 PUSH2 0x1341 JUMP JUMPDEST SWAP4 POP PUSH1 0x20 DUP6 ADD CALLDATALOAD SWAP3 POP PUSH1 0x40 DUP6 ADD CALLDATALOAD PUSH8 0xFFFFFFFFFFFFFFFF DUP1 DUP3 GT ISZERO PUSH2 0x15B1 JUMPI PUSH1 0x0 DUP1 REVERT JUMPDEST DUP2 DUP8 ADD SWAP2 POP DUP8 PUSH1 0x1F DUP4 ADD SLT PUSH2 0x15C5 JUMPI PUSH1 0x0 DUP1 REVERT JUMPDEST PUSH2 0x15D4 DUP9 DUP4 CALLDATALOAD PUSH1 0x20 DUP6 ADD PUSH2 0x14F8 JUMP JUMPDEST SWAP4 POP PUSH1 0x60 DUP8 ADD CALLDATALOAD SWAP2 POP DUP1 DUP3 GT ISZERO PUSH2 0x15EA JUMPI PUSH1 0x0 DUP1 REVERT JUMPDEST POP DUP6 ADD PUSH1 0x1F DUP2 ADD DUP8 SGT PUSH2 0x15FC JUMPI PUSH1 0x0 DUP1 REVERT JUMPDEST PUSH2 0x160B DUP8 DUP3 CALLDATALOAD PUSH1 0x20 DUP5 ADD PUSH2 0x14F8 JUMP JUMPDEST SWAP2 POP POP SWAP3 SWAP6 SWAP2 SWAP5 POP SWAP3 POP JUMP JUMPDEST PUSH1 0x0 PUSH1 0x20 DUP3 DUP5 SUB SLT ISZERO PUSH2 0x1629 JUMPI PUSH1 0x0 DUP1 REVERT JUMPDEST PUSH2 0x1632 DUP3 PUSH2 0x1341 JUMP JUMPDEST SWAP4 SWAP3 POP POP POP JUMP JUMPDEST PUSH1 0x20 DUP1 DUP3 MSTORE DUP3 MLOAD DUP3 DUP3 ADD DUP2 SWAP1 MSTORE PUSH1 0x0 SWAP2 SWAP1 DUP5 DUP3 ADD SWAP1 PUSH1 0x40 DUP6 ADD SWAP1 DUP5 JUMPDEST DUP2 DUP2 LT ISZERO PUSH2 0x1671 JUMPI DUP4 MLOAD DUP4 MSTORE SWAP3 DUP5 ADD SWAP3 SWAP2 DUP5 ADD SWAP2 PUSH1 0x1 ADD PUSH2 0x1655 JUMP JUMPDEST POP SWAP1 SWAP7 SWAP6 POP POP POP POP POP POP JUMP JUMPDEST PUSH1 0x0 DUP1 PUSH1 0x40 DUP4 DUP6 SUB SLT ISZERO PUSH2 0x1690 JUMPI PUSH1 0x0 DUP1 REVERT JUMPDEST PUSH2 0x1699 DUP4 PUSH2 0x1341 JUMP JUMPDEST SWAP2 POP PUSH2 0x149D PUSH1 0x20 DUP5 ADD PUSH2 0x1341 JUMP JUMPDEST PUSH1 0x20 DUP2 MSTORE DUP2 MLOAD PUSH1 0x20 DUP3 ADD MSTORE PUSH1 0x0 PUSH1 0x20 DUP4 ADD MLOAD PUSH1 0xC0 PUSH1 0x40 DUP5 ADD MSTORE PUSH2 0x16CD PUSH1 0xE0 DUP5 ADD DUP3 PUSH2 0x1387 JUMP JUMPDEST SWAP1 POP PUSH1 0x40 DUP5 ADD MLOAD PUSH1 0x1F NOT DUP1 DUP6 DUP5 SUB ADD PUSH1 0x60 DUP7 ADD MSTORE PUSH2 0x16EB DUP4 DUP4 PUSH2 0x1387 JUMP JUMPDEST SWAP3 POP PUSH1 0x60 DUP7 ADD MLOAD SWAP2 POP DUP1 DUP6 DUP5 SUB ADD PUSH1 0x80 DUP7 ADD MSTORE PUSH2 0x1708 DUP4 DUP4 PUSH2 0x1387 JUMP JUMPDEST SWAP3 POP PUSH1 0x80 DUP7 ADD MLOAD PUSH1 0xA0 DUP7 ADD MSTORE PUSH1 0xA0 DUP7 ADD MLOAD SWAP2 POP DUP1 DUP6 DUP5 SUB ADD PUSH1 0xC0 DUP7 ADD MSTORE POP PUSH2 0x1730 DUP3 DUP3 PUSH2 0x1387 JUMP JUMPDEST SWAP6 SWAP5 POP POP POP POP POP JUMP JUMPDEST PUSH1 0x20 DUP1 DUP3 MSTORE PUSH1 0x12 SWAP1 DUP3 ADD MSTORE PUSH18 0x13919508191BD95CC81B9BDD08195E1A5CDD PUSH1 0x72 SHL PUSH1 0x40 DUP3 ADD MSTORE PUSH1 0x60 ADD SWAP1 JUMP JUMPDEST PUSH1 0x1 DUP2 DUP2 SHR SWAP1 DUP3 AND DUP1 PUSH2 0x1779 JUMPI PUSH1 0x7F DUP3 AND SWAP2 POP JUMPDEST PUSH1 0x20 DUP3 LT DUP2 SUB PUSH2 0x1799 JUMPI PUSH4 0x4E487B71 PUSH1 0xE0 SHL PUSH1 0x0 MSTORE PUSH1 0x22 PUSH1 0x4 MSTORE PUSH1 0x24 PUSH1 0x0 REVERT JUMPDEST POP SWAP2 SWAP1 POP JUMP JUMPDEST PUSH4 0x4E487B71 PUSH1 0xE0 SHL PUSH1 0x0 MSTORE PUSH1 0x11 PUSH1 0x4 MSTORE PUSH1 0x24 PUSH1 0x0 REVERT JUMPDEST PUSH1 0x0 PUSH1 0x1 DUP3 ADD PUSH2 0x17C7 JUMPI PUSH2 0x17C7 PUSH2 0x179F JUMP JUMPDEST POP PUSH1 0x1 ADD SWAP1 JUMP JUMPDEST PUSH1 0x1F DUP3 GT ISZERO PUSH2 0x1818 JUMPI PUSH1 0x0 DUP2 DUP2 MSTORE PUSH1 0x20 DUP2 KECCAK256 PUSH1 0x1F DUP6 ADD PUSH1 0x5 SHR DUP2 ADD PUSH1 0x20 DUP7 LT ISZERO PUSH2 0x17F5 JUMPI POP DUP1 JUMPDEST PUSH1 0x1F DUP6 ADD PUSH1 0x5 SHR DUP3 ADD SWAP2 POP JUMPDEST DUP2 DUP2 LT ISZERO PUSH2 0x1814 JUMPI DUP3 DUP2 SSTORE PUSH1 0x1 ADD PUSH2 0x1801 JUMP JUMPDEST POP POP POP JUMPDEST POP POP POP JUMP JUMPDEST DUP2 MLOAD PUSH8 0xFFFFFFFFFFFFFFFF DUP2 GT ISZERO PUSH2 0x1837 JUMPI PUSH2 0x1837 PUSH2 0x14E2 JUMP JUMPDEST PUSH2 0x184B DUP2 PUSH2 0x1845 DUP5 SLOAD PUSH2 0x1765 JUMP JUMPDEST DUP5 PUSH2 0x17CE JUMP JUMPDEST PUSH1 0x20 DUP1 PUSH1 0x1F DUP4 GT PUSH1 0x1 DUP2 EQ PUSH2 0x1880 JUMPI PUSH1 0x0 DUP5 ISZERO PUSH2 0x1868 JUMPI POP DUP6 DUP4 ADD MLOAD JUMPDEST PUSH1 0x0 NOT PUSH1 0x3 DUP7 SWAP1 SHL SHR NOT AND PUSH1 0x1 DUP6 SWAP1 SHL OR DUP6 SSTORE PUSH2 0x1814 JUMP JUMPDEST PUSH1 0x0 DUP6 DUP2 MSTORE PUSH1 0x20 DUP2 KECCAK256 PUSH1 0x1F NOT DUP7 AND SWAP2 JUMPDEST DUP3 DUP2 LT ISZERO PUSH2 0x18AF JUMPI DUP9 DUP7 ADD MLOAD DUP3 SSTORE SWAP5 DUP5 ADD SWAP5 PUSH1 0x1 SWAP1 SWAP2 ADD SWAP1 DUP5 ADD PUSH2 0x1890 JUMP JUMPDEST POP DUP6 DUP3 LT ISZERO PUSH2 0x18CD JUMPI DUP8 DUP6 ADD MLOAD PUSH1 0x0 NOT PUSH1 0x3 DUP9 SWAP1 SHL PUSH1 0xF8 AND SHR NOT AND DUP2 SSTORE JUMPDEST POP POP POP POP POP PUSH1 0x1 SWAP1 DUP2 SHL ADD SWAP1 SSTORE POP JUMP JUMPDEST PUSH4 0x4E487B71 PUSH1 0xE0 SHL PUSH1 0x0 MSTORE PUSH1 0x32 PUSH1 0x4 MSTORE PUSH1 0x24 PUSH1 0x0 REVERT JUMPDEST DUP2 DUP2 SUB DUP2 DUP2 GT ISZERO PUSH2 0xF94 JUMPI PUSH2 0xF94 PUSH2 0x179F JUMP JUMPDEST PUSH4 0x4E487B71 PUSH1 0xE0 SHL PUSH1 0x0 MSTORE PUSH1 0x31 PUSH1 0x4 MSTORE PUSH1 0x24 PUSH1 0x0 REVERT INVALID LOG2 PUSH5 0x6970667358 0x22 SLT KECCAK256 0xCE 0xB7 CODESIZE 0xFC 0xDD PUSH19 0xAD262DBA9EBAF24AF1F9409AA2562DDECF6A4C 0xB5 0xAA 0xBD SHL 0xE9 MULMOD CALLER PUSH5 0x736F6C6343 STOP ADDMOD EQ STOP CALLER BASEFEE PUSH10 0x676865737420676C6F62 PUSH2 0x6C20 PUSH20 0x636F7265206F6620746865206D61746368000000 "},"methodIdentifiers":{"achievements(uint256)":"27aed72e","admin()":"f851a440","approve(address,uint256)":"095ea7b3","getAchievement(uint256)":"f2ccc543","getApproved(uint256)":"081812fc","getNFT(uint256)":"576f7ea7","getOwnerTokens(address)":"d63d4af0","hasEarnedAchievement(address,uint256)":"e500f31c","isApprovedForAll(address,address)":"e985e9c5","mintNFT(address,uint256,string,bytes)":"cf20e93a","nextTokenId()":"75794a3c","nfts(uint256)":"265aa621","ownerTokens(address,uint256)":"28b60031","royaltyPercentage()":"8a71bb2d","setApprovalForAll(address,bool)":"a22cb465","setRoyaltyPercentage(uint256)":"61ba27da","transferNFT(uint256,address)":"9036c050"}}}}}