{"contracts/AchievementVerifier.sol":{"AchievementVerifier":{"abi":[{"inputs":[],"stateMutability":"nonpayable","type":"constructor"},{"anonymous":false,"inputs":[{"indexed":true,"internalType":"address","name":"player","type":"address"},{"indexed":false,"internalType":"uint256","name":"achievementId","type":"uint256"}],"name":"AchievementClaimed","type":"event"},{"anonymous":false,"inputs":[{"indexed":true,"internalType":"bytes32","name":"sessionHash","type":"bytes32"},{"indexed":true,"internalType":"address","name":"player","type":"address"}],"name":"SessionVerified","type":"event"},{"inputs":[{"internalType":"address","name":"","type":"address"},{"internalType":"uint256","name":"","type":"uint256"}],"name":"achievementClaimed","outputs":[{"internalType":"bool","name":"","type":"bool"}],"stateMutability":"view","type":"function"},{"inputs":[],"name":"admin","outputs":[{"internalType":"address","name":"","type":"address"}],"stateMutability":"view","type":"function"},{"inputs":[{"internalType":"address","name":"player","type":"address"},{"internalType":"uint256","name":"achievementId","type":"uint256"}],"name":"checkAchievement","outputs":[{"internalType":"bool","name":"","type":"bool"}],"stateMutability":"view","type":"function"},{"inputs":[{"internalType":"uint256","name":"achievementId","type":"uint256"}],"name":"claimAchievement","outputs":[{"internalType":"bool","name":"","type":"bool"}],"stateMutability":"nonpayable","type":"function"},{"inputs":[],"name":"gameServer","outputs":[{"internalType":"address","name":"","type":"address"}],"stateMutability":"view","type":"function"},{"inputs":[{"internalType":"address","name":"player","type":"address"}],"name":"getPlayerSessions","outputs":[{"internalType":"bytes32[]","name":"","type":"bytes32[]"}],"stateMutability":"view","type":"function"},{"inputs":[{"internalType":"bytes32","name":"sessionHash","type":"bytes32"}],"name":"getSession","outputs":[{"components":[{"internalType":"address","name":"player","type":"address"},{"internalType":"uint256","name":"score","type":"uint256"},{"internalType":"uint256","name":"kills","type":"uint256"},{"internalType":"uint256","name":"accuracy","type":"uint256"},{"internalType":"uint256","name":"timeSurvived","type":"uint256"},{"internalType":"uint256","name":"timestamp","type":"uint256"},{"internalType":"bool","name":"verified","type":"bool"},{"internalType":"bytes32","name":"sessionHash","type":"bytes32"}],"internalType":"struct AchievementVerifier.GameSession","name":"","type":"tuple"}],"stateMutability":"view","type":"function"},{"inputs":[{"internalType":"address","name":"","type":"address"},{"internalType":"uint256","name":"","type":"uint256"}],"name":"playerSessions","outputs":[{"internalType":"bytes32","name":"","type":"bytes32"}],"stateMutability":"view","type":"function"},{"inputs":[{"internalType":"bytes32","name":"","type":"bytes32"}],"name":"sessions","outputs":[{"internalType":"address","name":"player","type":"address"},{"internalType":"uint256","name":"score","type":"uint256"},{"internalType":"uint256","name":"kills","type":"uint256"},{"internalType":"uint256","name":"accuracy","type":"uint256"},{"internalType":"uint256","name":"timeSurvived","type":"uint256"},{"internalType":"uint256","name":"timestamp","type":"uint256"},{"internalType":"bool","name":"verified","type":"bool"},{"internalType":"bytes32","name":"sessionHash","type":"bytes32"}],"stateMutability":"view","type":"function"},{"inputs":[{"internalType":"address","name":"_gameServer","type":"address"}],"name":"setGameServer","outputs":[],"stateMutability":"nonpayable","type":"function"},{"inputs":[{"internalType":"address","name":"player","type":"address"},{"internalType":"uint256","name":"score","type":"uint256"},{"internalType":"uint256","name":"kills","type":"uint256"},{"internalType":"uint256","name":"accuracy","type":"uint256"},{"internalType":"uint256","name":"timeSurvived","type":"uint256"},{"internalType":"bytes","name":"signature","type":"bytes"}],"name":"verifySession","outputs":[{"internalType":"bytes32","name":"","type":"bytes32"}],"stateMutability":"nonpayable","type":"function"}],"evm":{"bytecode":{"linkReferences":{},"object":"608060405234801561001057600080fd5b50600080546001600160a01b03191633179055610e53806100326000396000f3fe608060405234801561001057600080fd5b50600436106100a95760003560e01c80636a8b2d0a116100715780636a8b2d0a146101d75780637dbd2832146101ea578063b3bd6a2714610291578063d16d1ca2146102a6578063d8838fe1146102b9578063f851a440146102cc57600080fd5b8063120b7d64146100ae57806329cd564c146100f157806339b240bd1461011c5780634fbfa459146101965780635ac3a862146101b6575b600080fd5b6100dc6100bc366004610bf9565b600460209081526000928352604080842090915290825290205460ff1681565b60405190151581526020015b60405180910390f35b600154610104906001600160a01b031681565b6040516001600160a01b0390911681526020016100e8565b61012f61012a366004610c23565b6102df565b6040516100e8919081516001600160a01b031681526020808301519082015260408083015190820152606080830151908201526080808301519082015260a0828101519082015260c08083015115159082015260e091820151918101919091526101000190565b6101a96101a4366004610c3c565b6103ae565b6040516100e89190610c5e565b6101c96101c4366004610cb8565b61041a565b6040519081526020016100e8565b6100dc6101e5366004610c23565b6106ca565b61024a6101f8366004610c23565b6002602081905260009182526040909120805460018201549282015460038301546004840154600585015460068601546007909601546001600160a01b039095169695939492939192909160ff169088565b604080516001600160a01b0390991689526020890197909752958701949094526060860192909252608085015260a0840152151560c083015260e0820152610100016100e8565b6102a461029f366004610c3c565b6107d4565b005b6100dc6102b4366004610bf9565b61083d565b6101c96102c7366004610bf9565b610bac565b600054610104906001600160a01b031681565b61033560405180610100016040528060006001600160a01b031681526020016000815260200160008152602001600081526020016000815260200160008152602001600015158152602001600080191681525090565b5060009081526002602081815260409283902083516101008101855281546001600160a01b0316815260018201549281019290925291820154928101929092526003810154606083015260048101546080830152600581015460a0830152600681015460ff16151560c08301526007015460e082015290565b6001600160a01b03811660009081526003602090815260409182902080548351818402810184019094528084526060939283018282801561040e57602002820191906000526020600020905b8154815260200190600101908083116103fa575b50505050509050919050565b6001546000906001600160a01b031633148061044057506000546001600160a01b031633145b6104845760405162461bcd60e51b815260206004820152601060248201526f27b7363c9033b0b6b29039b2b93b32b960811b60448201526064015b60405180910390fd5b6001600160a01b0387166104cb5760405162461bcd60e51b815260206004820152600e60248201526d24b73b30b634b210383630bcb2b960911b604482015260640161047b565b6127108411156105105760405162461bcd60e51b815260206004820152601060248201526f496e76616c696420616363757261637960801b604482015260640161047b565b60008251116105555760405162461bcd60e51b8152602060048201526011602482015270496e76616c6964207369676e617475726560781b604482015260640161047b565b604080516bffffffffffffffffffffffff1960608a901b16602080830191909152603482018990526054820188905260748201879052609482018690524260b483018190524360d4808501919091528451808503909101815260f484018086528151918401919091206101f4850186526001600160a01b03808e1680845261011487018e815261013488018e815261015489018e81526101748a018e81526101948b0198895260016101b48c018181526101d4909c0188815260008981526002808e528f82209b518c546001600160a01b0319169a16999099178b5595518a83015593519689019690965590516003808901919091559051600488015596516005870155975160068601805460ff19169115159190911790559651600790940193909355828652928452858520805493840181558552928420909101829055925190929183917fadb79608cb1cd165fc2c3812b6b673a354f7c9e0a645e63f6182bdf86b3b15ff9190a3979650505050505050565b33600090815260046020908152604080832084845290915281205460ff16156107275760405162461bcd60e51b815260206004820152600f60248201526e105b1c9958591e4818db185a5b5959608a1b604482015260640161047b565b610731338361083d565b6107765760405162461bcd60e51b81526020600482015260166024820152751058da1a595d995b595b9d081b9bdd0819585c9b995960521b604482015260640161047b565b336000818152600460209081526040808320868452825291829020805460ff1916600117905590518481527f04844d30b922ffc2b845400eb2a15cdd62742176c723e09d7cc9703e83645e4b910160405180910390a2506001919050565b6000546001600160a01b0316331461081b5760405162461bcd60e51b815260206004820152600a60248201526927b7363c9030b236b4b760b11b604482015260640161047b565b600180546001600160a01b0319166001600160a01b0392909216919091179055565b6000600182101580156108515750600a8211155b6108965760405162461bcd60e51b8152602060048201526016602482015275125b9d985b1a59081858da1a595d995b595b9d08125160521b604482015260640161047b565b6001600160a01b0383166000908152600360209081526040808320805482518185028101850190935280835291929091908301828280156108f657602002820191906000526020600020905b8154815260200190600101908083116108e2575b505050505090508051600003610910576000915050610ba6565b60005b8151811015610b9f57600082828151811061093057610930610d9f565b6020908102919091018101516000818152600280845260409182902082516101008101845281546001600160a01b031681526001808301549682019690965291810154928201929092526003820154606082015260048201546080820152600582015460a0820152600682015460ff16151560c082015260079091015460e0820152909250908690036109dd57620186a08160200151106109d8576001945050505050610ba6565b610b8a565b856002036109fe5760328160400151106109d8576001945050505050610ba6565b85600303610a20576121348160600151106109d8576001945050505050610ba6565b85600403610a42576103848160800151106109d8576001945050505050610ba6565b85600503610a645761c3508160200151106109d8576001945050505050610ba6565b85600603610ab6576080810151156109d857600081608001518260400151603c610a8e9190610dcb565b610a989190610de2565b9050600a8110610ab057600195505050505050610ba6565b50610b8a565b85600703610ad85761251c8160600151106109d8576001945050505050610ba6565b85600803610afa576102588160800151106109d8576001945050505050610ba6565b85600903610b3057617530816020015110158015610b1e5750611f40816060015110155b156109d8576001945050505050610ba6565b85600a03610b8a57620186a0816020015110158015610b5457506032816040015110155b8015610b665750612328816060015110155b8015610b785750610258816080015110155b15610b8a576001945050505050610ba6565b50508080610b9790610e04565b915050610913565b5060009150505b92915050565b60036020528160005260406000208181548110610bc857600080fd5b90600052602060002001600091509150505481565b80356001600160a01b0381168114610bf457600080fd5b919050565b60008060408385031215610c0c57600080fd5b610c1583610bdd565b946020939093013593505050565b600060208284031215610c3557600080fd5b5035919050565b600060208284031215610c4e57600080fd5b610c5782610bdd565b9392505050565b6020808252825182820181905260009190848201906040850190845b81811015610c9657835183529284019291840191600101610c7a565b50909695505050505050565b634e487b7160e01b600052604160045260246000fd5b60008060008060008060c08789031215610cd157600080fd5b610cda87610bdd565b95506020870135945060408701359350606087013592506080870135915060a087013567ffffffffffffffff80821115610d1357600080fd5b818901915089601f830112610d2757600080fd5b813581811115610d3957610d39610ca2565b604051601f8201601f19908116603f01168101908382118183101715610d6157610d61610ca2565b816040528281528c6020848701011115610d7a57600080fd5b8260208601602083013760006020848301015280955050505050509295509295509295565b634e487b7160e01b600052603260045260246000fd5b634e487b7160e01b600052601160045260246000fd5b8082028115828204841417610ba657610ba6610db5565b600082610dff57634e487b7160e01b600052601260045260246000fd5b500490565b600060018201610e1657610e16610db5565b506001019056fea264697066735822122001189552354110b59604e420d955abb91a271dc56db4d63bdf2f3321c3024aa564736f6c63430008140033","opcodes":"PUSH1 0x80 PUSH1 0x40 MSTORE CALLVALUE DUP1 ISZERO PUSH2 0x10 JUMPI PUSH1 0x0 DUP1 REVERT JUMPDEST POP PUSH1 0x0 DUP1 SLOAD PUSH1 0x1 PUSH1 0x1 PUSH1 0xA0 SHL SUB NOT AND CALLER OR SWAP1 SSTORE PUSH2 0xE53 DUP1 PUSH2 0x32 PUSH1 0x0 CODECOPY PUSH1 0x0 RETURN INVALID PUSH1 0x80 PUSH1 0x40 MSTORE CALLVALUE DUP1 ISZERO PUSH2 0x10 JUMPI PUSH1 0x0 DUP1 REVERT JUMPDEST POP PUSH1 0x4 CALLDATASIZE LT PUSH2 0xA9 JUMPI PUSH1 0x0 CALLDATALOAD PUSH1 0xE0 SHR DUP1 PUSH4 0x6A8B2D0A GT PUSH2 0x71 JUMPI DUP1 PUSH4 0x6A8B2D0A EQ PUSH2 0x1D7 JUMPI DUP1 PUSH4 0x7DBD2832 EQ PUSH2 0x1EA JUMPI DUP1 PUSH4 0xB3BD6A27 EQ PUSH2 0x291 JUMPI DUP1 PUSH4 0xD16D1CA2 EQ PUSH2 0x2A6 JUMPI DUP1 PUSH4 0xD8838FE1 EQ PUSH2 0x2B9 JUMPI DUP1 PUSH4 0xF851A440 EQ PUSH2 0x2CC JUMPI PUSH1 0x0 DUP1 REVERT JUMPDEST DUP1 PUSH4 0x120B7D64 EQ PUSH2 0xAE JUMPI DUP1 PUSH4 0x29CD564C EQ PUSH2 0xF1 JUMPI DUP1 PUSH4 0x39B240BD EQ PUSH2 0x11C JUMPI DUP1 PUSH4 0x4FBFA459 EQ PUSH2 0x196 JUMPI DUP1 PUSH4 0x5AC3A862 EQ PUSH2 0x1B6 JUMPI JUMPDEST PUSH1 0x0 DUP1 REVERT JUMPDEST PUSH2 0xDC PUSH2 0xBC CALLDATASIZE PUSH1 0x4 PUSH2 0xBF9 JUMP JUMPDEST PUSH1 0x4 PUSH1 0x20 SWAP1 DUP2 MSTORE PUSH1 0x0 SWAP3 DUP4 MSTORE PUSH1 0x40 DUP1 DUP5 KECCAK256 SWAP1 SWAP2 MSTORE SWAP1 DUP3 MSTORE SWAP1 KECCAK256 SLOAD PUSH1 0xFF AND DUP2 JUMP JUMPDEST PUSH1 0x40 MLOAD SWAP1 ISZERO ISZERO DUP2 MSTORE PUSH1 0x20 ADD JUMPDEST PUSH1 0x40 MLOAD DUP1 SWAP2 SUB SWAP1 RETURN JUMPDEST PUSH1 0x1 SLOAD PUSH2 0x104 SWAP1 PUSH1 0x1 PUSH1 0x1 PUSH1 0xA0 SHL SUB AND DUP2 JUMP JUMPDEST PUSH1 0x40 MLOAD PUSH1 0x1 PUSH1 0x1 PUSH1 0xA0 SHL SUB SWAP1 SWAP2 AND DUP2 MSTORE PUSH1 0x20 ADD PUSH2 0xE8 JUMP JUMPDEST PUSH2 0x12F PUSH2 0x12A CALLDATASIZE PUSH1 0x4 PUSH2 0xC23 JUMP JUMPDEST PUSH2 0x2DF JUMP JUMPDEST PUSH1 0x40 MLOAD PUSH2 0xE8 SWAP2 SWAP1 DUP2 MLOAD PUSH1 0x1 PUSH1 0x1 PUSH1 0xA0 SHL SUB AND DUP2 MSTORE PUSH1 0x20 DUP1 DUP4 ADD MLOAD SWAP1 DUP3 ADD MSTORE PUSH1 0x40 DUP1 DUP4 ADD MLOAD SWAP1 DUP3 ADD MSTORE PUSH1 0x60 DUP1 DUP4 ADD MLOAD SWAP1 DUP3 ADD MSTORE PUSH1 0x80 DUP1 DUP4 ADD MLOAD SWAP1 DUP3 ADD MSTORE PUSH1 0xA0 DUP3 DUP2 ADD MLOAD SWAP1 DUP3 ADD MSTORE PUSH1 0xC0 DUP1 DUP4 ADD MLOAD ISZERO ISZERO SWAP1 DUP3 ADD MSTORE PUSH1 0xE0 SWAP2 DUP3 ADD MLOAD SWAP2 DUP2 ADD SWAP2 SWAP1 SWAP2 MSTORE PUSH2 0x100 ADD SWAP1 JUMP JUMPDEST PUSH2 0x1A9 PUSH2 0x1A4 CALLDATASIZE PUSH1 0x4 PUSH2 0xC3C JUMP JUMPDEST PUSH2 0x3AE JUMP JUMPDEST PUSH1 0x40 MLOAD PUSH2 0xE8 SWAP2 SWAP1 PUSH2 0xC5E JUMP JUMPDEST PUSH2 0x1C9 PUSH2 0x1C4 CALLDATASIZE PUSH1 0x4 PUSH2 0xCB8 JUMP JUMPDEST PUSH2 0x41A JUMP JUMPDEST PUSH1 0x40 MLOAD SWAP1 DUP2 MSTORE PUSH1 0x20 ADD PUSH2 0xE8 JUMP JUMPDEST PUSH2 0xDC PUSH2 0x1E5 CALLDATASIZE PUSH1 0x4 PUSH2 0xC23 JUMP JUMPDEST PUSH2 0x6CA JUMP JUMPDEST PUSH2 0x24A PUSH2 0x1F8 CALLDATASIZE PUSH1 0x4 PUSH2 0xC23 JUMP JUMPDEST PUSH1 0x2 PUSH1 0x20 DUP2 SWAP1 MSTORE PUSH1 0x0 SWAP2 DUP3 MSTORE PUSH1 0x40 SWAP1 SWAP2 KECCAK256 DUP1 SLOAD PUSH1 0x1 DUP3 ADD SLOAD SWAP3 DUP3 ADD SLOAD PUSH1 0x3 DUP4 ADD SLOAD PUSH1 0x4 DUP5 ADD SLOAD PUSH1 0x5 DUP6 ADD SLOAD PUSH1 0x6 DUP7 ADD SLOAD PUSH1 0x7 SWAP1 SWAP7 ADD SLOAD PUSH1 0x1 PUSH1 0x1 PUSH1 0xA0 SHL SUB SWAP1 SWAP6 AND SWAP7 SWAP6 SWAP4 SWAP5 SWAP3 SWAP4 SWAP2 SWAP3 SWAP1 SWAP2 PUSH1 0xFF AND SWAP1 DUP9 JUMP JUMPDEST PUSH1 0x40 DUP1 MLOAD PUSH1 0x1 PUSH1 0x1 PUSH1 0xA0 SHL SUB SWAP1 SWAP10 AND DUP10 MSTORE PUSH1 0x20 DUP10 ADD SWAP8 SWAP1 SWAP8 MSTORE SWAP6 DUP8 ADD SWAP5 SWAP1 SWAP5 MSTORE PUSH1 0x60 DUP7 ADD SWAP3 SWAP1 SWAP3 MSTORE PUSH1 0x80 DUP6 ADD MSTORE PUSH1 0xA0 DUP5 ADD MSTORE ISZERO ISZERO PUSH1 0xC0 DUP4 ADD MSTORE PUSH1 0xE0 DUP3 ADD MSTORE PUSH2 0x100 ADD PUSH2 0xE8 JUMP JUMPDEST PUSH2 0x2A4 PUSH2 0x29F CALLDATASIZE PUSH1 0x4 PUSH2 0xC3C JUMP JUMPDEST PUSH2 0x7D4 JUMP JUMPDEST STOP JUMPDEST PUSH2 0xDC PUSH2 0x2B4 CALLDATASIZE PUSH1 0x4 PUSH2 0xBF9 JUMP JUMPDEST PUSH2 0x83D JUMP JUMPDEST PUSH2 0x1C9 PUSH2 0x2C7 CALLDATASIZE PUSH1 0x4 PUSH2 0xBF9 JUMP JUMPDEST PUSH2 0xBAC JUMP JUMPDEST PUSH1 0x0 SLOAD PUSH2 0x104 SWAP1 PUSH1 0x1 PUSH1 0x1 PUSH1 0xA0 SHL SUB AND DUP2 JUMP JUMPDEST PUSH2 0x335 PUSH1 0x40 MLOAD DUP1 PUSH2 0x100 ADD PUSH1 0x40 MSTORE DUP1 PUSH1 0x0 PUSH1 0x1 PUSH1 0x1 PUSH1 0xA0 SHL SUB AND DUP2 MSTORE PUSH1 0x20 ADD PUSH1 0x0 DUP2 MSTORE PUSH1 0x20 ADD PUSH1 0x0 DUP2 MSTORE PUSH1 0x20 ADD PUSH1 0x0 DUP2 MSTORE PUSH1 0x20 ADD PUSH1 0x0 DUP2 MSTORE PUSH1 0x20 ADD PUSH1 0x0 DUP2 MSTORE PUSH1 0x20 ADD PUSH1 0x0 ISZERO ISZERO DUP2 MSTORE PUSH1 0x20 ADD PUSH1 0x0 DUP1 NOT AND DUP2 MSTORE POP SWAP1 JUMP JUMPDEST POP PUSH1 0x0 SWAP1 DUP2 MSTORE PUSH1 0x2 PUSH1 0x20 DUP2 DUP2 MSTORE PUSH1 0x40 SWAP3 DUP4 SWAP1 KECCAK256 DUP4 MLOAD PUSH2 0x100 DUP2 ADD DUP6 MSTORE DUP2 SLOAD PUSH1 0x1 PUSH1 0x1 PUSH1 0xA0 SHL SUB AND DUP2 MSTORE PUSH1 0x1 DUP3 ADD SLOAD SWAP3 DUP2 ADD SWAP3 SWAP1 SWAP3 MSTORE SWAP2 DUP3 ADD SLOAD SWAP3 DUP2 ADD SWAP3 SWAP1 SWAP3 MSTORE PUSH1 0x3 DUP2 ADD SLOAD PUSH1 0x60 DUP4 ADD MSTORE PUSH1 0x4 DUP2 ADD SLOAD PUSH1 0x80 DUP4 ADD MSTORE PUSH1 0x5 DUP2 ADD SLOAD PUSH1 0xA0 DUP4 ADD MSTORE PUSH1 0x6 DUP2 ADD SLOAD PUSH1 0xFF AND ISZERO ISZERO PUSH1 0xC0 DUP4 ADD MSTORE PUSH1 0x7 ADD SLOAD PUSH1 0xE0 DUP3 ADD MSTORE SWAP1 JUMP JUMPDEST PUSH1 0x1 PUSH1 0x1 PUSH1 0xA0 SHL SUB DUP2 AND PUSH1 0x0 SWAP1 DUP2 MSTORE PUSH1 0x3 PUSH1 0x20 SWAP1 DUP2 MSTORE PUSH1 0x40 SWAP2 DUP3 SWAP1 KECCAK256 DUP1 SLOAD DUP4 MLOAD DUP2 DUP5 MUL DUP2 ADD DUP5 ADD SWAP1 SWAP5 MSTORE DUP1 DUP5 MSTORE PUSH1 0x60 SWAP4 SWAP3 DUP4 ADD DUP3 DUP3 DUP1 ISZERO PUSH2 0x40E JUMPI PUSH1 0x20 MUL DUP3 ADD SWAP2 SWAP1 PUSH1 0x0 MSTORE PUSH1 0x20 PUSH1 0x0 KECCAK256 SWAP1 JUMPDEST DUP2 SLOAD DUP2 MSTORE PUSH1 0x20 ADD SWAP1 PUSH1 0x1 ADD SWAP1 DUP1 DUP4 GT PUSH2 0x3FA JUMPI JUMPDEST POP POP POP POP POP SWAP1 POP SWAP2 SWAP1 POP JUMP JUMPDEST PUSH1 0x1 SLOAD PUSH1 0x0 SWAP1 PUSH1 0x1 PUSH1 0x1 PUSH1 0xA0 SHL SUB AND CALLER EQ DUP1 PUSH2 0x440 JUMPI POP PUSH1 0x0 SLOAD PUSH1 0x1 PUSH1 0x1 PUSH1 0xA0 SHL SUB AND CALLER EQ JUMPDEST PUSH2 0x484 JUMPI PUSH1 0x40 MLOAD PUSH3 0x461BCD PUSH1 0xE5 SHL DUP2 MSTORE PUSH1 0x20 PUSH1 0x4 DUP3 ADD MSTORE PUSH1 0x10 PUSH1 0x24 DUP3 ADD MSTORE PUSH16 0x27B7363C9033B0B6B29039B2B93B32B9 PUSH1 0x81 SHL PUSH1 0x44 DUP3 ADD MSTORE PUSH1 0x64 ADD JUMPDEST PUSH1 0x40 MLOAD DUP1 SWAP2 SUB SWAP1 REVERT JUMPDEST PUSH1 0x1 PUSH1 0x1 PUSH1 0xA0 SHL SUB DUP8 AND PUSH2 0x4CB JUMPI PUSH1 0x40 MLOAD PUSH3 0x461BCD PUSH1 0xE5 SHL DUP2 MSTORE PUSH1 0x20 PUSH1 0x4 DUP3 ADD MSTORE PUSH1 0xE PUSH1 0x24 DUP3 ADD MSTORE PUSH14 0x24B73B30B634B210383630BCB2B9 PUSH1 0x91 SHL PUSH1 0x44 DUP3 ADD MSTORE PUSH1 0x64 ADD PUSH2 0x47B JUMP JUMPDEST PUSH2 0x2710 DUP5 GT ISZERO PUSH2 0x510 JUMPI PUSH1 0x40 MLOAD PUSH3 0x461BCD PUSH1 0xE5 SHL DUP2 MSTORE PUSH1 0x20 PUSH1 0x4 DUP3 ADD MSTORE PUSH1 0x10 PUSH1 0x24 DUP3 ADD MSTORE PUSH16 0x496E76616C6964206163637572616379 PUSH1 0x80 SHL PUSH1 0x44 DUP3 ADD MSTORE PUSH1 0x64 ADD PUSH2 0x47B JUMP JUMPDEST PUSH1 0x0 DUP3 MLOAD GT PUSH2 0x555 JUMPI PUSH1 0x40 MLOAD PUSH3 0x461BCD PUSH1 0xE5 SHL DUP2 MSTORE PUSH1 0x20 PUSH1 0x4 DUP3 ADD MSTORE PUSH1 0x11 PUSH1 0x24 DUP3 ADD MSTORE PUSH17 0x496E76616C6964207369676E6174757265 PUSH1 0x78 SHL PUSH1 0x44 DUP3 ADD MSTORE PUSH1 0x64 ADD PUSH2 0x47B JUMP JUMPDEST PUSH1 0x40 DUP1 MLOAD PUSH12 0xFFFFFFFFFFFFFFFFFFFFFFFF NOT PUSH1 0x60 DUP11 SWAP1 SHL AND PUSH1 0x20 DUP1 DUP4 ADD SWAP2 SWAP1 SWAP2 MSTORE PUSH1 0x34 DUP3 ADD DUP10 SWAP1 MSTORE PUSH1 0x54 DUP3 ADD DUP9 SWAP1 MSTORE PUSH1 0x74 DUP3 ADD DUP8 SWAP1 MSTORE PUSH1 0x94 DUP3 ADD DUP7 SWAP1 MSTORE TIMESTAMP PUSH1 0xB4 DUP4 ADD DUP2 SWAP1 MSTORE NUMBER PUSH1 0xD4 DUP1 DUP6 ADD SWAP2 SWAP1 SWAP2 MSTORE DUP5 MLOAD DUP1 DUP6 SUB SWAP1 SWAP2 ADD DUP2 MSTORE PUSH1 0xF4 DUP5 ADD DUP1 DUP7 MSTORE DUP2 MLOAD SWAP2 DUP5 ADD SWAP2 SWAP1 SWAP2 KECCAK256 PUSH2 0x1F4 DUP6 ADD DUP7 MSTORE PUSH1 0x1 PUSH1 0x1 PUSH1 0xA0 SHL SUB DUP1 DUP15 AND DUP1 DUP5 MSTORE PUSH2 0x114 DUP8 ADD DUP15 DUP2 MSTORE PUSH2 0x134 DUP9 ADD DUP15 DUP2 MSTORE PUSH2 0x154 DUP10 ADD DUP15 DUP2 MSTORE PUSH2 0x174 DUP11 ADD DUP15 DUP2 MSTORE PUSH2 0x194 DUP12 ADD SWAP9 DUP10 MSTORE PUSH1 0x1 PUSH2 0x1B4 DUP13 ADD DUP2 DUP2 MSTORE PUSH2 0x1D4 SWAP1 SWAP13 ADD DUP9 DUP2 MSTORE PUSH1 0x0 DUP10 DUP2 MSTORE PUSH1 0x2 DUP1 DUP15 MSTORE DUP16 DUP3 KECCAK256 SWAP12 MLOAD DUP13 SLOAD PUSH1 0x1 PUSH1 0x1 PUSH1 0xA0 SHL SUB NOT AND SWAP11 AND SWAP10 SWAP1 SWAP10 OR DUP12 SSTORE SWAP6 MLOAD DUP11 DUP4 ADD SSTORE SWAP4 MLOAD SWAP7 DUP10 ADD SWAP7 SWAP1 SWAP7 SSTORE SWAP1 MLOAD PUSH1 0x3 DUP1 DUP10 ADD SWAP2 SWAP1 SWAP2 SSTORE SWAP1 MLOAD PUSH1 0x4 DUP9 ADD SSTORE SWAP7 MLOAD PUSH1 0x5 DUP8 ADD SSTORE SWAP8 MLOAD PUSH1 0x6 DUP7 ADD DUP1 SLOAD PUSH1 0xFF NOT AND SWAP2 ISZERO ISZERO SWAP2 SWAP1 SWAP2 OR SWAP1 SSTORE SWAP7 MLOAD PUSH1 0x7 SWAP1 SWAP5 ADD SWAP4 SWAP1 SWAP4 SSTORE DUP3 DUP7 MSTORE SWAP3 DUP5 MSTORE DUP6 DUP6 KECCAK256 DUP1 SLOAD SWAP4 DUP5 ADD DUP2 SSTORE DUP6 MSTORE SWAP3 DUP5 KECCAK256 SWAP1 SWAP2 ADD DUP3 SWAP1 SSTORE SWAP3 MLOAD SWAP1 SWAP3 SWAP2 DUP4 SWAP2 PUSH32 0xADB79608CB1CD165FC2C3812B6B673A354F7C9E0A645E63F6182BDF86B3B15FF SWAP2 SWAP1 LOG3 SWAP8 SWAP7 POP POP POP POP POP POP POP JUMP JUMPDEST CALLER PUSH1 0x0 SWAP1 DUP2 MSTORE PUSH1 0x4 PUSH1 0x20 SWAP1 DUP2 MSTORE PUSH1 0x40 DUP1 DUP4 KECCAK256 DUP5 DUP5 MSTORE SWAP1 SWAP2 MSTORE DUP2 KECCAK256 SLOAD PUSH1 0xFF AND ISZERO PUSH2 0x727 JUMPI PUSH1 0x40 MLOAD PUSH3 0x461BCD PUSH1 0xE5 SHL DUP2 MSTORE PUSH1 0x20 PUSH1 0x4 DUP3 ADD MSTORE PUSH1 0xF PUSH1 0x24 DUP3 ADD MSTORE PUSH15 0x105B1C9958591E4818DB185A5B5959 PUSH1 0x8A SHL PUSH1 0x44 DUP3 ADD MSTORE PUSH1 0x64 ADD PUSH2 0x47B JUMP JUMPDEST PUSH2 0x731 CALLER DUP4 PUSH2 0x83D JUMP JUMPDEST PUSH2 0x776 JUMPI PUSH1 0x40 MLOAD PUSH3 0x461BCD PUSH1 0xE5 SHL DUP2 MSTORE PUSH1 0x20 PUSH1 0x4 DUP3 ADD MSTORE PUSH1 0x16 PUSH1 0x24 DUP3 ADD MSTORE PUSH22 0x1058DA1A595D995B595B9D081B9BDD0819585C9B9959 PUSH1 0x52 SHL PUSH1 0x44 DUP3 ADD MSTORE PUSH1 0x64 ADD PUSH2 0x47B JUMP JUMPDEST CALLER PUSH1 0x0 DUP2 DUP2 MSTORE PUSH1 0x4 PUSH1 0x20 SWAP1 DUP2 MSTORE PUSH1 0x40 DUP1 DUP4 KECCAK256 DUP7 DUP5 MSTORE DUP3 MSTORE SWAP2 DUP3 SWAP1 KECCAK256 DUP1 SLOAD PUSH1 0xFF NOT AND PUSH1 0x1 OR SWAP1 SSTORE SWAP1 MLOAD DUP5 DUP2 MSTORE PUSH32 0x4844D30B922FFC2B845400EB2A15CDD62742176C723E09D7CC9703E83645E4B SWAP2 ADD PUSH1 0x40 MLOAD DUP1 SWAP2 SUB SWAP1 LOG2 POP PUSH1 0x1 SWAP2 SWAP1 POP JUMP JUMPDEST PUSH1 0x0 SLOAD PUSH1 0x1 PUSH1 0x1 PUSH1 0xA0 SHL SUB AND CALLER EQ PUSH2 0x81B JUMPI PUSH1 0x40 MLOAD PUSH3 0x461BCD PUSH1 0xE5 SHL DUP2 MSTORE PUSH1 0x20 PUSH1 0x4 DUP3 ADD MSTORE PUSH1 0xA PUSH1 0x24 DUP3 ADD MSTORE PUSH10 0x27B7363C9030B236B4B7 PUSH1 0xB1 SHL PUSH1 0x44 DUP3 ADD MSTORE PUSH1 0x64 ADD PUSH2 0x47B JUMP JUMPDEST PUSH1 0x1 DUP1 SLOAD PUSH1 0x1 PUSH1 0x1 PUSH1 0xA0 SHL SUB NOT AND PUSH1 0x1 PUSH1 0x1 PUSH1 0xA0 SHL SUB SWAP3 SWAP1 SWAP3 AND SWAP2 SWAP1 SWAP2 OR SWAP1 SSTORE JUMP JUMPDEST PUSH1 0x0 PUSH1 0x1 DUP3 LT ISZERO DUP1 ISZERO PUSH2 0x851 JUMPI POP PUSH1 0xA DUP3 GT ISZERO JUMPDEST PUSH2 0x896 JUMPI PUSH1 0x40 MLOAD PUSH3 0x461BCD PUSH1 0xE5 SHL DUP2 MSTORE PUSH1 0x20 PUSH1 0x4 DUP3 ADD MSTORE PUSH1 0x16 PUSH1 0x24 DUP3 ADD MSTORE PUSH22 0x125B9D985B1A59081858DA1A595D995B595B9D081251 PUSH1 0x52 SHL PUSH1 0x44 DUP3 ADD MSTORE PUSH1 0x64 ADD PUSH2 0x47B JUMP JUMPDEST PUSH1 0x1 PUSH1 0x1 PUSH1 0xA0 SHL SUB DUP4 AND PUSH1 0x0 SWAP1 DUP2 MSTORE PUSH1 0x3 PUSH1 0x20 SWAP1 DUP2 MSTORE PUSH1 0x40 DUP1 DUP4 KECCAK256 DUP1 SLOAD DUP3 MLOAD DUP2 DUP6 MUL DUP2 ADD DUP6 ADD SWAP1 SWAP4 MSTORE DUP1 DUP4 MSTORE SWAP2 SWAP3 SWAP1 SWAP2 SWAP1 DUP4 ADD DUP3 DUP3 DUP1 ISZERO PUSH2 0x8F6 JUMPI PUSH1 0x20 MUL DUP3 ADD SWAP2 SWAP1 PUSH1 0x0 MSTORE PUSH1 0x20 PUSH1 0x0 KECCAK256 SWAP1 JUMPDEST DUP2 SLOAD DUP2 MSTORE PUSH1 0x20 ADD SWAP1 PUSH1 0x1 ADD SWAP1 DUP1 DUP4 GT PUSH2 0x8E2 JUMPI JUMPDEST POP POP POP POP POP SWAP1 POP DUP1 MLOAD PUSH1 0x0 SUB PUSH2 0x910 JUMPI PUSH1 0x0 SWAP2 POP POP PUSH2 0xBA6 JUMP JUMPDEST PUSH1 0x0 JUMPDEST DUP2 MLOAD DUP2 LT ISZERO PUSH2 0xB9F JUMPI PUSH1 0x0 DUP3 DUP3 DUP2 MLOAD DUP2 LT PUSH2 0x930 JUMPI PUSH2 0x930 PUSH2 0xD9F JUMP JUMPDEST PUSH1 0x20 SWAP1 DUP2 MUL SWAP2 SWAP1 SWAP2 ADD DUP2 ADD MLOAD PUSH1 0x0 DUP2 DUP2 MSTORE PUSH1 0x2 DUP1 DUP5 MSTORE PUSH1 0x40 SWAP2 DUP3 SWAP1 KECCAK256 DUP3 MLOAD PUSH2 0x100 DUP2 ADD DUP5 MSTORE DUP2 SLOAD PUSH1 0x1 PUSH1 0x1 PUSH1 0xA0 SHL SUB AND DUP2 MSTORE PUSH1 0x1 DUP1 DUP4 ADD SLOAD SWAP7 DUP3 ADD SWAP7 SWAP1 SWAP7 MSTORE SWAP2 DUP2 ADD SLOAD SWAP3 DUP3 ADD SWAP3 SWAP1 SWAP3 MSTORE PUSH1 0x3 DUP3 ADD SLOAD PUSH1 0x60 DUP3 ADD MSTORE PUSH1 0x4 DUP3 ADD SLOAD PUSH1 0x80 DUP3 ADD MSTORE PUSH1 0x5 DUP3 ADD SLOAD PUSH1 0xA0 DUP3 ADD MSTORE PUSH1 0x6 DUP3 ADD SLOAD PUSH1 0xFF AND ISZERO ISZERO PUSH1 0xC0 DUP3 ADD MSTORE PUSH1 0x7 SWAP1 SWAP2 ADD SLOAD PUSH1 0xE0 DUP3 ADD MSTORE SWAP1 SWAP3 POP SWAP1 DUP7 SWAP1 SUB PUSH2 0x9DD JUMPI PUSH3 0x186A0 DUP2 PUSH1 0x20 ADD MLOAD LT PUSH2 0x9D8 JUMPI PUSH1 0x1 SWAP5 POP POP POP POP POP PUSH2 0xBA6 JUMP JUMPDEST PUSH2 0xB8A JUMP JUMPDEST DUP6 PUSH1 0x2 SUB PUSH2 0x9FE JUMPI PUSH1 0x32 DUP2 PUSH1 0x40 ADD MLOAD LT PUSH2 0x9D8 JUMPI PUSH1 0x1 SWAP5 POP POP POP POP POP PUSH2 0xBA6 JUMP JUMPDEST DUP6 PUSH1 0x3 SUB PUSH2 0xA20 JUMPI PUSH2 0x2134 DUP2 PUSH1 0x60 ADD MLOAD LT PUSH2 0x9D8 JUMPI PUSH1 0x1 SWAP5 POP POP POP POP POP PUSH2 0xBA6 JUMP JUMPDEST DUP6 PUSH1 0x4 SUB PUSH2 0xA42 JUMPI PUSH2 0x384 DUP2 PUSH1 0x80 ADD MLOAD LT PUSH2 0x9D8 JUMPI PUSH1 0x1 SWAP5 POP POP POP POP POP PUSH2 0xBA6 JUMP JUMPDEST DUP6 PUSH1 0x5 SUB PUSH2 0xA64 JUMPI PUSH2 0xC350 DUP2 PUSH1 0x20 ADD MLOAD LT PUSH2 0x9D8 JUMPI PUSH1 0x1 SWAP5 POP POP POP POP POP PUSH2 0xBA6 JUMP JUMPDEST DUP6 PUSH1 0x6 SUB PUSH2 0xAB6 JUMPI PUSH1 0x80 DUP2 ADD MLOAD ISZERO PUSH2 0x9D8 JUMPI PUSH1 0x0 DUP2 PUSH1 0x80 ADD MLOAD DUP3 PUSH1 0x40 ADD MLOAD PUSH1 0x3C PUSH2 0xA8E SWAP2 SWAP1 PUSH2 0xDCB JUMP JUMPDEST PUSH2 0xA98 SWAP2 SWAP1 PUSH2 0xDE2 JUMP JUMPDEST SWAP1 POP PUSH1 0xA DUP2 LT PUSH2 0xAB0 JUMPI PUSH1 0x1 SWAP6 POP POP POP POP POP POP PUSH2 0xBA6 JUMP JUMPDEST POP PUSH2 0xB8A JUMP JUMPDEST DUP6 PUSH1 0x7 SUB PUSH2 0xAD8 JUMPI PUSH2 0x251C DUP2 PUSH1 0x60 ADD MLOAD LT PUSH2 0x9D8 JUMPI PUSH1 0x1 SWAP5 POP POP POP POP POP PUSH2 0xBA6 JUMP JUMPDEST DUP6 PUSH1 0x8 SUB PUSH2 0xAFA JUMPI PUSH2 0x258 DUP2 PUSH1 0x80 ADD MLOAD LT PUSH2 0x9D8 JUMPI PUSH1 0x1 SWAP5 POP POP POP POP POP PUSH2 0xBA6 JUMP JUMPDEST DUP6 PUSH1 0x9 SUB PUSH2 0xB30 JUMPI PUSH2 0x7530 DUP2 PUSH1 0x20 ADD MLOAD LT ISZERO DUP1 ISZERO PUSH2 0xB1E JUMPI POP PUSH2 0x1F40 DUP2 PUSH1 0x60 ADD MLOAD LT ISZERO JUMPDEST ISZERO PUSH2 0x9D8 JUMPI PUSH1 0x1 SWAP5 POP POP POP POP POP PUSH2 0xBA6 JUMP JUMPDEST DUP6 PUSH1 0xA SUB PUSH2 0xB8A JUMPI PUSH3 0x186A0 DUP2 PUSH1 0x20 ADD MLOAD LT ISZERO DUP1 ISZERO PUSH2 0xB54 JUMPI POP PUSH1 0x32 DUP2 PUSH1 0x40 ADD MLOAD LT ISZERO JUMPDEST DUP1 ISZERO PUSH2 0xB66 JUMPI POP PUSH2 0x2328 DUP2 PUSH1 0x60 ADD MLOAD LT ISZERO JUMPDEST DUP1 ISZERO PUSH2 0xB78 JUMPI POP PUSH2 0x258 DUP2 PUSH1 0x80 ADD MLOAD LT ISZERO JUMPDEST ISZERO PUSH2 0xB8A JUMPI PUSH1 0x1 SWAP5 POP POP POP POP POP PUSH2 0xBA6 JUMP JUMPDEST POP POP DUP1 DUP1 PUSH2 0xB97 SWAP1 PUSH2 0xE04 JUMP JUMPDEST SWAP2 POP POP PUSH2 0x913 JUMP JUMPDEST POP PUSH1 0x0 SWAP2 POP POP JUMPDEST SWAP3 SWAP2 POP POP JUMP JUMPDEST PUSH1 0x3 PUSH1 0x20 MSTORE DUP2 PUSH1 0x0 MSTORE PUSH1 0x40 PUSH1 0x0 KECCAK256 DUP2 DUP2 SLOAD DUP2 LT PUSH2 0xBC8 JUMPI PUSH1 0x0 DUP1 REVERT JUMPDEST SWAP1 PUSH1 0x0 MSTORE PUSH1 0x20 PUSH1 0x0 KECCAK256 ADD PUSH1 0x0 SWAP2 POP SWAP2 POP POP SLOAD DUP2 JUMP JUMPDEST DUP1 CALLDATALOAD PUSH1 0x1 PUSH1 0x1 PUSH1 0xA0 SHL SUB DUP2 AND DUP2 EQ PUSH2 0xBF4 JUMPI PUSH1 0x0 DUP1 REVERT JUMPDEST SWAP2 SWAP1 POP JUMP JUMPDEST PUSH1 0x0 DUP1 PUSH1 0x40 DUP4 DUP6 SUB SLT ISZERO PUSH2 0xC0C JUMPI PUSH1 0x0 DUP1 REVERT JUMPDEST PUSH2 0xC15 DUP4 PUSH2 0xBDD JUMP JUMPDEST SWAP5 PUSH1 0x20 SWAP4 SWAP1 SWAP4 ADD CALLDATALOAD SWAP4 POP POP POP JUMP JUMPDEST PUSH1 0x0 PUSH1 0x20 DUP3 DUP5 SUB SLT ISZERO PUSH2 0xC35 JUMPI PUSH1 0x0 DUP1 REVERT JUMPDEST POP CALLDATALOAD SWAP2 SWAP1 POP JUMP JUMPDEST PUSH1 0x0 PUSH1 0x20 DUP3 DUP5 SUB SLT ISZERO PUSH2 0xC4E JUMPI PUSH1 0x0 DUP1 REVERT JUMPDEST PUSH2 0xC57 DUP3 PUSH2 0xBDD JUMP JUMPDEST SWAP4 SWAP3 POP POP POP JUMP JUMPDEST PUSH1 0x20 DUP1 DUP3 MSTORE DUP3 MLOAD DUP3 DUP3 ADD DUP2 SWAP1 MSTORE PUSH1 0x0 SWAP2 SWAP1 DUP5 DUP3 ADD SWAP1 PUSH1 0x40 DUP6 ADD SWAP1 DUP5 JUMPDEST DUP2 DUP2 LT ISZERO PUSH2 0xC96 JUMPI DUP4 MLOAD DUP4 MSTORE SWAP3 DUP5 ADD SWAP3 SWAP2 DUP5 ADD SWAP2 PUSH1 0x1 ADD PUSH2 0xC7A JUMP JUMPDEST POP SWAP1 SWAP7 SWAP6 POP POP POP POP POP POP JUMP JUMPDEST PUSH4 0x4E487B71 PUSH1 0xE0 SHL PUSH1 0x0 MSTORE PUSH1 0x41 PUSH1 0x4 MSTORE PUSH1 0x24 PUSH1 0x0 REVERT JUMPDEST PUSH1 0x0 DUP1 PUSH1 0x0 DUP1 PUSH1 0x0 DUP1 PUSH1 0xC0 DUP8 DUP10 SUB SLT ISZERO PUSH2 0xCD1 JUMPI PUSH1 0x0 DUP1 REVERT JUMPDEST PUSH2 0xCDA DUP8 PUSH2 0xBDD JUMP JUMPDEST SWAP6 POP PUSH1 0x20 DUP8 ADD CALLDATALOAD SWAP5 POP PUSH1 0x40 DUP8 ADD CALLDATALOAD SWAP4 POP PUSH1 0x60 DUP8 ADD CALLDATALOAD SWAP3 POP PUSH1 0x80 DUP8 ADD CALLDATALOAD SWAP2 POP PUSH1 0xA0 DUP8 ADD CALLDATALOAD PUSH8 0xFFFFFFFFFFFFFFFF DUP1 DUP3 GT ISZERO PUSH2 0xD13 JUMPI PUSH1 0x0 DUP1 REVERT JUMPDEST DUP2 DUP10 ADD SWAP2 POP DUP10 PUSH1 0x1F DUP4 ADD SLT PUSH2 0xD27 JUMPI PUSH1 0x0 DUP1 REVERT JUMPDEST DUP2 CALLDATALOAD DUP2 DUP2 GT ISZERO PUSH2 0xD39 JUMPI PUSH2 0xD39 PUSH2 0xCA2 JUMP JUMPDEST PUSH1 0x40 MLOAD PUSH1 0x1F DUP3 ADD PUSH1 0x1F NOT SWAP1 DUP2 AND PUSH1 0x3F ADD AND DUP2 ADD SWAP1 DUP4 DUP3 GT DUP2 DUP4 LT OR ISZERO PUSH2 0xD61 JUMPI PUSH2 0xD61 PUSH2 0xCA2 JUMP JUMPDEST DUP2 PUSH1 0x40 MSTORE DUP3 DUP2 MSTORE DUP13 PUSH1 0x20 DUP5 DUP8 ADD ADD GT ISZERO PUSH2 0xD7A JUMPI PUSH1 0x0 DUP1 REVERT JUMPDEST DUP3 PUSH1 0x20 DUP7 ADD PUSH1 0x20 DUP4 ADD CALLDATACOPY PUSH1 0x0 PUSH1 0x20 DUP5 DUP4 ADD ADD MSTORE DUP1 SWAP6 POP POP POP POP POP POP SWAP3 SWAP6 POP SWAP3 SWAP6 POP SWAP3 SWAP6 JUMP JUMPDEST PUSH4 0x4E487B71 PUSH1 0xE0 SHL PUSH1 0x0 MSTORE PUSH1 0x32 PUSH1 0x4 MSTORE PUSH1 0x24 PUSH1 0x0 REVERT JUMPDEST PUSH4 0x4E487B71 PUSH1 0xE0 SHL PUSH1 0x0 MSTORE PUSH1 0x11 PUSH1 0x4 MSTORE PUSH1 0x24 PUSH1 0x0 REVERT JUMPDEST DUP1 DUP3 MUL DUP2 ISZERO DUP3 DUP3 DIV DUP5 EQ OR PUSH2 0xBA6 JUMPI PUSH2 0xBA6 PUSH2 0xDB5 JUMP JUMPDEST PUSH1 0x0 DUP3 PUSH2 0xDFF JUMPI PUSH4 0x4E487B71 PUSH1 0xE0 SHL PUSH1 0x0 MSTORE PUSH1 0x12 PUSH1 0x4 MSTORE PUSH1 0x24 PUSH1 0x0 REVERT JUMPDEST POP DIV SWAP1 JUMP JUMPDEST PUSH1 0x0 PUSH1 0x1 DUP3 ADD PUSH2 0xE16 JUMPI PUSH2 0xE16 PUSH2 0xDB5 JUMP JUMPDEST POP PUSH1 0x1 ADD SWAP1 JUMP INVALID LOG2 PUSH5 0x6970667358 0x22 SLT KECCAK256 ADD XOR SWAP6 MSTORE CALLDATALOAD COINBASE LT 0xB5 SWAP7 DIV 0xE4 KECCAK256 0xD9 SSTORE 0xAB 0xB9 BYTE 0x27 SAR 0xC5 PUSH14 0xB4D63BDF2F3321C3024AA564736F PUSH13 0x63430008140033000000000000 "},"methodIdentifiers":{"achievementClaimed(address,uint256)":"120b7d64","admin()":"f851a440","checkAchievement(address,uint256)":"d16d1ca2","claimAchievement(uint256)":"6a8b2d0a","gameServer()":"29cd564c","getPlayerSessions(address)":"4fbfa459","getSession(bytes32)":"39b240bd","playerSessions(address,uint256)":"d8838fe1","sessions(bytes32)":"7dbd2832","setGameServer(address)":"b3bd6a27","verifySession(address,uint256,uint256,uint256,uint256,bytes)":"5ac3a862"}}}}}