{
  "_format": "hh-sol-artifact-1",
  "contractName": "NFTCollection",
  "sourceName": "contracts/NFTCollection.sol",
  "abi": [
    {
      "inputs": [],
      "stateMutability": "nonpayable",
      "type": "constructor"
    },
    {
      "anonymous": false,
      "inputs": [
        {
          "indexed": true,
          "internalType": "uint256",
          "name": "achievementId",
          "type": "uint256"
        },
        {
          "indexed": false,
          "internalType": "string",
          "name": "name",
          "type": "string"
        }
      ],
      "name": "AchievementCreated",
      "type": "event"
    },
    {
      "anonymous": false,
      "inputs": [
        {
          "indexed": true,
          "internalType": "uint256",
          "name": "tokenId",
          "type": "uint256"
        },
        {
          "indexed": true,
          "internalType": "address",
          "name": "owner",
          "type": "address"
        },
        {
          "indexed": false,
          "internalType": "uint256",
          "name": "achievementId",
          "type": "uint256"
        }
      ],
      "name": "NFTMinted",
      "type": "event"
    },
    {
      "anonymous": false,
      "inputs": [
        {
          "indexed": true,
          "internalType": "uint256",
          "name": "tokenId",
          "type": "uint256"
        },
        {
          "indexed": true,
          "internalType": "address",
          "name": "from",
          "type": "address"
        },
        {
          "indexed": true,
          "internalType": "address",
          "name": "to",
          "type": "address"
        }
      ],
      "name": "NFTTransferred",
      "type": "event"
    },
    {
      "inputs": [
        {
          "internalType": "uint256",
          "name": "",
          "type": "uint256"
        }
      ],
      "name": "achievements",
      "outputs": [
        {
          "internalType": "uint256",
          "name": "id",
          "type": "uint256"
        },
        {
          "internalType": "string",
          "name": "name",
          "type": "string"
        },
        {
          "internalType": "string",
          "name": "description",
          "type": "string"
        },
        {
          "internalType": "string",
          "name": "rarity",
          "type": "string"
        },
        {
          "internalType": "uint256",
          "name": "requirement",
          "type": "uint256"
        },
        {
          "internalType": "string",
          "name": "achievementType",
          "type": "string"
        }
      ],
      "stateMutability": "view",
      "type": "function"
    },
    {
      "inputs": [],
      "name": "admin",
      "outputs": [
        {
          "internalType": "address",
          "name": "",
          "type": "address"
        }
      ],
      "stateMutability": "view",
      "type": "function"
    },
    {
      "inputs": [
        {
          "internalType": "uint256",
          "name": "achievementId",
          "type": "uint256"
        }
      ],
      "name": "getAchievement",
      "outputs": [
        {
          "components": [
            {
              "internalType": "uint256",
              "name": "id",
              "type": "uint256"
            },
            {
              "internalType": "string",
              "name": "name",
              "type": "string"
            },
            {
              "internalType": "string",
              "name": "description",
              "type": "string"
            },
            {
              "internalType": "string",
              "name": "rarity",
              "type": "string"
            },
            {
              "internalType": "uint256",
              "name": "requirement",
              "type": "uint256"
            },
            {
              "internalType": "string",
              "name": "achievementType",
              "type": "string"
            }
          ],
          "internalType": "struct NFTCollection.Achievement",
          "name": "",
          "type": "tuple"
        }
      ],
      "stateMutability": "view",
      "type": "function"
    },
    {
      "inputs": [
        {
          "internalType": "uint256",
          "name": "tokenId",
          "type": "uint256"
        }
      ],
      "name": "getNFT",
      "outputs": [
        {
          "internalType": "uint256",
          "name": "id",
          "type": "uint256"
        },
        {
          "internalType": "uint256",
          "name": "achievementId",
          "type": "uint256"
        },
        {
          "internalType": "address",
          "name": "ownerAddr",
          "type": "address"
        },
        {
          "internalType": "string",
          "name": "metadataURI",
          "type": "string"
        },
        {
          "internalType": "uint256",
          "name": "mintedAt",
          "type": "uint256"
        },
        {
          "internalType": "bool",
          "name": "exists",
          "type": "bool"
        }
      ],
      "stateMutability": "view",
      "type": "function"
    },
    {
      "inputs": [
        {
          "internalType": "address",
          "name": "ownerAddr",
          "type": "address"
        }
      ],
      "name": "getOwnerTokens",
      "outputs": [
        {
          "internalType": "uint256[]",
          "name": "",
          "type": "uint256[]"
        }
      ],
      "stateMutability": "view",
      "type": "function"
    },
    {
      "inputs": [
        {
          "internalType": "address",
          "name": "",
          "type": "address"
        },
        {
          "internalType": "uint256",
          "name": "",
          "type": "uint256"
        }
      ],
      "name": "hasEarnedAchievement",
      "outputs": [
        {
          "internalType": "bool",
          "name": "",
          "type": "bool"
        }
      ],
      "stateMutability": "view",
      "type": "function"
    },
    {
      "inputs": [
        {
          "internalType": "address",
          "name": "player",
          "type": "address"
        },
        {
          "internalType": "uint256",
          "name": "achievementId",
          "type": "uint256"
        },
        {
          "internalType": "string",
          "name": "metadataURI",
          "type": "string"
        },
        {
          "internalType": "bytes",
          "name": "signature",
          "type": "bytes"
        }
      ],
      "name": "mintNFT",
      "outputs": [
        {
          "internalType": "uint256",
          "name": "",
          "type": "uint256"
        }
      ],
      "stateMutability": "nonpayable",
      "type": "function"
    },
    {
      "inputs": [],
      "name": "nextTokenId",
      "outputs": [
        {
          "internalType": "uint256",
          "name": "",
          "type": "uint256"
        }
      ],
      "stateMutability": "view",
      "type": "function"
    },
    {
      "inputs": [
        {
          "internalType": "uint256",
          "name": "",
          "type": "uint256"
        }
      ],
      "name": "nfts",
      "outputs": [
        {
          "internalType": "uint256",
          "name": "tokenId",
          "type": "uint256"
        },
        {
          "internalType": "uint256",
          "name": "achievementId",
          "type": "uint256"
        },
        {
          "internalType": "address",
          "name": "owner",
          "type": "address"
        },
        {
          "internalType": "string",
          "name": "metadataURI",
          "type": "string"
        },
        {
          "internalType": "uint256",
          "name": "mintedAt",
          "type": "uint256"
        },
        {
          "internalType": "bool",
          "name": "exists",
          "type": "bool"
        }
      ],
      "stateMutability": "view",
      "type": "function"
    },
    {
      "inputs": [
        {
          "internalType": "address",
          "name": "",
          "type": "address"
        },
        {
          "internalType": "uint256",
          "name": "",
          "type": "uint256"
        }
      ],
      "name": "ownerTokens",
      "outputs": [
        {
          "internalType": "uint256",
          "name": "",
          "type": "uint256"
        }
      ],
      "stateMutability": "view",
      "type": "function"
    },
    {
      "inputs": [],
      "name": "royaltyPercentage",
      "outputs": [
        {
          "internalType": "uint256",
          "name": "",
          "type": "uint256"
        }
      ],
      "stateMutability": "view",
      "type": "function"
    },
    {
      "inputs": [
        {
          "internalType": "uint256",
          "name": "percentage",
          "type": "uint256"
        }
      ],
      "name": "setRoyaltyPercentage",
      "outputs": [],
      "stateMutability": "nonpayable",
      "type": "function"
    },
    {
      "inputs": [
        {
          "internalType": "uint256",
          "name": "tokenId",
          "type": "uint256"
        },
        {
          "internalType": "address",
          "name": "to",
          "type": "address"
        }
      ],
      "name": "transferNFT",
      "outputs": [],
      "stateMutability": "nonpayable",
      "type": "function"
    }
  ],
  "bytecode": "0x608060405260056002553480156200001657600080fd5b50600080546001600160a01b0319163317905560018055620000376200003d565b62000fae565b6040518060c00160405280600181526020016040518060400160405280601281526020017123b0b630b1ba34b19021b7b6b6b0b73232b960711b81525081526020016040518060600160405280602181526020016200255a60219139815260408051808201825260098152684c6567656e6461727960b81b60208281019190915280840191909152620186a082840152815180830190925260058083526473636f726560d81b83830152606090930191909152600160005290815281517f1471eb6eb2c5e789fc3de43f8ce62938c7d1836ec861730447e2ada8fd81017b908155908201517f1471eb6eb2c5e789fc3de43f8ce62938c7d1836ec861730447e2ada8fd81017c9062000150908262000ee2565b506040820151600282019062000167908262000ee2565b50606082015160038201906200017e908262000ee2565b506080820151600482015560a082015160058201906200019f908262000ee2565b50506040805160c081018252600280825282518084018452601181527029ba32b63630b9102232b9ba3937bcb2b960791b60208281019190915280840191825284518086018652601d81527f4869676865737420746f74616c206e756d626572206f66206b696c6c7300000081830152848601528451808601865260098152684c6567656e6461727960b81b8183015260608501526032608085015284518086019095526005808652646b696c6c7360d81b8683015260a085019590955260009290925292905280517f89832631fb3c3307a103ba2c84ab569c64d6182a18893dcd163f0f1c2090733a90815591519092507f89832631fb3c3307a103ba2c84ab569c64d6182a18893dcd163f0f1c2090733b90620002bf908262000ee2565b5060408201516002820190620002d6908262000ee2565b5060608201516003820190620002ed908262000ee2565b506080820151600482015560a082015160058201906200030e908262000ee2565b50506040805160c081018252600380825282518084018452600e81526d50686f746f6e696320426c61646560901b60208281019190915280840191825284518086018652601481527f42657374206163637572616379203e3d2038352500000000000000000000000081830152848601528451808601865260048152634570696360e01b8183015260608501526055608085015284518086019095526008855267616363757261637960c01b8582015260a0840194909452600091909152600590925280517fa9bc9a3a348c357ba16b37005d7e6b3236198c0e939f4af8c5f19b8deeb8ebc090815591519092507fa9bc9a3a348c357ba16b37005d7e6b3236198c0e939f4af8c5f19b8deeb8ebc1906200042a908262000ee2565b506040820151600282019062000441908262000ee2565b506060820151600382019062000458908262000ee2565b506080820151600482015560a0820151600582019062000479908262000ee2565b50506040805160c081018252600480825282518084018452600b81526a2a34b6b29026b0b9ba32b960a91b60208281019190915280840191825284518086018652601981527f4c6f6e6765737420737572766976616c206475726174696f6e00000000000000818301528486015284518086018652838152634570696360e01b818301526060850152610384608085015284518086019095528285526374696d6560e01b8582015260a0840194909452600091909152600590925280517f3eec716f11ba9e820c81ca75eb978ffb45831ef8b7a53e5e422c26008e1ca6d590815591519092507f3eec716f11ba9e820c81ca75eb978ffb45831ef8b7a53e5e422c26008e1ca6d6906200058d908262000ee2565b5060408201516002820190620005a4908262000ee2565b5060608201516003820190620005bb908262000ee2565b506080820151600482015560a08201516005820190620005dc908262000ee2565b50506040805160c081018252600580825282518084018452600d81526c29ba30b91021b430b6b834b7b760991b60208281019190915280840191825284518086018652601e81527f53636f72652061626f766520393025206f66206265737420706c61796572000081830152848601528451808601865260048152634570696360e01b81830152606085015261c350608085015284518086019095528285526473636f726560d81b8582015260a08401949094526000829052925280517f458b30c2d72bfd2c6317304a4594ecbafe5f729d3111b65fdc3a33bd48e5432d90815591519092507f458b30c2d72bfd2c6317304a4594ecbafe5f729d3111b65fdc3a33bd48e5432e90620006f0908262000ee2565b506040820151600282019062000707908262000ee2565b50606082015160038201906200071e908262000ee2565b506080820151600482015560a082015160058201906200073f908262000ee2565b50506040805160c081018252600680825282518084018452600b81526a536f6c617220466c616d6560a81b60208281019190915280840191825284518086018652601a81527f48696768657374206b696c6c732f6d696e75746520726174696f00000000000081830152848601528451808601865260048152635261726560e01b818301526060850152600a608085015284518086019095526005808652646b696c6c7360d81b8683015260a085019590955260009290925292905280517f069400f22b28c6c362558d92f66163cec5671cba50b61abd2eecfcd0eaeac51890815591519092507f069400f22b28c6c362558d92f66163cec5671cba50b61abd2eecfcd0eaeac5199062000854908262000ee2565b50604082015160028201906200086b908262000ee2565b506060820151600382019062000882908262000ee2565b506080820151600482015560a08201516005820190620008a3908262000ee2565b50506040805160c081018252600780825282518084018452600e81526d27b93134ba30b61029b734b832b960911b60208281019190915280840191825284518086018652601d81527f507265636973696f6e203e20393525206f7665722035302073686f747300000081830152848601528451808601865260048152634570696360e01b818301526060850152605f608085015284518086019095526008855267616363757261637960c01b8582015260a0840194909452600091909152600590925280517feddb6698d7c569ff62ff64f1f1492bf14a54594835ba0faac91f84b4f5d8146090815591519092507feddb6698d7c569ff62ff64f1f1492bf14a54594835ba0faac91f84b4f5d8146190620009bf908262000ee2565b5060408201516002820190620009d6908262000ee2565b5060608201516003820190620009ed908262000ee2565b506080820151600482015560a0820151600582019062000a0e908262000ee2565b50506040805160c081018252600880825282518084018452600d81526c2b37b4b21029bab93b34bb37b960991b60208281019190915280840191825284518086018652601f81527f537572766976616c203e203130206d696e20776974686f7574206465617468008183015284860152845180860186526004808252635261726560e01b8284015260608601919091526102586080860152855180870190965285526374696d6560e01b8582015260a0840194909452600091909152600590925280517ffb33122aa9f93cc639ebe80a7bc4784c11e6053dde89c6f4f7e268c6a623da1e90815591519092507ffb33122aa9f93cc639ebe80a7bc4784c11e6053dde89c6f4f7e268c6a623da1f9062000b28908262000ee2565b506040820151600282019062000b3f908262000ee2565b506060820151600382019062000b56908262000ee2565b506080820151600482015560a0820151600582019062000b77908262000ee2565b50506040805160c081018252600980825282518084018452600f81526e5374656c6c61722050726f6469677960881b60208281019190915280840191825284518086018652601c81527f486967682073636f7265202b20707265636973696f6e203e203830250000000081830152848601528451808601865260048152634570696360e01b81830152606085015261753060808501528451808601909552600580865264636f6d626f60d81b8683015260a085019590955260009290925292905280517fc0a4a8be475dfebc377ebef2d7c4ff47656f572a08dd92b81017efcdba0febe190815591519092507fc0a4a8be475dfebc377ebef2d7c4ff47656f572a08dd92b81017efcdba0febe29062000c91908262000ee2565b506040820151600282019062000ca8908262000ee2565b506060820151600382019062000cbf908262000ee2565b506080820151600482015560a0820151600582019062000ce0908262000ee2565b50506040805160c081018252600a80825282518084018452600b81526a149a5b99c8131959d95b9960aa1b60208281019190915280840191825284518086018652601081526f4d617374657220616c6c20737461747360801b81830152848601528451808601865260068152654d797468696360d01b818301526060850152600160808501528451808601909552600580865264636f6d626f60d81b8683015260a085019590955260009290925292905280517fa18b128af1c8fc61ff46f02d146e54546f34d340574cf2cef6a753cba6b6701d90815591519092507fa18b128af1c8fc61ff46f02d146e54546f34d340574cf2cef6a753cba6b6701e9062000dea908262000ee2565b506040820151600282019062000e01908262000ee2565b506060820151600382019062000e18908262000ee2565b506080820151600482015560a0820151600582019062000e39908262000ee2565b505050565b634e487b7160e01b600052604160045260246000fd5b600181811c9082168062000e6957607f821691505b60208210810362000e8a57634e487b7160e01b600052602260045260246000fd5b50919050565b601f82111562000e3957600081815260208120601f850160051c8101602086101562000eb95750805b601f850160051c820191505b8181101562000eda5782815560010162000ec5565b505050505050565b81516001600160401b0381111562000efe5762000efe62000e3e565b62000f168162000f0f845462000e54565b8462000e90565b602080601f83116001811462000f4e576000841562000f355750858301515b600019600386901b1c1916600185901b17855562000eda565b600085815260208120601f198616915b8281101562000f7f5788860151825594840194600190910190840162000f5e565b508582101562000f9e5787850151600019600388901b60f8161c191681555b5050505050600190811b01905550565b61159c8062000fbe6000396000f3fe608060405234801561001057600080fd5b50600436106100cf5760003560e01c80638a71bb2d1161008c578063d63d4af011610066578063d63d4af0146101a8578063e500f31c146101c8578063f2ccc54314610206578063f851a4401461022657600080fd5b80638a71bb2d146101795780639036c05014610182578063cf20e93a1461019557600080fd5b8063265aa621146100d457806327aed72e1461010257806328b6003114610127578063576f7ea71461014857806361ba27da1461015b57806375794a3c14610170575b600080fd5b6100e76100e2366004610ffe565b610251565b6040516100f99695949392919061105d565b60405180910390f35b610115610110366004610ffe565b61031f565b6040516100f9969594939291906110a4565b61013a610135366004611126565b610574565b6040519081526020016100f9565b6100e7610156366004610ffe565b6105a5565b61016e610169366004610ffe565b61072f565b005b61013a60015481565b61013a60025481565b61016e610190366004611150565b6107cd565b61013a6101a3366004611208565b61095f565b6101bb6101b63660046112b1565b610c04565b6040516100f991906112d3565b6101f66101d6366004611126565b600660209081526000928352604080842090915290825290205460ff1681565b60405190151581526020016100f9565b610219610214366004610ffe565b610c70565b6040516100f99190611317565b600054610239906001600160a01b031681565b6040516001600160a01b0390911681526020016100f9565b60036020819052600091825260409091208054600182015460028301549383018054929491936001600160a01b039092169261028c906113a9565b80601f01602080910402602001604051908101604052809291908181526020018280546102b8906113a9565b80156103055780601f106102da57610100808354040283529160200191610305565b820191906000526020600020905b8154815290600101906020018083116102e857829003601f168201915b50505050600483015460059093015491929160ff16905086565b60056020526000908152604090208054600182018054919291610341906113a9565b80601f016020809104026020016040519081016040528092919081815260200182805461036d906113a9565b80156103ba5780601f1061038f576101008083540402835291602001916103ba565b820191906000526020600020905b81548152906001019060200180831161039d57829003601f168201915b5050505050908060020180546103cf906113a9565b80601f01602080910402602001604051908101604052809291908181526020018280546103fb906113a9565b80156104485780601f1061041d57610100808354040283529160200191610448565b820191906000526020600020905b81548152906001019060200180831161042b57829003601f168201915b50505050509080600301805461045d906113a9565b80601f0160208091040260200160405190810160405280929190818152602001828054610489906113a9565b80156104d65780601f106104ab576101008083540402835291602001916104d6565b820191906000526020600020905b8154815290600101906020018083116104b957829003601f168201915b5050505050908060040154908060050180546104f1906113a9565b80601f016020809104026020016040519081016040528092919081815260200182805461051d906113a9565b801561056a5780601f1061053f5761010080835404028352916020019161056a565b820191906000526020600020905b81548152906001019060200180831161054d57829003601f168201915b5050505050905086565b6004602052816000526040600020818154811061059057600080fd5b90600052602060002001600091509150505481565b600081815260036020526040812060050154819081906060908290819060ff1661060b5760405162461bcd60e51b815260206004820152601260248201527113919508191bd95cc81b9bdd08195e1a5cdd60721b60448201526064015b60405180910390fd5b6000878152600360208181526040808420815160c0810183528154815260018201549381019390935260028101546001600160a01b0316918301919091529182018054919291606084019190610660906113a9565b80601f016020809104026020016040519081016040528092919081815260200182805461068c906113a9565b80156106d95780601f106106ae576101008083540402835291602001916106d9565b820191906000526020600020905b8154815290600101906020018083116106bc57829003601f168201915b5050509183525050600482015460208083019190915260059092015460ff161515604091820152825191830151908301516060840151608085015160a090950151939d929c50909a509850919650945092505050565b6000546001600160a01b031633146107845760405162461bcd60e51b81526020600482015260186024820152774f6e6c792061646d696e2063616e2063616c6c207468697360401b6044820152606401610602565b600a8111156107c85760405162461bcd60e51b815260206004820152601060248201526f0a4def2c2d8e8f240e8dede40d0d2ced60831b6044820152606401610602565b600255565b60008281526003602052604090206002015482906001600160a01b031633146108285760405162461bcd60e51b815260206004820152600d60248201526c2737ba103a34329037bbb732b960991b6044820152606401610602565b60008381526003602052604090206005015460ff1661087e5760405162461bcd60e51b815260206004820152601260248201527113919508191bd95cc81b9bdd08195e1a5cdd60721b6044820152606401610602565b6001600160a01b0382166108c65760405162461bcd60e51b815260206004820152600f60248201526e496e76616c6964206164647265737360881b6044820152606401610602565b600083815260036020526040902060020180546001600160a01b038481166001600160a01b0319831617909255166108fe8185610f2a565b6001600160a01b038084166000818152600460209081526040808320805460018101825590845291832090910188905551919284169187917f67043fac5fd2bf9edbb46ee495aaed7f97f91d43507d373be2b592af19b8c0a891a450505050565b600080546001600160a01b031633146109b55760405162461bcd60e51b81526020600482015260186024820152774f6e6c792061646d696e2063616e2063616c6c207468697360401b6044820152606401610602565b600184101580156109c75750600a8411155b610a095760405162461bcd60e51b8152602060048201526013602482015272125b9d985b1a59081858da1a595d995b595b9d606a1b6044820152606401610602565b6001600160a01b038516600090815260066020908152604080832087845290915290205460ff1615610a6e5760405162461bcd60e51b815260206004820152600e60248201526d105b1c9958591e4819585c9b995960921b6044820152606401610602565b6000825111610ab35760405162461bcd60e51b8152602060048201526011602482015270496e76616c6964207369676e617475726560781b6044820152606401610602565b600180549081906000610ac5836113f9565b90915550506040805160c08101825282815260208082018881526001600160a01b038a8116848601908152606085018a8152426080870152600160a0870181905260008981526003968790529790972086518155935196840196909655516002830180546001600160a01b03191691909216179055925191929190820190610b4d9082611461565b50608082015160048083019190915560a0909201516005909101805491151560ff199283161790556001600160a01b03881660008181526020938452604080822080546001818101835591845286842001879055838352600686528183208b8452909552908190208054909316909317909155905182907f055e34067993de700e7f718f190fdccc92a27695bb9068504a1a44258577f8eb90610bf39089815260200190565b60405180910390a395945050505050565b6001600160a01b038116600090815260046020908152604091829020805483518184028101840190945280845260609392830182828015610c6457602002820191906000526020600020905b815481526020019060010190808311610c50575b50505050509050919050565b610ca96040518060c001604052806000815260200160608152602001606081526020016060815260200160008152602001606081525090565b600560008381526020019081526020016000206040518060c001604052908160008201548152602001600182018054610ce1906113a9565b80601f0160208091040260200160405190810160405280929190818152602001828054610d0d906113a9565b8015610d5a5780601f10610d2f57610100808354040283529160200191610d5a565b820191906000526020600020905b815481529060010190602001808311610d3d57829003601f168201915b50505050508152602001600282018054610d73906113a9565b80601f0160208091040260200160405190810160405280929190818152602001828054610d9f906113a9565b8015610dec5780601f10610dc157610100808354040283529160200191610dec565b820191906000526020600020905b815481529060010190602001808311610dcf57829003601f168201915b50505050508152602001600382018054610e05906113a9565b80601f0160208091040260200160405190810160405280929190818152602001828054610e31906113a9565b8015610e7e5780601f10610e5357610100808354040283529160200191610e7e565b820191906000526020600020905b815481529060010190602001808311610e6157829003601f168201915b5050505050815260200160048201548152602001600582018054610ea1906113a9565b80601f0160208091040260200160405190810160405280929190818152602001828054610ecd906113a9565b8015610f1a5780601f10610eef57610100808354040283529160200191610f1a565b820191906000526020600020905b815481529060010190602001808311610efd57829003601f168201915b5050505050815250509050919050565b6001600160a01b0382166000908152600460205260408120905b8154811015610ff85782828281548110610f6057610f60611521565b906000526020600020015403610fe65781548290610f8090600190611537565b81548110610f9057610f90611521565b9060005260206000200154828281548110610fad57610fad611521565b906000526020600020018190555081805480610fcb57610fcb611550565b60019003818190600052602060002001600090559055610ff8565b80610ff0816113f9565b915050610f44565b50505050565b60006020828403121561101057600080fd5b5035919050565b6000815180845260005b8181101561103d57602081850181015186830182015201611021565b506000602082860101526020601f19601f83011685010191505092915050565b86815285602082015260018060a01b038516604082015260c06060820152600061108a60c0830186611017565b60808301949094525090151560a090910152949350505050565b86815260c0602082015260006110bd60c0830188611017565b82810360408401526110cf8188611017565b905082810360608401526110e38187611017565b905084608084015282810360a08401526110fd8185611017565b9998505050505050505050565b80356001600160a01b038116811461112157600080fd5b919050565b6000806040838503121561113957600080fd5b6111428361110a565b946020939093013593505050565b6000806040838503121561116357600080fd5b823591506111736020840161110a565b90509250929050565b634e487b7160e01b600052604160045260246000fd5b600067ffffffffffffffff808411156111ad576111ad61117c565b604051601f8501601f19908116603f011681019082821181831017156111d5576111d561117c565b816040528093508581528686860111156111ee57600080fd5b858560208301376000602087830101525050509392505050565b6000806000806080858703121561121e57600080fd5b6112278561110a565b935060208501359250604085013567ffffffffffffffff8082111561124b57600080fd5b818701915087601f83011261125f57600080fd5b61126e88833560208501611192565b9350606087013591508082111561128457600080fd5b508501601f8101871361129657600080fd5b6112a587823560208401611192565b91505092959194509250565b6000602082840312156112c357600080fd5b6112cc8261110a565b9392505050565b6020808252825182820181905260009190848201906040850190845b8181101561130b578351835292840192918401916001016112ef565b50909695505050505050565b60208152815160208201526000602083015160c0604084015261133d60e0840182611017565b90506040840151601f198085840301606086015261135b8383611017565b925060608601519150808584030160808601526113788383611017565b9250608086015160a086015260a08601519150808584030160c0860152506113a08282611017565b95945050505050565b600181811c908216806113bd57607f821691505b6020821081036113dd57634e487b7160e01b600052602260045260246000fd5b50919050565b634e487b7160e01b600052601160045260246000fd5b60006001820161140b5761140b6113e3565b5060010190565b601f82111561145c57600081815260208120601f850160051c810160208610156114395750805b601f850160051c820191505b8181101561145857828155600101611445565b5050505b505050565b815167ffffffffffffffff81111561147b5761147b61117c565b61148f8161148984546113a9565b84611412565b602080601f8311600181146114c457600084156114ac5750858301515b600019600386901b1c1916600185901b178555611458565b600085815260208120601f198616915b828110156114f3578886015182559484019460019091019084016114d4565b50858210156115115787850151600019600388901b60f8161c191681555b5050505050600190811b01905550565b634e487b7160e01b600052603260045260246000fd5b8181038181111561154a5761154a6113e3565b92915050565b634e487b7160e01b600052603160045260246000fdfea2646970667358221220454c4754853704855c49e86422b4ad6dd3c195b0271e2024df64aee4dfbedac964736f6c634300081400334869676865737420676c6f62616c2073636f7265206f6620746865206d61746368",
  "linkReferences": {},
  "deployedLinkReferences": {}
}