{
  "_format": "hh-sol-artifact-1",
  "contractName": "NFTCollection",
  "sourceName": "contracts/NFTCollection.sol",
  "abi": [
    {
      "inputs": [],
      "stateMutability": "nonpayable",
      "type": "constructor"
    },
    {
      "anonymous": false,
      "inputs": [
        {
          "indexed": true,
          "internalType": "uint256",
          "name": "achievementId",
          "type": "uint256"
        },
        {
          "indexed": false,
          "internalType": "string",
          "name": "name",
          "type": "string"
        }
      ],
      "name": "AchievementCreated",
      "type": "event"
    },
    {
      "anonymous": false,
      "inputs": [
        {
          "indexed": true,
          "internalType": "address",
          "name": "owner",
          "type": "address"
        },
        {
          "indexed": true,
          "internalType": "address",
          "name": "approved",
          "type": "address"
        },
        {
          "indexed": true,
          "internalType": "uint256",
          "name": "tokenId",
          "type": "uint256"
        }
      ],
      "name": "Approval",
      "type": "event"
    },
    {
      "anonymous": false,
      "inputs": [
        {
          "indexed": true,
          "internalType": "address",
          "name": "owner",
          "type": "address"
        },
        {
          "indexed": true,
          "internalType": "address",
          "name": "operator",
          "type": "address"
        },
        {
          "indexed": false,
          "internalType": "bool",
          "name": "approved",
          "type": "bool"
        }
      ],
      "name": "ApprovalForAll",
      "type": "event"
    },
    {
      "anonymous": false,
      "inputs": [
        {
          "indexed": true,
          "internalType": "uint256",
          "name": "tokenId",
          "type": "uint256"
        },
        {
          "indexed": true,
          "internalType": "address",
          "name": "owner",
          "type": "address"
        },
        {
          "indexed": false,
          "internalType": "uint256",
          "name": "achievementId",
          "type": "uint256"
        }
      ],
      "name": "NFTMinted",
      "type": "event"
    },
    {
      "anonymous": false,
      "inputs": [
        {
          "indexed": true,
          "internalType": "uint256",
          "name": "tokenId",
          "type": "uint256"
        },
        {
          "indexed": true,
          "internalType": "address",
          "name": "from",
          "type": "address"
        },
        {
          "indexed": true,
          "internalType": "address",
          "name": "to",
          "type": "address"
        }
      ],
      "name": "NFTTransferred",
      "type": "event"
    },
    {
      "inputs": [
        {
          "internalType": "uint256",
          "name": "",
          "type": "uint256"
        }
      ],
      "name": "achievements",
      "outputs": [
        {
          "internalType": "uint256",
          "name": "id",
          "type": "uint256"
        },
        {
          "internalType": "string",
          "name": "name",
          "type": "string"
        },
        {
          "internalType": "string",
          "name": "description",
          "type": "string"
        },
        {
          "internalType": "string",
          "name": "rarity",
          "type": "string"
        },
        {
          "internalType": "uint256",
          "name": "requirement",
          "type": "uint256"
        },
        {
          "internalType": "string",
          "name": "achievementType",
          "type": "string"
        }
      ],
      "stateMutability": "view",
      "type": "function"
    },
    {
      "inputs": [],
      "name": "admin",
      "outputs": [
        {
          "internalType": "address",
          "name": "",
          "type": "address"
        }
      ],
      "stateMutability": "view",
      "type": "function"
    },
    {
      "inputs": [
        {
          "internalType": "address",
          "name": "to",
          "type": "address"
        },
        {
          "internalType": "uint256",
          "name": "tokenId",
          "type": "uint256"
        }
      ],
      "name": "approve",
      "outputs": [],
      "stateMutability": "nonpayable",
      "type": "function"
    },
    {
      "inputs": [
        {
          "internalType": "uint256",
          "name": "achievementId",
          "type": "uint256"
        }
      ],
      "name": "getAchievement",
      "outputs": [
        {
          "components": [
            {
              "internalType": "uint256",
              "name": "id",
              "type": "uint256"
            },
            {
              "internalType": "string",
              "name": "name",
              "type": "string"
            },
            {
              "internalType": "string",
              "name": "description",
              "type": "string"
            },
            {
              "internalType": "string",
              "name": "rarity",
              "type": "string"
            },
            {
              "internalType": "uint256",
              "name": "requirement",
              "type": "uint256"
            },
            {
              "internalType": "string",
              "name": "achievementType",
              "type": "string"
            }
          ],
          "internalType": "struct NFTCollection.Achievement",
          "name": "",
          "type": "tuple"
        }
      ],
      "stateMutability": "view",
      "type": "function"
    },
    {
      "inputs": [
        {
          "internalType": "uint256",
          "name": "tokenId",
          "type": "uint256"
        }
      ],
      "name": "getApproved",
      "outputs": [
        {
          "internalType": "address",
          "name": "",
          "type": "address"
        }
      ],
      "stateMutability": "view",
      "type": "function"
    },
    {
      "inputs": [
        {
          "internalType": "uint256",
          "name": "tokenId",
          "type": "uint256"
        }
      ],
      "name": "getNFT",
      "outputs": [
        {
          "internalType": "uint256",
          "name": "id",
          "type": "uint256"
        },
        {
          "internalType": "uint256",
          "name": "achievementId",
          "type": "uint256"
        },
        {
          "internalType": "address",
          "name": "ownerAddr",
          "type": "address"
        },
        {
          "internalType": "string",
          "name": "metadataURI",
          "type": "string"
        },
        {
          "internalType": "uint256",
          "name": "mintedAt",
          "type": "uint256"
        },
        {
          "internalType": "bool",
          "name": "exists",
          "type": "bool"
        }
      ],
      "stateMutability": "view",
      "type": "function"
    },
    {
      "inputs": [
        {
          "internalType": "address",
          "name": "ownerAddr",
          "type": "address"
        }
      ],
      "name": "getOwnerTokens",
      "outputs": [
        {
          "internalType": "uint256[]",
          "name": "",
          "type": "uint256[]"
        }
      ],
      "stateMutability": "view",
      "type": "function"
    },
    {
      "inputs": [
        {
          "internalType": "address",
          "name": "",
          "type": "address"
        },
        {
          "internalType": "uint256",
          "name": "",
          "type": "uint256"
        }
      ],
      "name": "hasEarnedAchievement",
      "outputs": [
        {
          "internalType": "bool",
          "name": "",
          "type": "bool"
        }
      ],
      "stateMutability": "view",
      "type": "function"
    },
    {
      "inputs": [
        {
          "internalType": "address",
          "name": "owner",
          "type": "address"
        },
        {
          "internalType": "address",
          "name": "operator",
          "type": "address"
        }
      ],
      "name": "isApprovedForAll",
      "outputs": [
        {
          "internalType": "bool",
          "name": "",
          "type": "bool"
        }
      ],
      "stateMutability": "view",
      "type": "function"
    },
    {
      "inputs": [
        {
          "internalType": "address",
          "name": "player",
          "type": "address"
        },
        {
          "internalType": "uint256",
          "name": "achievementId",
          "type": "uint256"
        },
        {
          "internalType": "string",
          "name": "metadataURI",
          "type": "string"
        },
        {
          "internalType": "bytes",
          "name": "signature",
          "type": "bytes"
        }
      ],
      "name": "mintNFT",
      "outputs": [
        {
          "internalType": "uint256",
          "name": "",
          "type": "uint256"
        }
      ],
      "stateMutability": "nonpayable",
      "type": "function"
    },
    {
      "inputs": [],
      "name": "nextTokenId",
      "outputs": [
        {
          "internalType": "uint256",
          "name": "",
          "type": "uint256"
        }
      ],
      "stateMutability": "view",
      "type": "function"
    },
    {
      "inputs": [
        {
          "internalType": "uint256",
          "name": "",
          "type": "uint256"
        }
      ],
      "name": "nfts",
      "outputs": [
        {
          "internalType": "uint256",
          "name": "tokenId",
          "type": "uint256"
        },
        {
          "internalType": "uint256",
          "name": "achievementId",
          "type": "uint256"
        },
        {
          "internalType": "address",
          "name": "owner",
          "type": "address"
        },
        {
          "internalType": "string",
          "name": "metadataURI",
          "type": "string"
        },
        {
          "internalType": "uint256",
          "name": "mintedAt",
          "type": "uint256"
        },
        {
          "internalType": "bool",
          "name": "exists",
          "type": "bool"
        }
      ],
      "stateMutability": "view",
      "type": "function"
    },
    {
      "inputs": [
        {
          "internalType": "address",
          "name": "",
          "type": "address"
        },
        {
          "internalType": "uint256",
          "name": "",
          "type": "uint256"
        }
      ],
      "name": "ownerTokens",
      "outputs": [
        {
          "internalType": "uint256",
          "name": "",
          "type": "uint256"
        }
      ],
      "stateMutability": "view",
      "type": "function"
    },
    {
      "inputs": [],
      "name": "royaltyPercentage",
      "outputs": [
        {
          "internalType": "uint256",
          "name": "",
          "type": "uint256"
        }
      ],
      "stateMutability": "view",
      "type": "function"
    },
    {
      "inputs": [
        {
          "internalType": "address",
          "name": "operator",
          "type": "address"
        },
        {
          "internalType": "bool",
          "name": "approved",
          "type": "bool"
        }
      ],
      "name": "setApprovalForAll",
      "outputs": [],
      "stateMutability": "nonpayable",
      "type": "function"
    },
    {
      "inputs": [
        {
          "internalType": "uint256",
          "name": "percentage",
          "type": "uint256"
        }
      ],
      "name": "setRoyaltyPercentage",
      "outputs": [],
      "stateMutability": "nonpayable",
      "type": "function"
    },
    {
      "inputs": [
        {
          "internalType": "uint256",
          "name": "tokenId",
          "type": "uint256"
        },
        {
          "internalType": "address",
          "name": "to",
          "type": "address"
        }
      ],
      "name": "transferNFT",
      "outputs": [],
      "stateMutability": "nonpayable",
      "type": "function"
    }
  ],
  "bytecode": "0x608060405260056002553480156200001657600080fd5b50600080546001600160a01b0319163317905560018055620000376200003d565b62000fae565b6040518060c00160405280600181526020016040518060400160405280601281526020017123b0b630b1ba34b19021b7b6b6b0b73232b960711b81525081526020016040518060600160405280602181526020016200291060219139815260408051808201825260098152684c6567656e6461727960b81b60208281019190915280840191909152620186a082840152815180830190925260058083526473636f726560d81b83830152606090930191909152600160005290815281517f1471eb6eb2c5e789fc3de43f8ce62938c7d1836ec861730447e2ada8fd81017b908155908201517f1471eb6eb2c5e789fc3de43f8ce62938c7d1836ec861730447e2ada8fd81017c9062000150908262000ee2565b506040820151600282019062000167908262000ee2565b50606082015160038201906200017e908262000ee2565b506080820151600482015560a082015160058201906200019f908262000ee2565b50506040805160c081018252600280825282518084018452601181527029ba32b63630b9102232b9ba3937bcb2b960791b60208281019190915280840191825284518086018652601d81527f4869676865737420746f74616c206e756d626572206f66206b696c6c7300000081830152848601528451808601865260098152684c6567656e6461727960b81b8183015260608501526032608085015284518086019095526005808652646b696c6c7360d81b8683015260a085019590955260009290925292905280517f89832631fb3c3307a103ba2c84ab569c64d6182a18893dcd163f0f1c2090733a90815591519092507f89832631fb3c3307a103ba2c84ab569c64d6182a18893dcd163f0f1c2090733b90620002bf908262000ee2565b5060408201516002820190620002d6908262000ee2565b5060608201516003820190620002ed908262000ee2565b506080820151600482015560a082015160058201906200030e908262000ee2565b50506040805160c081018252600380825282518084018452600e81526d50686f746f6e696320426c61646560901b60208281019190915280840191825284518086018652601481527f42657374206163637572616379203e3d2038352500000000000000000000000081830152848601528451808601865260048152634570696360e01b8183015260608501526055608085015284518086019095526008855267616363757261637960c01b8582015260a0840194909452600091909152600590925280517fa9bc9a3a348c357ba16b37005d7e6b3236198c0e939f4af8c5f19b8deeb8ebc090815591519092507fa9bc9a3a348c357ba16b37005d7e6b3236198c0e939f4af8c5f19b8deeb8ebc1906200042a908262000ee2565b506040820151600282019062000441908262000ee2565b506060820151600382019062000458908262000ee2565b506080820151600482015560a0820151600582019062000479908262000ee2565b50506040805160c081018252600480825282518084018452600b81526a2a34b6b29026b0b9ba32b960a91b60208281019190915280840191825284518086018652601981527f4c6f6e6765737420737572766976616c206475726174696f6e00000000000000818301528486015284518086018652838152634570696360e01b818301526060850152610384608085015284518086019095528285526374696d6560e01b8582015260a0840194909452600091909152600590925280517f3eec716f11ba9e820c81ca75eb978ffb45831ef8b7a53e5e422c26008e1ca6d590815591519092507f3eec716f11ba9e820c81ca75eb978ffb45831ef8b7a53e5e422c26008e1ca6d6906200058d908262000ee2565b5060408201516002820190620005a4908262000ee2565b5060608201516003820190620005bb908262000ee2565b506080820151600482015560a08201516005820190620005dc908262000ee2565b50506040805160c081018252600580825282518084018452600d81526c29ba30b91021b430b6b834b7b760991b60208281019190915280840191825284518086018652601e81527f53636f72652061626f766520393025206f66206265737420706c61796572000081830152848601528451808601865260048152634570696360e01b81830152606085015261c350608085015284518086019095528285526473636f726560d81b8582015260a08401949094526000829052925280517f458b30c2d72bfd2c6317304a4594ecbafe5f729d3111b65fdc3a33bd48e5432d90815591519092507f458b30c2d72bfd2c6317304a4594ecbafe5f729d3111b65fdc3a33bd48e5432e90620006f0908262000ee2565b506040820151600282019062000707908262000ee2565b50606082015160038201906200071e908262000ee2565b506080820151600482015560a082015160058201906200073f908262000ee2565b50506040805160c081018252600680825282518084018452600b81526a536f6c617220466c616d6560a81b60208281019190915280840191825284518086018652601a81527f48696768657374206b696c6c732f6d696e75746520726174696f00000000000081830152848601528451808601865260048152635261726560e01b818301526060850152600a608085015284518086019095526005808652646b696c6c7360d81b8683015260a085019590955260009290925292905280517f069400f22b28c6c362558d92f66163cec5671cba50b61abd2eecfcd0eaeac51890815591519092507f069400f22b28c6c362558d92f66163cec5671cba50b61abd2eecfcd0eaeac5199062000854908262000ee2565b50604082015160028201906200086b908262000ee2565b506060820151600382019062000882908262000ee2565b506080820151600482015560a08201516005820190620008a3908262000ee2565b50506040805160c081018252600780825282518084018452600e81526d27b93134ba30b61029b734b832b960911b60208281019190915280840191825284518086018652601d81527f507265636973696f6e203e20393525206f7665722035302073686f747300000081830152848601528451808601865260048152634570696360e01b818301526060850152605f608085015284518086019095526008855267616363757261637960c01b8582015260a0840194909452600091909152600590925280517feddb6698d7c569ff62ff64f1f1492bf14a54594835ba0faac91f84b4f5d8146090815591519092507feddb6698d7c569ff62ff64f1f1492bf14a54594835ba0faac91f84b4f5d8146190620009bf908262000ee2565b5060408201516002820190620009d6908262000ee2565b5060608201516003820190620009ed908262000ee2565b506080820151600482015560a0820151600582019062000a0e908262000ee2565b50506040805160c081018252600880825282518084018452600d81526c2b37b4b21029bab93b34bb37b960991b60208281019190915280840191825284518086018652601f81527f537572766976616c203e203130206d696e20776974686f7574206465617468008183015284860152845180860186526004808252635261726560e01b8284015260608601919091526102586080860152855180870190965285526374696d6560e01b8582015260a0840194909452600091909152600590925280517ffb33122aa9f93cc639ebe80a7bc4784c11e6053dde89c6f4f7e268c6a623da1e90815591519092507ffb33122aa9f93cc639ebe80a7bc4784c11e6053dde89c6f4f7e268c6a623da1f9062000b28908262000ee2565b506040820151600282019062000b3f908262000ee2565b506060820151600382019062000b56908262000ee2565b506080820151600482015560a0820151600582019062000b77908262000ee2565b50506040805160c081018252600980825282518084018452600f81526e5374656c6c61722050726f6469677960881b60208281019190915280840191825284518086018652601c81527f486967682073636f7265202b20707265636973696f6e203e203830250000000081830152848601528451808601865260048152634570696360e01b81830152606085015261753060808501528451808601909552600580865264636f6d626f60d81b8683015260a085019590955260009290925292905280517fc0a4a8be475dfebc377ebef2d7c4ff47656f572a08dd92b81017efcdba0febe190815591519092507fc0a4a8be475dfebc377ebef2d7c4ff47656f572a08dd92b81017efcdba0febe29062000c91908262000ee2565b506040820151600282019062000ca8908262000ee2565b506060820151600382019062000cbf908262000ee2565b506080820151600482015560a0820151600582019062000ce0908262000ee2565b50506040805160c081018252600a80825282518084018452600b81526a149a5b99c8131959d95b9960aa1b60208281019190915280840191825284518086018652601081526f4d617374657220616c6c20737461747360801b81830152848601528451808601865260068152654d797468696360d01b818301526060850152600160808501528451808601909552600580865264636f6d626f60d81b8683015260a085019590955260009290925292905280517fa18b128af1c8fc61ff46f02d146e54546f34d340574cf2cef6a753cba6b6701d90815591519092507fa18b128af1c8fc61ff46f02d146e54546f34d340574cf2cef6a753cba6b6701e9062000dea908262000ee2565b506040820151600282019062000e01908262000ee2565b506060820151600382019062000e18908262000ee2565b506080820151600482015560a0820151600582019062000e39908262000ee2565b505050565b634e487b7160e01b600052604160045260246000fd5b600181811c9082168062000e6957607f821691505b60208210810362000e8a57634e487b7160e01b600052602260045260246000fd5b50919050565b601f82111562000e3957600081815260208120601f850160051c8101602086101562000eb95750805b601f850160051c820191505b8181101562000eda5782815560010162000ec5565b505050505050565b81516001600160401b0381111562000efe5762000efe62000e3e565b62000f168162000f0f845462000e54565b8462000e90565b602080601f83116001811462000f4e576000841562000f355750858301515b600019600386901b1c1916600185901b17855562000eda565b600085815260208120601f198616915b8281101562000f7f5788860151825594840194600190910190840162000f5e565b508582101562000f9e5787850151600019600388901b60f8161c191681555b5050505050600190811b01905550565b6119528062000fbe6000396000f3fe608060405234801561001057600080fd5b506004361061010b5760003560e01c80638a71bb2d116100a2578063d63d4af011610071578063d63d4af014610231578063e500f31c14610251578063e985e9c51461028f578063f2ccc543146102a2578063f851a440146102c257600080fd5b80638a71bb2d146101ef5780639036c050146101f8578063a22cb4651461020b578063cf20e93a1461021e57600080fd5b806328b60031116100de57806328b600311461019f578063576f7ea7146101c057806361ba27da146101d357806375794a3c146101e657600080fd5b8063081812fc14610110578063095ea7b314610140578063265aa6211461015557806327aed72e1461017a575b600080fd5b61012361011e366004611328565b6102d5565b6040516001600160a01b0390911681526020015b60405180910390f35b61015361014e36600461135d565b61032b565b005b610168610163366004611328565b610468565b604051610137969594939291906113cd565b61018d610188366004611328565b610536565b60405161013796959493929190611414565b6101b26101ad36600461135d565b61078b565b604051908152602001610137565b6101686101ce366004611328565b6107bc565b6101536101e1366004611328565b61091c565b6101b260015481565b6101b260025481565b61015361020636600461147a565b6109ba565b6101536102193660046114a6565b610b95565b6101b261022c36600461156e565b610c59565b61024461023f366004611617565b610efe565b6040516101379190611639565b61027f61025f36600461135d565b600660209081526000928352604080842090915290825290205460ff1681565b6040519015158152602001610137565b61027f61029d36600461167d565b610f6a565b6102b56102b0366004611328565b610f9a565b60405161013791906116a7565b600054610123906001600160a01b031681565b60008181526003602052604081206005015460ff1661030f5760405162461bcd60e51b815260040161030690611739565b60405180910390fd5b506000908152600760205260409020546001600160a01b031690565b6000818152600360205260409020600201546001600160a01b03163381148061037757506001600160a01b038116600090815260086020908152604080832033845290915290205460ff165b6103b45760405162461bcd60e51b815260206004820152600e60248201526d139bdd08185d5d1a1bdc9a5e995960921b6044820152606401610306565b806001600160a01b0316836001600160a01b03160361040c5760405162461bcd60e51b815260206004820152601460248201527321b0b73737ba1030b8383937bb329037bbb732b960611b6044820152606401610306565b60008281526007602052604080822080546001600160a01b0319166001600160a01b0387811691821790925591518593918516917f8c5be1e5ebec7d5bd14f71427d1e84f3dd0314c0f7b2291e5b200ac8c7c3b92591a4505050565b60036020819052600091825260409091208054600182015460028301549383018054929491936001600160a01b03909216926104a390611765565b80601f01602080910402602001604051908101604052809291908181526020018280546104cf90611765565b801561051c5780601f106104f15761010080835404028352916020019161051c565b820191906000526020600020905b8154815290600101906020018083116104ff57829003601f168201915b50505050600483015460059093015491929160ff16905086565b6005602052600090815260409020805460018201805491929161055890611765565b80601f016020809104026020016040519081016040528092919081815260200182805461058490611765565b80156105d15780601f106105a6576101008083540402835291602001916105d1565b820191906000526020600020905b8154815290600101906020018083116105b457829003601f168201915b5050505050908060020180546105e690611765565b80601f016020809104026020016040519081016040528092919081815260200182805461061290611765565b801561065f5780601f106106345761010080835404028352916020019161065f565b820191906000526020600020905b81548152906001019060200180831161064257829003601f168201915b50505050509080600301805461067490611765565b80601f01602080910402602001604051908101604052809291908181526020018280546106a090611765565b80156106ed5780601f106106c2576101008083540402835291602001916106ed565b820191906000526020600020905b8154815290600101906020018083116106d057829003601f168201915b50505050509080600401549080600501805461070890611765565b80601f016020809104026020016040519081016040528092919081815260200182805461073490611765565b80156107815780601f1061075657610100808354040283529160200191610781565b820191906000526020600020905b81548152906001019060200180831161076457829003601f168201915b5050505050905086565b600460205281600052604060002081815481106107a757600080fd5b90600052602060002001600091509150505481565b600081815260036020526040812060050154819081906060908290819060ff166107f85760405162461bcd60e51b815260040161030690611739565b6000878152600360208181526040808420815160c0810183528154815260018201549381019390935260028101546001600160a01b031691830191909152918201805491929160608401919061084d90611765565b80601f016020809104026020016040519081016040528092919081815260200182805461087990611765565b80156108c65780601f1061089b576101008083540402835291602001916108c6565b820191906000526020600020905b8154815290600101906020018083116108a957829003601f168201915b5050509183525050600482015460208083019190915260059092015460ff161515604091820152825191830151908301516060840151608085015160a090950151939d929c50909a509850919650945092505050565b6000546001600160a01b031633146109715760405162461bcd60e51b81526020600482015260186024820152774f6e6c792061646d696e2063616e2063616c6c207468697360401b6044820152606401610306565b600a8111156109b55760405162461bcd60e51b815260206004820152601060248201526f0a4def2c2d8e8f240e8dede40d0d2ced60831b6044820152606401610306565b600255565b60008281526003602052604090206005015460ff166109eb5760405162461bcd60e51b815260040161030690611739565b6001600160a01b038116610a335760405162461bcd60e51b815260206004820152600f60248201526e496e76616c6964206164647265737360881b6044820152606401610306565b6000828152600360205260409020600201546001600160a01b031633811480610a7257506000838152600760205260409020546001600160a01b031633145b80610aa057506001600160a01b038116600090815260086020908152604080832033845290915290205460ff165b610aec5760405162461bcd60e51b815260206004820152601a60248201527f4e6f7420617574686f72697a656420746f207472616e736665720000000000006044820152606401610306565b600083815260076020908152604080832080546001600160a01b0319908116909155600390925290912060020180549091166001600160a01b038416179055610b358184611254565b6001600160a01b038083166000818152600460209081526040808320805460018101825590845291832090910187905551919284169186917f67043fac5fd2bf9edbb46ee495aaed7f97f91d43507d373be2b592af19b8c0a891a4505050565b6001600160a01b0382163303610bed5760405162461bcd60e51b815260206004820152601c60248201527f43616e6e6f742073657420617070726f76616c20666f722073656c66000000006044820152606401610306565b3360008181526008602090815260408083206001600160a01b03871680855290835292819020805460ff191686151590811790915590519081529192917f17307eab39ab6107e8899845ad3d59bd9653f200f220920489ca2b5937696c31910160405180910390a35050565b600080546001600160a01b03163314610caf5760405162461bcd60e51b81526020600482015260186024820152774f6e6c792061646d696e2063616e2063616c6c207468697360401b6044820152606401610306565b60018410158015610cc15750600a8411155b610d035760405162461bcd60e51b8152602060048201526013602482015272125b9d985b1a59081858da1a595d995b595b9d606a1b6044820152606401610306565b6001600160a01b038516600090815260066020908152604080832087845290915290205460ff1615610d685760405162461bcd60e51b815260206004820152600e60248201526d105b1c9958591e4819585c9b995960921b6044820152606401610306565b6000825111610dad5760405162461bcd60e51b8152602060048201526011602482015270496e76616c6964207369676e617475726560781b6044820152606401610306565b600180549081906000610dbf836117b5565b90915550506040805160c08101825282815260208082018881526001600160a01b038a8116848601908152606085018a8152426080870152600160a0870181905260008981526003968790529790972086518155935196840196909655516002830180546001600160a01b03191691909216179055925191929190820190610e47908261181d565b50608082015160048083019190915560a0909201516005909101805491151560ff199283161790556001600160a01b03881660008181526020938452604080822080546001818101835591845286842001879055838352600686528183208b8452909552908190208054909316909317909155905182907f055e34067993de700e7f718f190fdccc92a27695bb9068504a1a44258577f8eb90610eed9089815260200190565b60405180910390a395945050505050565b6001600160a01b038116600090815260046020908152604091829020805483518184028101840190945280845260609392830182828015610f5e57602002820191906000526020600020905b815481526020019060010190808311610f4a575b50505050509050919050565b6001600160a01b0380831660009081526008602090815260408083209385168352929052205460ff165b92915050565b610fd36040518060c001604052806000815260200160608152602001606081526020016060815260200160008152602001606081525090565b600560008381526020019081526020016000206040518060c00160405290816000820154815260200160018201805461100b90611765565b80601f016020809104026020016040519081016040528092919081815260200182805461103790611765565b80156110845780601f1061105957610100808354040283529160200191611084565b820191906000526020600020905b81548152906001019060200180831161106757829003601f168201915b5050505050815260200160028201805461109d90611765565b80601f01602080910402602001604051908101604052809291908181526020018280546110c990611765565b80156111165780601f106110eb57610100808354040283529160200191611116565b820191906000526020600020905b8154815290600101906020018083116110f957829003601f168201915b5050505050815260200160038201805461112f90611765565b80601f016020809104026020016040519081016040528092919081815260200182805461115b90611765565b80156111a85780601f1061117d576101008083540402835291602001916111a8565b820191906000526020600020905b81548152906001019060200180831161118b57829003601f168201915b50505050508152602001600482015481526020016005820180546111cb90611765565b80601f01602080910402602001604051908101604052809291908181526020018280546111f790611765565b80156112445780601f1061121957610100808354040283529160200191611244565b820191906000526020600020905b81548152906001019060200180831161122757829003601f168201915b5050505050815250509050919050565b6001600160a01b0382166000908152600460205260408120905b8154811015611322578282828154811061128a5761128a6118dd565b90600052602060002001540361131057815482906112aa906001906118f3565b815481106112ba576112ba6118dd565b90600052602060002001548282815481106112d7576112d76118dd565b9060005260206000200181905550818054806112f5576112f5611906565b60019003818190600052602060002001600090559055611322565b8061131a816117b5565b91505061126e565b50505050565b60006020828403121561133a57600080fd5b5035919050565b80356001600160a01b038116811461135857600080fd5b919050565b6000806040838503121561137057600080fd5b61137983611341565b946020939093013593505050565b6000815180845260005b818110156113ad57602081850181015186830182015201611391565b506000602082860101526020601f19601f83011685010191505092915050565b86815285602082015260018060a01b038516604082015260c0606082015260006113fa60c0830186611387565b60808301949094525090151560a090910152949350505050565b86815260c06020820152600061142d60c0830188611387565b828103604084015261143f8188611387565b905082810360608401526114538187611387565b905084608084015282810360a084015261146d8185611387565b9998505050505050505050565b6000806040838503121561148d57600080fd5b8235915061149d60208401611341565b90509250929050565b600080604083850312156114b957600080fd5b6114c283611341565b9150602083013580151581146114d757600080fd5b809150509250929050565b634e487b7160e01b600052604160045260246000fd5b600067ffffffffffffffff80841115611513576115136114e2565b604051601f8501601f19908116603f0116810190828211818310171561153b5761153b6114e2565b8160405280935085815286868601111561155457600080fd5b858560208301376000602087830101525050509392505050565b6000806000806080858703121561158457600080fd5b61158d85611341565b935060208501359250604085013567ffffffffffffffff808211156115b157600080fd5b818701915087601f8301126115c557600080fd5b6115d4888335602085016114f8565b935060608701359150808211156115ea57600080fd5b508501601f810187136115fc57600080fd5b61160b878235602084016114f8565b91505092959194509250565b60006020828403121561162957600080fd5b61163282611341565b9392505050565b6020808252825182820181905260009190848201906040850190845b8181101561167157835183529284019291840191600101611655565b50909695505050505050565b6000806040838503121561169057600080fd5b61169983611341565b915061149d60208401611341565b60208152815160208201526000602083015160c060408401526116cd60e0840182611387565b90506040840151601f19808584030160608601526116eb8383611387565b925060608601519150808584030160808601526117088383611387565b9250608086015160a086015260a08601519150808584030160c0860152506117308282611387565b95945050505050565b60208082526012908201527113919508191bd95cc81b9bdd08195e1a5cdd60721b604082015260600190565b600181811c9082168061177957607f821691505b60208210810361179957634e487b7160e01b600052602260045260246000fd5b50919050565b634e487b7160e01b600052601160045260246000fd5b6000600182016117c7576117c761179f565b5060010190565b601f82111561181857600081815260208120601f850160051c810160208610156117f55750805b601f850160051c820191505b8181101561181457828155600101611801565b5050505b505050565b815167ffffffffffffffff811115611837576118376114e2565b61184b816118458454611765565b846117ce565b602080601f83116001811461188057600084156118685750858301515b600019600386901b1c1916600185901b178555611814565b600085815260208120601f198616915b828110156118af57888601518255948401946001909101908401611890565b50858210156118cd5787850151600019600388901b60f8161c191681555b5050505050600190811b01905550565b634e487b7160e01b600052603260045260246000fd5b81810381811115610f9457610f9461179f565b634e487b7160e01b600052603160045260246000fdfea2646970667358221220ceb738fcdd72ad262dba9ebaf24af1f9409aa2562ddecf6a4cb5aabd1be9093364736f6c634300081400334869676865737420676c6f62616c2073636f7265206f6620746865206d61746368",
  "linkReferences": {},
  "deployedLinkReferences": {}
}