{
  "_format": "hh-sol-artifact-1",
  "contractName": "Marketplace",
  "sourceName": "contracts/Marketplace.sol",
  "abi": [
    {
      "inputs": [
        {
          "internalType": "address",
          "name": "_nftContract",
          "type": "address"
        }
      ],
      "stateMutability": "nonpayable",
      "type": "constructor"
    },
    {
      "anonymous": false,
      "inputs": [
        {
          "indexed": true,
          "internalType": "uint256",
          "name": "listingId",
          "type": "uint256"
        },
        {
          "indexed": true,
          "internalType": "uint256",
          "name": "tokenId",
          "type": "uint256"
        }
      ],
      "name": "Cancelled",
      "type": "event"
    },
    {
      "anonymous": false,
      "inputs": [
        {
          "indexed": true,
          "internalType": "uint256",
          "name": "listingId",
          "type": "uint256"
        },
        {
          "indexed": true,
          "internalType": "uint256",
          "name": "tokenId",
          "type": "uint256"
        },
        {
          "indexed": false,
          "internalType": "address",
          "name": "seller",
          "type": "address"
        },
        {
          "indexed": false,
          "internalType": "uint256",
          "name": "price",
          "type": "uint256"
        }
      ],
      "name": "Listed",
      "type": "event"
    },
    {
      "anonymous": false,
      "inputs": [
        {
          "indexed": true,
          "internalType": "uint256",
          "name": "listingId",
          "type": "uint256"
        },
        {
          "indexed": true,
          "internalType": "uint256",
          "name": "tokenId",
          "type": "uint256"
        },
        {
          "indexed": false,
          "internalType": "address",
          "name": "buyer",
          "type": "address"
        },
        {
          "indexed": false,
          "internalType": "uint256",
          "name": "price",
          "type": "uint256"
        }
      ],
      "name": "Sold",
      "type": "event"
    },
    {
      "inputs": [],
      "name": "admin",
      "outputs": [
        {
          "internalType": "address",
          "name": "",
          "type": "address"
        }
      ],
      "stateMutability": "view",
      "type": "function"
    },
    {
      "inputs": [
        {
          "internalType": "uint256",
          "name": "listingId",
          "type": "uint256"
        }
      ],
      "name": "buyNFT",
      "outputs": [],
      "stateMutability": "payable",
      "type": "function"
    },
    {
      "inputs": [
        {
          "internalType": "uint256",
          "name": "listingId",
          "type": "uint256"
        }
      ],
      "name": "cancelListing",
      "outputs": [],
      "stateMutability": "nonpayable",
      "type": "function"
    },
    {
      "inputs": [
        {
          "internalType": "uint256",
          "name": "tokenId",
          "type": "uint256"
        },
        {
          "internalType": "uint256",
          "name": "price",
          "type": "uint256"
        }
      ],
      "name": "createListing",
      "outputs": [
        {
          "internalType": "uint256",
          "name": "",
          "type": "uint256"
        }
      ],
      "stateMutability": "nonpayable",
      "type": "function"
    },
    {
      "inputs": [
        {
          "internalType": "uint256",
          "name": "tokenId",
          "type": "uint256"
        }
      ],
      "name": "getActiveListing",
      "outputs": [
        {
          "components": [
            {
              "internalType": "uint256",
              "name": "listingId",
              "type": "uint256"
            },
            {
              "internalType": "uint256",
              "name": "tokenId",
              "type": "uint256"
            },
            {
              "internalType": "address",
              "name": "seller",
              "type": "address"
            },
            {
              "internalType": "uint256",
              "name": "price",
              "type": "uint256"
            },
            {
              "internalType": "bool",
              "name": "active",
              "type": "bool"
            },
            {
              "internalType": "uint256",
              "name": "listedAt",
              "type": "uint256"
            }
          ],
          "internalType": "struct Marketplace.Listing",
          "name": "",
          "type": "tuple"
        }
      ],
      "stateMutability": "view",
      "type": "function"
    },
    {
      "inputs": [
        {
          "internalType": "uint256",
          "name": "",
          "type": "uint256"
        }
      ],
      "name": "listings",
      "outputs": [
        {
          "internalType": "uint256",
          "name": "listingId",
          "type": "uint256"
        },
        {
          "internalType": "uint256",
          "name": "tokenId",
          "type": "uint256"
        },
        {
          "internalType": "address",
          "name": "seller",
          "type": "address"
        },
        {
          "internalType": "uint256",
          "name": "price",
          "type": "uint256"
        },
        {
          "internalType": "bool",
          "name": "active",
          "type": "bool"
        },
        {
          "internalType": "uint256",
          "name": "listedAt",
          "type": "uint256"
        }
      ],
      "stateMutability": "view",
      "type": "function"
    },
    {
      "inputs": [],
      "name": "nextListingId",
      "outputs": [
        {
          "internalType": "uint256",
          "name": "",
          "type": "uint256"
        }
      ],
      "stateMutability": "view",
      "type": "function"
    },
    {
      "inputs": [],
      "name": "nftContract",
      "outputs": [
        {
          "internalType": "address",
          "name": "",
          "type": "address"
        }
      ],
      "stateMutability": "view",
      "type": "function"
    },
    {
      "inputs": [],
      "name": "platformFee",
      "outputs": [
        {
          "internalType": "uint256",
          "name": "",
          "type": "uint256"
        }
      ],
      "stateMutability": "view",
      "type": "function"
    },
    {
      "inputs": [
        {
          "internalType": "uint256",
          "name": "",
          "type": "uint256"
        }
      ],
      "name": "tokenToListing",
      "outputs": [
        {
          "internalType": "uint256",
          "name": "",
          "type": "uint256"
        }
      ],
      "stateMutability": "view",
      "type": "function"
    }
  ],
  "bytecode": "0x6080604052600260035534801561001557600080fd5b50604051610d6e380380610d6e83398101604081905261003491610065565b600080546001600160a01b039092166001600160a01b03199283161790556001805490911633178155600255610095565b60006020828403121561007757600080fd5b81516001600160a01b038116811461008e57600080fd5b9392505050565b610cca806100a46000396000f3fe6080604052600436106100915760003560e01c8063aaccf1ec11610059578063aaccf1ec1461018a578063d56d229d146101a0578063de74e57b146101d8578063ea7eaec614610273578063f851a440146102a057600080fd5b80631030f05f1461009657806326232a2e14610111578063305a67a81461013557806351ed828814610157578063a79123a91461016a575b600080fd5b3480156100a257600080fd5b506100b66100b1366004610a70565b6102c0565b604051610108919081518152602080830151908201526040808301516001600160a01b0316908201526060808301519082015260808083015115159082015260a0918201519181019190915260c00190565b60405180910390f35b34801561011d57600080fd5b5061012760035481565b604051908152602001610108565b34801561014157600080fd5b50610155610150366004610a70565b6103c4565b005b610155610165366004610a70565b6104b9565b34801561017657600080fd5b50610127610185366004610a89565b6107cf565b34801561019657600080fd5b5061012760025481565b3480156101ac57600080fd5b506000546101c0906001600160a01b031681565b6040516001600160a01b039091168152602001610108565b3480156101e457600080fd5b506102386101f3366004610a70565b6004602081905260009182526040909120805460018201546002830154600384015494840154600590940154929491936001600160a01b039091169260ff9091169086565b6040805196875260208701959095526001600160a01b03909316938501939093526060840152901515608083015260a082015260c001610108565b34801561027f57600080fd5b5061012761028e366004610a70565b60056020526000908152604090205481565b3480156102ac57600080fd5b506001546101c0906001600160a01b031681565b6103046040518060c00160405280600081526020016000815260200160006001600160a01b0316815260200160008152602001600015158152602001600081525090565b6000828152600560205260408120549081900361035c5760405162461bcd60e51b81526020600482015260116024820152704e6f20616374697665206c697374696e6760781b60448201526064015b60405180910390fd5b600090815260046020818152604092839020835160c0810185528154815260018201549281019290925260028101546001600160a01b031693820193909352600383015460608201529082015460ff161515608082015260059091015460a082015292915050565b600081815260046020526040902060028101546001600160a01b0316331461041f5760405162461bcd60e51b815260206004820152600e60248201526d2737ba103a34329039b2b63632b960911b6044820152606401610353565b600481015460ff166104685760405162461bcd60e51b81526020600482015260126024820152714c697374696e67206e6f742061637469766560701b6044820152606401610353565b60048101805460ff191690556001810180546000908152600560205260408082208290559154915184917fa761582a460180d55522f9f5fdc076390a1f48a7a62a8afbd45c1bb797948edb91a35050565b60008181526004602081905260409091209081015460ff166105125760405162461bcd60e51b81526020600482015260126024820152714c697374696e67206e6f742061637469766560701b6044820152606401610353565b806003015434101561055d5760405162461bcd60e51b8152602060048201526014602482015273125b9cdd59999a58da595b9d081c185e5b595b9d60621b6044820152606401610353565b6004808201805460ff191690556001820154600090815260056020908152604080832083905582548151638a71bb2d60e01b8152915193946001600160a01b0390911693638a71bb2d93838301939092908290030181865afa1580156105c7573d6000803e3d6000fd5b505050506040513d601f19601f820116820180604052508101906105eb9190610aab565b9050600060648284600301546106019190610ada565b61060b9190610af1565b90506000606460035485600301546106239190610ada565b61062d9190610af1565b90506000818386600301546106429190610b13565b61064c9190610b13565b60028601546040519192506001600160a01b03169082156108fc029083906000818181858888f19350505050158015610689573d6000803e3d6000fd5b506001546001600160a01b03166108fc6106a38486610b26565b6040518115909202916000818181858888f193505050501580156106cb573d6000803e3d6000fd5b5060005460018601546040516309036c0560e41b815260048101919091523360248201526001600160a01b0390911690639036c05090604401600060405180830381600087803b15801561071e57600080fd5b505af1158015610732573d6000803e3d6000fd5b505050506001850154600386015460408051338152602081019290925288917f8438a66ac04db2e2324d5927beca96c400ee09b811c5da2b153d4fa7412628e5910160405180910390a384600301543411156107c757600385015433906108fc9061079d9034610b13565b6040518115909202916000818181858888f193505050501580156107c5573d6000803e3d6000fd5b505b505050505050565b60008082116108145760405162461bcd60e51b815260206004820152601160248201527005072696365206d757374206265203e203607c1b6044820152606401610353565b6000805460405163576f7ea760e01b815260048101869052829182918291829182916001600160a01b03169063576f7ea790602401600060405180830381865afa158015610866573d6000803e3d6000fd5b505050506040513d6000823e601f3d908101601f1916820160405261088e9190810190610b64565b955095509550955095509550806108dc5760405162461bcd60e51b815260206004820152601260248201527113919508191bd95cc81b9bdd08195e1a5cdd60721b6044820152606401610353565b6001600160a01b03841633146109245760405162461bcd60e51b815260206004820152600d60248201526c2737ba103a34329037bbb732b960991b6044820152606401610353565b600089815260056020526040902054156109715760405162461bcd60e51b815260206004820152600e60248201526d105b1c9958591e481b1a5cdd195960921b6044820152606401610353565b60028054908190600061098383610c7b565b90915550506040805160c08101825282815260208082018d815233838501818152606085018f81526001608087018181524260a0890190815260008b81526004808a528b82209a518b559751938a019390935593516002890180546001600160a01b0319166001600160a01b03909216919091179055915160038801559051938601805460ff191694151594909417909355516005948501558e8252928252839020849055825191825281018b90528b9183917fcf4ebbb01b0166b4c3bb06d2edd4860d56a19f40c14454fdeb07220bf1752924910160405180910390a396505050505050505b92915050565b600060208284031215610a8257600080fd5b5035919050565b60008060408385031215610a9c57600080fd5b50508035926020909101359150565b600060208284031215610abd57600080fd5b5051919050565b634e487b7160e01b600052601160045260246000fd5b8082028115828204841417610a6a57610a6a610ac4565b600082610b0e57634e487b7160e01b600052601260045260246000fd5b500490565b81810381811115610a6a57610a6a610ac4565b80820180821115610a6a57610a6a610ac4565b634e487b7160e01b600052604160045260246000fd5b80518015158114610b5f57600080fd5b919050565b60008060008060008060c08789031215610b7d57600080fd5b865160208089015160408a01519298509650906001600160a01b0381168114610ba557600080fd5b606089015190955067ffffffffffffffff80821115610bc357600080fd5b818a0191508a601f830112610bd757600080fd5b815181811115610be957610be9610b39565b604051601f8201601f19908116603f01168101908382118183101715610c1157610c11610b39565b816040528281528d86848701011115610c2957600080fd5b600093505b82841015610c4b5784840186015181850187015292850192610c2e565b600086848301015280985050505050505060808701519150610c6f60a08801610b4f565b90509295509295509295565b600060018201610c8d57610c8d610ac4565b506001019056fea264697066735822122083e36e4f007ff7bc8dd09f9307573e05dc8267c029cd19f248516e65be70199e64736f6c63430008140033",
  "linkReferences": {},
  "deployedLinkReferences": {}
}