{
  "_format": "hh-sol-artifact-1",
  "contractName": "AchievementVerifier",
  "sourceName": "contracts/AchievementVerifier.sol",
  "abi": [
    {
      "inputs": [],
      "stateMutability": "nonpayable",
      "type": "constructor"
    },
    {
      "anonymous": false,
      "inputs": [
        {
          "indexed": true,
          "internalType": "address",
          "name": "player",
          "type": "address"
        },
        {
          "indexed": false,
          "internalType": "uint256",
          "name": "achievementId",
          "type": "uint256"
        }
      ],
      "name": "AchievementClaimed",
      "type": "event"
    },
    {
      "anonymous": false,
      "inputs": [
        {
          "indexed": true,
          "internalType": "bytes32",
          "name": "sessionHash",
          "type": "bytes32"
        },
        {
          "indexed": true,
          "internalType": "address",
          "name": "player",
          "type": "address"
        }
      ],
      "name": "SessionVerified",
      "type": "event"
    },
    {
      "inputs": [
        {
          "internalType": "address",
          "name": "",
          "type": "address"
        },
        {
          "internalType": "uint256",
          "name": "",
          "type": "uint256"
        }
      ],
      "name": "achievementClaimed",
      "outputs": [
        {
          "internalType": "bool",
          "name": "",
          "type": "bool"
        }
      ],
      "stateMutability": "view",
      "type": "function"
    },
    {
      "inputs": [],
      "name": "admin",
      "outputs": [
        {
          "internalType": "address",
          "name": "",
          "type": "address"
        }
      ],
      "stateMutability": "view",
      "type": "function"
    },
    {
      "inputs": [
        {
          "internalType": "address",
          "name": "player",
          "type": "address"
        },
        {
          "internalType": "uint256",
          "name": "achievementId",
          "type": "uint256"
        }
      ],
      "name": "checkAchievement",
      "outputs": [
        {
          "internalType": "bool",
          "name": "",
          "type": "bool"
        }
      ],
      "stateMutability": "view",
      "type": "function"
    },
    {
      "inputs": [
        {
          "internalType": "uint256",
          "name": "achievementId",
          "type": "uint256"
        }
      ],
      "name": "claimAchievement",
      "outputs": [
        {
          "internalType": "bool",
          "name": "",
          "type": "bool"
        }
      ],
      "stateMutability": "nonpayable",
      "type": "function"
    },
    {
      "inputs": [],
      "name": "gameServer",
      "outputs": [
        {
          "internalType": "address",
          "name": "",
          "type": "address"
        }
      ],
      "stateMutability": "view",
      "type": "function"
    },
    {
      "inputs": [
        {
          "internalType": "address",
          "name": "player",
          "type": "address"
        }
      ],
      "name": "getPlayerSessions",
      "outputs": [
        {
          "internalType": "bytes32[]",
          "name": "",
          "type": "bytes32[]"
        }
      ],
      "stateMutability": "view",
      "type": "function"
    },
    {
      "inputs": [
        {
          "internalType": "bytes32",
          "name": "sessionHash",
          "type": "bytes32"
        }
      ],
      "name": "getSession",
      "outputs": [
        {
          "components": [
            {
              "internalType": "address",
              "name": "player",
              "type": "address"
            },
            {
              "internalType": "uint256",
              "name": "score",
              "type": "uint256"
            },
            {
              "internalType": "uint256",
              "name": "kills",
              "type": "uint256"
            },
            {
              "internalType": "uint256",
              "name": "accuracy",
              "type": "uint256"
            },
            {
              "internalType": "uint256",
              "name": "timeSurvived",
              "type": "uint256"
            },
            {
              "internalType": "uint256",
              "name": "timestamp",
              "type": "uint256"
            },
            {
              "internalType": "bool",
              "name": "verified",
              "type": "bool"
            },
            {
              "internalType": "bytes32",
              "name": "sessionHash",
              "type": "bytes32"
            }
          ],
          "internalType": "struct AchievementVerifier.GameSession",
          "name": "",
          "type": "tuple"
        }
      ],
      "stateMutability": "view",
      "type": "function"
    },
    {
      "inputs": [
        {
          "internalType": "address",
          "name": "",
          "type": "address"
        },
        {
          "internalType": "uint256",
          "name": "",
          "type": "uint256"
        }
      ],
      "name": "playerSessions",
      "outputs": [
        {
          "internalType": "bytes32",
          "name": "",
          "type": "bytes32"
        }
      ],
      "stateMutability": "view",
      "type": "function"
    },
    {
      "inputs": [
        {
          "internalType": "bytes32",
          "name": "",
          "type": "bytes32"
        }
      ],
      "name": "sessions",
      "outputs": [
        {
          "internalType": "address",
          "name": "player",
          "type": "address"
        },
        {
          "internalType": "uint256",
          "name": "score",
          "type": "uint256"
        },
        {
          "internalType": "uint256",
          "name": "kills",
          "type": "uint256"
        },
        {
          "internalType": "uint256",
          "name": "accuracy",
          "type": "uint256"
        },
        {
          "internalType": "uint256",
          "name": "timeSurvived",
          "type": "uint256"
        },
        {
          "internalType": "uint256",
          "name": "timestamp",
          "type": "uint256"
        },
        {
          "internalType": "bool",
          "name": "verified",
          "type": "bool"
        },
        {
          "internalType": "bytes32",
          "name": "sessionHash",
          "type": "bytes32"
        }
      ],
      "stateMutability": "view",
      "type": "function"
    },
    {
      "inputs": [
        {
          "internalType": "address",
          "name": "_gameServer",
          "type": "address"
        }
      ],
      "name": "setGameServer",
      "outputs": [],
      "stateMutability": "nonpayable",
      "type": "function"
    },
    {
      "inputs": [
        {
          "internalType": "address",
          "name": "player",
          "type": "address"
        },
        {
          "internalType": "uint256",
          "name": "score",
          "type": "uint256"
        },
        {
          "internalType": "uint256",
          "name": "kills",
          "type": "uint256"
        },
        {
          "internalType": "uint256",
          "name": "accuracy",
          "type": "uint256"
        },
        {
          "internalType": "uint256",
          "name": "timeSurvived",
          "type": "uint256"
        },
        {
          "internalType": "bytes",
          "name": "signature",
          "type": "bytes"
        }
      ],
      "name": "verifySession",
      "outputs": [
        {
          "internalType": "bytes32",
          "name": "",
          "type": "bytes32"
        }
      ],
      "stateMutability": "nonpayable",
      "type": "function"
    }
  ],
  "bytecode": "0x608060405234801561001057600080fd5b50600080546001600160a01b03191633179055610e53806100326000396000f3fe608060405234801561001057600080fd5b50600436106100a95760003560e01c80636a8b2d0a116100715780636a8b2d0a146101d75780637dbd2832146101ea578063b3bd6a2714610291578063d16d1ca2146102a6578063d8838fe1146102b9578063f851a440146102cc57600080fd5b8063120b7d64146100ae57806329cd564c146100f157806339b240bd1461011c5780634fbfa459146101965780635ac3a862146101b6575b600080fd5b6100dc6100bc366004610bf9565b600460209081526000928352604080842090915290825290205460ff1681565b60405190151581526020015b60405180910390f35b600154610104906001600160a01b031681565b6040516001600160a01b0390911681526020016100e8565b61012f61012a366004610c23565b6102df565b6040516100e8919081516001600160a01b031681526020808301519082015260408083015190820152606080830151908201526080808301519082015260a0828101519082015260c08083015115159082015260e091820151918101919091526101000190565b6101a96101a4366004610c3c565b6103ae565b6040516100e89190610c5e565b6101c96101c4366004610cb8565b61041a565b6040519081526020016100e8565b6100dc6101e5366004610c23565b6106ca565b61024a6101f8366004610c23565b6002602081905260009182526040909120805460018201549282015460038301546004840154600585015460068601546007909601546001600160a01b039095169695939492939192909160ff169088565b604080516001600160a01b0390991689526020890197909752958701949094526060860192909252608085015260a0840152151560c083015260e0820152610100016100e8565b6102a461029f366004610c3c565b6107d4565b005b6100dc6102b4366004610bf9565b61083d565b6101c96102c7366004610bf9565b610bac565b600054610104906001600160a01b031681565b61033560405180610100016040528060006001600160a01b031681526020016000815260200160008152602001600081526020016000815260200160008152602001600015158152602001600080191681525090565b5060009081526002602081815260409283902083516101008101855281546001600160a01b0316815260018201549281019290925291820154928101929092526003810154606083015260048101546080830152600581015460a0830152600681015460ff16151560c08301526007015460e082015290565b6001600160a01b03811660009081526003602090815260409182902080548351818402810184019094528084526060939283018282801561040e57602002820191906000526020600020905b8154815260200190600101908083116103fa575b50505050509050919050565b6001546000906001600160a01b031633148061044057506000546001600160a01b031633145b6104845760405162461bcd60e51b815260206004820152601060248201526f27b7363c9033b0b6b29039b2b93b32b960811b60448201526064015b60405180910390fd5b6001600160a01b0387166104cb5760405162461bcd60e51b815260206004820152600e60248201526d24b73b30b634b210383630bcb2b960911b604482015260640161047b565b6127108411156105105760405162461bcd60e51b815260206004820152601060248201526f496e76616c696420616363757261637960801b604482015260640161047b565b60008251116105555760405162461bcd60e51b8152602060048201526011602482015270496e76616c6964207369676e617475726560781b604482015260640161047b565b604080516bffffffffffffffffffffffff1960608a901b16602080830191909152603482018990526054820188905260748201879052609482018690524260b483018190524360d4808501919091528451808503909101815260f484018086528151918401919091206101f4850186526001600160a01b03808e1680845261011487018e815261013488018e815261015489018e81526101748a018e81526101948b0198895260016101b48c018181526101d4909c0188815260008981526002808e528f82209b518c546001600160a01b0319169a16999099178b5595518a83015593519689019690965590516003808901919091559051600488015596516005870155975160068601805460ff19169115159190911790559651600790940193909355828652928452858520805493840181558552928420909101829055925190929183917fadb79608cb1cd165fc2c3812b6b673a354f7c9e0a645e63f6182bdf86b3b15ff9190a3979650505050505050565b33600090815260046020908152604080832084845290915281205460ff16156107275760405162461bcd60e51b815260206004820152600f60248201526e105b1c9958591e4818db185a5b5959608a1b604482015260640161047b565b610731338361083d565b6107765760405162461bcd60e51b81526020600482015260166024820152751058da1a595d995b595b9d081b9bdd0819585c9b995960521b604482015260640161047b565b336000818152600460209081526040808320868452825291829020805460ff1916600117905590518481527f04844d30b922ffc2b845400eb2a15cdd62742176c723e09d7cc9703e83645e4b910160405180910390a2506001919050565b6000546001600160a01b0316331461081b5760405162461bcd60e51b815260206004820152600a60248201526927b7363c9030b236b4b760b11b604482015260640161047b565b600180546001600160a01b0319166001600160a01b0392909216919091179055565b6000600182101580156108515750600a8211155b6108965760405162461bcd60e51b8152602060048201526016602482015275125b9d985b1a59081858da1a595d995b595b9d08125160521b604482015260640161047b565b6001600160a01b0383166000908152600360209081526040808320805482518185028101850190935280835291929091908301828280156108f657602002820191906000526020600020905b8154815260200190600101908083116108e2575b505050505090508051600003610910576000915050610ba6565b60005b8151811015610b9f57600082828151811061093057610930610d9f565b6020908102919091018101516000818152600280845260409182902082516101008101845281546001600160a01b031681526001808301549682019690965291810154928201929092526003820154606082015260048201546080820152600582015460a0820152600682015460ff16151560c082015260079091015460e0820152909250908690036109dd57620186a08160200151106109d8576001945050505050610ba6565b610b8a565b856002036109fe5760328160400151106109d8576001945050505050610ba6565b85600303610a20576121348160600151106109d8576001945050505050610ba6565b85600403610a42576103848160800151106109d8576001945050505050610ba6565b85600503610a645761c3508160200151106109d8576001945050505050610ba6565b85600603610ab6576080810151156109d857600081608001518260400151603c610a8e9190610dcb565b610a989190610de2565b9050600a8110610ab057600195505050505050610ba6565b50610b8a565b85600703610ad85761251c8160600151106109d8576001945050505050610ba6565b85600803610afa576102588160800151106109d8576001945050505050610ba6565b85600903610b3057617530816020015110158015610b1e5750611f40816060015110155b156109d8576001945050505050610ba6565b85600a03610b8a57620186a0816020015110158015610b5457506032816040015110155b8015610b665750612328816060015110155b8015610b785750610258816080015110155b15610b8a576001945050505050610ba6565b50508080610b9790610e04565b915050610913565b5060009150505b92915050565b60036020528160005260406000208181548110610bc857600080fd5b90600052602060002001600091509150505481565b80356001600160a01b0381168114610bf457600080fd5b919050565b60008060408385031215610c0c57600080fd5b610c1583610bdd565b946020939093013593505050565b600060208284031215610c3557600080fd5b5035919050565b600060208284031215610c4e57600080fd5b610c5782610bdd565b9392505050565b6020808252825182820181905260009190848201906040850190845b81811015610c9657835183529284019291840191600101610c7a565b50909695505050505050565b634e487b7160e01b600052604160045260246000fd5b60008060008060008060c08789031215610cd157600080fd5b610cda87610bdd565b95506020870135945060408701359350606087013592506080870135915060a087013567ffffffffffffffff80821115610d1357600080fd5b818901915089601f830112610d2757600080fd5b813581811115610d3957610d39610ca2565b604051601f8201601f19908116603f01168101908382118183101715610d6157610d61610ca2565b816040528281528c6020848701011115610d7a57600080fd5b8260208601602083013760006020848301015280955050505050509295509295509295565b634e487b7160e01b600052603260045260246000fd5b634e487b7160e01b600052601160045260246000fd5b8082028115828204841417610ba657610ba6610db5565b600082610dff57634e487b7160e01b600052601260045260246000fd5b500490565b600060018201610e1657610e16610db5565b506001019056fea2646970667358221220e6a1e70bf240ebf3f5407ed8a1defb98d5565613173abed2f7ac252be496e36a64736f6c63430008140033",
  "linkReferences": {},
  "deployedLinkReferences": {}
}